{
  "contractName": "test",
  "abi": [
    {
      "stateMutability": "nonpayable",
      "type": "fallback"
    },
    {
      "inputs": [],
      "name": "getResults",
      "outputs": [
        {
          "internalType": "int256",
          "name": "",
          "type": "int256"
        }
      ],
      "stateMutability": "pure",
      "type": "function"
    },
    {
      "inputs": [],
      "name": "getHi",
      "outputs": [
        {
          "internalType": "string",
          "name": "",
          "type": "string"
        }
      ],
      "stateMutability": "pure",
      "type": "function"
    }
  ],
  "bytecode": "0x608060405234801561001057600080fd5b506101e4806100206000396000f3fe608060405234801561001057600080fd5b506004361061003a5760003560e01c80634717f97c1461003d57806381fd5e281461005b5761003b565b5b005b610045610079565b60405161005291906100d8565b60405180910390f35b610063610082565b604051610070919061018c565b60405180910390f35b6000600b905090565b60606040518060400160405280600281526020017f4869000000000000000000000000000000000000000000000000000000000000815250905090565b6000819050919050565b6100d2816100bf565b82525050565b60006020820190506100ed60008301846100c9565b92915050565b600081519050919050565b600082825260208201905092915050565b60005b8381101561012d578082015181840152602081019050610112565b8381111561013c576000848401525b50505050565b6000601f19601f8301169050919050565b600061015e826100f3565b61016881856100fe565b935061017881856020860161010f565b61018181610142565b840191505092915050565b600060208201905081810360008301526101a68184610153565b90509291505056fea26469706673582212207ef5125ea550c845f7ba3eca1a16443914b964362a0ddb75a1a8eaa5d432ea8464736f6c634300080d0033",
  "immutableReferences": {},
  "source": "// SPDX-License-Identifier: MIT\r\npragma solidity ^0.8.0;\r\n\r\ncontract test {\r\n\r\n//     function getResult() public pure returns(uint product, uint sum){\r\n//       uint a = 1; \r\n//       uint b = 2;\r\n//       product = a * b;\r\n//       sum = a + b; \r\n//    }\r\n    function getResults() public pure returns(int){\r\n        return 5 + 6;\r\n\r\n    }\r\n\r\n    function getHi() public pure returns (string memory){\r\n        return \"Hi\";\r\n    }\r\n    fallback() external{\r\n\r\n   }\r\n}",
  "sourcePath": "/Users/gabriel/Documents/SUTD/Term 7/Blockchain/50.037-SUTDBlockU-Smart-Contract/contracts/test.sol",
  "compiler": {
    "name": "solc",
    "version": "0.8.13+commit.abaa5c0e.Emscripten.clang"
  },
  "schemaVersion": "3.4.6",
  "updatedAt": "2022-03-31T13:50:24.726Z",
  "devdoc": {
    "kind": "dev",
    "methods": {},
    "version": 1
  },
  "userdoc": {
    "kind": "user",
    "methods": {},
    "version": 1
  }
}