{
  "contractName": "UniMarketplace",
  "abi": [
    {
      "inputs": [
        {
          "internalType": "contract UniToken",
          "name": "tokenAddress",
          "type": "address"
        }
      ],
      "stateMutability": "nonpayable",
      "type": "constructor"
    },
    {
      "anonymous": false,
      "inputs": [
        {
          "indexed": false,
          "internalType": "uint256",
          "name": "listingId",
          "type": "uint256"
        },
        {
          "indexed": false,
          "internalType": "uint256",
          "name": "tokenId",
          "type": "uint256"
        },
        {
          "indexed": false,
          "internalType": "uint256",
          "name": "price",
          "type": "uint256"
        }
      ],
      "name": "ItemListedSuccessfully",
      "type": "event"
    },
    {
      "anonymous": false,
      "inputs": [
        {
          "indexed": false,
          "internalType": "uint256",
          "name": "listingId",
          "type": "uint256"
        },
        {
          "indexed": false,
          "internalType": "address",
          "name": "buyer",
          "type": "address"
        },
        {
          "indexed": false,
          "internalType": "uint256",
          "name": "price",
          "type": "uint256"
        }
      ],
      "name": "ItemSold",
      "type": "event"
    },
    {
      "inputs": [
        {
          "internalType": "uint256",
          "name": "",
          "type": "uint256"
        }
      ],
      "name": "isListed",
      "outputs": [
        {
          "internalType": "bool",
          "name": "",
          "type": "bool"
        }
      ],
      "stateMutability": "view",
      "type": "function"
    },
    {
      "inputs": [
        {
          "internalType": "uint256",
          "name": "",
          "type": "uint256"
        }
      ],
      "name": "itemsListed",
      "outputs": [
        {
          "internalType": "uint256",
          "name": "listingId",
          "type": "uint256"
        },
        {
          "internalType": "uint256",
          "name": "tokenId",
          "type": "uint256"
        },
        {
          "internalType": "address",
          "name": "seller",
          "type": "address"
        },
        {
          "internalType": "uint256",
          "name": "price",
          "type": "uint256"
        },
        {
          "internalType": "bool",
          "name": "sold",
          "type": "bool"
        }
      ],
      "stateMutability": "view",
      "type": "function"
    },
    {
      "inputs": [
        {
          "internalType": "uint256",
          "name": "tokenId",
          "type": "uint256"
        },
        {
          "internalType": "uint256",
          "name": "price",
          "type": "uint256"
        }
      ],
      "name": "list",
      "outputs": [
        {
          "internalType": "uint256",
          "name": "",
          "type": "uint256"
        }
      ],
      "stateMutability": "nonpayable",
      "type": "function"
    },
    {
      "inputs": [
        {
          "internalType": "uint256",
          "name": "listingId",
          "type": "uint256"
        }
      ],
      "name": "buyItem",
      "outputs": [],
      "stateMutability": "payable",
      "type": "function"
    },
    {
      "inputs": [],
      "name": "getAllNFTs",
      "outputs": [
        {
          "components": [
            {
              "internalType": "uint256",
              "name": "listingId",
              "type": "uint256"
            },
            {
              "internalType": "uint256",
              "name": "tokenId",
              "type": "uint256"
            },
            {
              "internalType": "address",
              "name": "seller",
              "type": "address"
            },
            {
              "internalType": "uint256",
              "name": "price",
              "type": "uint256"
            },
            {
              "internalType": "bool",
              "name": "sold",
              "type": "bool"
            }
          ],
          "internalType": "struct UniMarketplace.ListedItem[]",
          "name": "",
          "type": "tuple[]"
        }
      ],
      "stateMutability": "view",
      "type": "function"
    },
    {
      "inputs": [],
      "name": "getUserNFTs",
      "outputs": [
        {
          "components": [
            {
              "internalType": "uint256",
              "name": "tokenId",
              "type": "uint256"
            },
            {
              "internalType": "bool",
              "name": "listed",
              "type": "bool"
            }
          ],
          "internalType": "struct UniMarketplace.UserNFT[]",
          "name": "",
          "type": "tuple[]"
        }
      ],
      "stateMutability": "view",
      "type": "function"
    }
  ],
  "bytecode": "0x60806040523480156200001157600080fd5b50604051620017d1380380620017d18339818101604052810190620000379190620000fc565b806000806101000a81548173ffffffffffffffffffffffffffffffffffffffff021916908373ffffffffffffffffffffffffffffffffffffffff160217905550506200012e565b600080fd5b600073ffffffffffffffffffffffffffffffffffffffff82169050919050565b6000620000b08262000083565b9050919050565b6000620000c482620000a3565b9050919050565b620000d681620000b7565b8114620000e257600080fd5b50565b600081519050620000f681620000cb565b92915050565b6000602082840312156200011557620001146200007e565b5b60006200012584828501620000e5565b91505092915050565b611693806200013e6000396000f3fe6080604052600436106100555760003560e01c806350fd73671461005a57806377b046e914610097578063e0391b09146100d8578063e7fb74c714610103578063fcce48831461011f578063fdc5ab8e1461015c575b600080fd5b34801561006657600080fd5b50610081600480360381019061007c9190610e4b565b610187565b60405161008e9190610e9a565b60405180910390f35b3480156100a357600080fd5b506100be60048036038101906100b99190610eb5565b610462565b6040516100cf959493929190610f3e565b60405180910390f35b3480156100e457600080fd5b506100ed6104d5565b6040516100fa91906110d5565b60405180910390f35b61011d60048036038101906101189190610eb5565b6106e8565b005b34801561012b57600080fd5b5061014660048036038101906101419190610eb5565b610a4a565b60405161015391906110f7565b60405180910390f35b34801561016857600080fd5b50610171610a6a565b60405161017e91906111f0565b60405180910390f35b6000823373ffffffffffffffffffffffffffffffffffffffff1660008054906101000a900473ffffffffffffffffffffffffffffffffffffffff1673ffffffffffffffffffffffffffffffffffffffff16636352211e836040518263ffffffff1660e01b81526004016101fa9190610e9a565b602060405180830381865afa158015610217573d6000803e3d6000fd5b505050506040513d601f19601f8201168201806040525081019061023b919061123e565b73ffffffffffffffffffffffffffffffffffffffff1614610291576040517f08c379a0000000000000000000000000000000000000000000000000000000008152600401610288906112c8565b60405180910390fd5b836002600082815260200190815260200160002060009054906101000a900460ff16156102f3576040517f08c379a00000000000000000000000000000000000000000000000000000000081526004016102ea9061135a565b60405180910390fd5b6000600180549050905060016040518060a001604052808381526020018881526020013373ffffffffffffffffffffffffffffffffffffffff168152602001878152602001600015158152509080600181540180825580915050600190039060005260206000209060050201600090919091909150600082015181600001556020820151816001015560408201518160020160006101000a81548173ffffffffffffffffffffffffffffffffffffffff021916908373ffffffffffffffffffffffffffffffffffffffff1602179055506060820151816003015560808201518160040160006101000a81548160ff021916908315150217905550505060016002600088815260200190815260200160002060006101000a81548160ff0219169083151502179055507f456883247708cee5b52025d61dc9fd7dec3c58c552d8e8b1ddd5b292745f4b0f81878760405161044e9392919061137a565b60405180910390a180935050505092915050565b6001818154811061047257600080fd5b90600052602060002090600502016000915090508060000154908060010154908060020160009054906101000a900473ffffffffffffffffffffffffffffffffffffffff16908060030154908060040160009054906101000a900460ff16905085565b60606000805b60018054905081101561054157600181815481106104fc576104fb6113b1565b5b906000526020600020906005020160040160009054906101000a900460ff1661052e57818061052a9061140f565b9250505b80806105399061140f565b9150506104db565b5060008167ffffffffffffffff81111561055e5761055d611457565b5b60405190808252806020026020018201604052801561059757816020015b610584610dad565b81526020019060019003908161057c5790505b5090506000805b6001805490508110156106de57600181815481106105bf576105be6113b1565b5b906000526020600020906005020160040160009054906101000a900460ff166106cb57600181815481106105f6576105f56113b1565b5b90600052602060002090600502016040518060a001604052908160008201548152602001600182015481526020016002820160009054906101000a900473ffffffffffffffffffffffffffffffffffffffff1673ffffffffffffffffffffffffffffffffffffffff1673ffffffffffffffffffffffffffffffffffffffff168152602001600382015481526020016004820160009054906101000a900460ff1615151515815250508383815181106106b1576106b06113b1565b5b602002602001018190525081806106c79061140f565b9250505b80806106d69061140f565b91505061059e565b5081935050505090565b80600181815481106106fd576106fc6113b1565b5b906000526020600020906005020160040160009054906101000a900460ff161561075c576040517f08c379a0000000000000000000000000000000000000000000000000000000008152600401610753906114d2565b60405180910390fd5b600060018381548110610772576107716113b1565b5b906000526020600020906005020160010154905060006001848154811061079c5761079b6113b1565b5b906000526020600020906005020160020160009054906101000a900473ffffffffffffffffffffffffffffffffffffffff1690506000600185815481106107e6576107e56113b1565b5b906000526020600020906005020160030154905080341461083c576040517f08c379a000000000000000000000000000000000000000000000000000000000815260040161083390611564565b60405180910390fd5b6001808681548110610851576108506113b1565b5b906000526020600020906005020160040160006101000a81548160ff02191690831515021790555060006002600085815260200190815260200160002060006101000a81548160ff0219169083151502179055508173ffffffffffffffffffffffffffffffffffffffff166108fc829081150290604051600060405180830381858888f193505050501580156108eb573d6000803e3d6000fd5b5060008054906101000a900473ffffffffffffffffffffffffffffffffffffffff1673ffffffffffffffffffffffffffffffffffffffff166323b872dd8333866040518463ffffffff1660e01b815260040161094993929190611584565b600060405180830381600087803b15801561096357600080fd5b505af1158015610977573d6000803e3d6000fd5b5050505060008054906101000a900473ffffffffffffffffffffffffffffffffffffffff1673ffffffffffffffffffffffffffffffffffffffff1663ab3b87fe33856040518363ffffffff1660e01b81526004016109d69291906115bb565b600060405180830381600087803b1580156109f057600080fd5b505af1158015610a04573d6000803e3d6000fd5b505050507fa574c741071bb18f51fa88c17aeefec514bebf670ca22a3736fba6504ecbb763853383604051610a3b939291906115e4565b60405180910390a15050505050565b60026020528060005260406000206000915054906101000a900460ff1681565b606060008060009054906101000a900473ffffffffffffffffffffffffffffffffffffffff1673ffffffffffffffffffffffffffffffffffffffff1663cd2ed8fb6040518163ffffffff1660e01b8152600401602060405180830381865afa158015610ada573d6000803e3d6000fd5b505050506040513d601f19601f82011682018060405250810190610afe9190611630565b90506000805b82811015610bfa573373ffffffffffffffffffffffffffffffffffffffff1660008054906101000a900473ffffffffffffffffffffffffffffffffffffffff1673ffffffffffffffffffffffffffffffffffffffff16636352211e836040518263ffffffff1660e01b8152600401610b7c9190610e9a565b602060405180830381865afa158015610b99573d6000803e3d6000fd5b505050506040513d601f19601f82011682018060405250810190610bbd919061123e565b73ffffffffffffffffffffffffffffffffffffffff1603610be7578180610be39061140f565b9250505b8080610bf29061140f565b915050610b04565b5060008167ffffffffffffffff811115610c1757610c16611457565b5b604051908082528060200260200182016040528015610c5057816020015b610c3d610df4565b815260200190600190039081610c355790505b5090506000805b84811015610da2573373ffffffffffffffffffffffffffffffffffffffff1660008054906101000a900473ffffffffffffffffffffffffffffffffffffffff1673ffffffffffffffffffffffffffffffffffffffff16636352211e836040518263ffffffff1660e01b8152600401610ccf9190610e9a565b602060405180830381865afa158015610cec573d6000803e3d6000fd5b505050506040513d601f19601f82011682018060405250810190610d10919061123e565b73ffffffffffffffffffffffffffffffffffffffff1603610d8f5760405180604001604052808281526020016002600084815260200190815260200160002060009054906101000a900460ff161515815250838381518110610d7557610d746113b1565b5b60200260200101819052508180610d8b9061140f565b9250505b8080610d9a9061140f565b915050610c57565b508194505050505090565b6040518060a001604052806000815260200160008152602001600073ffffffffffffffffffffffffffffffffffffffff168152602001600081526020016000151581525090565b6040518060400160405280600081526020016000151581525090565b600080fd5b6000819050919050565b610e2881610e15565b8114610e3357600080fd5b50565b600081359050610e4581610e1f565b92915050565b60008060408385031215610e6257610e61610e10565b5b6000610e7085828601610e36565b9250506020610e8185828601610e36565b9150509250929050565b610e9481610e15565b82525050565b6000602082019050610eaf6000830184610e8b565b92915050565b600060208284031215610ecb57610eca610e10565b5b6000610ed984828501610e36565b91505092915050565b600073ffffffffffffffffffffffffffffffffffffffff82169050919050565b6000610f0d82610ee2565b9050919050565b610f1d81610f02565b82525050565b60008115159050919050565b610f3881610f23565b82525050565b600060a082019050610f536000830188610e8b565b610f606020830187610e8b565b610f6d6040830186610f14565b610f7a6060830185610e8b565b610f876080830184610f2f565b9695505050505050565b600081519050919050565b600082825260208201905092915050565b6000819050602082019050919050565b610fc681610e15565b82525050565b610fd581610f02565b82525050565b610fe481610f23565b82525050565b60a0820160008201516110006000850182610fbd565b5060208201516110136020850182610fbd565b5060408201516110266040850182610fcc565b5060608201516110396060850182610fbd565b50608082015161104c6080850182610fdb565b50505050565b600061105e8383610fea565b60a08301905092915050565b6000602082019050919050565b600061108282610f91565b61108c8185610f9c565b935061109783610fad565b8060005b838110156110c85781516110af8882611052565b97506110ba8361106a565b92505060018101905061109b565b5085935050505092915050565b600060208201905081810360008301526110ef8184611077565b905092915050565b600060208201905061110c6000830184610f2f565b92915050565b600081519050919050565b600082825260208201905092915050565b6000819050602082019050919050565b6040820160008201516111546000850182610fbd565b5060208201516111676020850182610fdb565b50505050565b6000611179838361113e565b60408301905092915050565b6000602082019050919050565b600061119d82611112565b6111a7818561111d565b93506111b28361112e565b8060005b838110156111e35781516111ca888261116d565b97506111d583611185565b9250506001810190506111b6565b5085935050505092915050565b6000602082019050818103600083015261120a8184611192565b905092915050565b61121b81610f02565b811461122657600080fd5b50565b60008151905061123881611212565b92915050565b60006020828403121561125457611253610e10565b5b600061126284828501611229565b91505092915050565b600082825260208201905092915050565b7f53656e64657220646f6573206e6f74206f776e20746865206974656d00000000600082015250565b60006112b2601c8361126b565b91506112bd8261127c565b602082019050919050565b600060208201905081810360008301526112e1816112a5565b9050919050565b7f4974656d20616c7265616479206c6973746564206f6e206d61726b6574706c6160008201527f6365000000000000000000000000000000000000000000000000000000000000602082015250565b600061134460228361126b565b915061134f826112e8565b604082019050919050565b6000602082019050818103600083015261137381611337565b9050919050565b600060608201905061138f6000830186610e8b565b61139c6020830185610e8b565b6113a96040830184610e8b565b949350505050565b7f4e487b7100000000000000000000000000000000000000000000000000000000600052603260045260246000fd5b7f4e487b7100000000000000000000000000000000000000000000000000000000600052601160045260246000fd5b600061141a82610e15565b91507fffffffffffffffffffffffffffffffffffffffffffffffffffffffffffffffff820361144c5761144b6113e0565b5b600182019050919050565b7f4e487b7100000000000000000000000000000000000000000000000000000000600052604160045260246000fd5b7f4974656d20686173206265656e20736f6c640000000000000000000000000000600082015250565b60006114bc60128361126b565b91506114c782611486565b602082019050919050565b600060208201905081810360008301526114eb816114af565b9050919050565b7f506c65617365207375626d6974207468652061736b696e67207072696365206960008201527f6e206f7264657220746f20636f6d706c65746520746865207075726368617365602082015250565b600061154e60408361126b565b9150611559826114f2565b604082019050919050565b6000602082019050818103600083015261157d81611541565b9050919050565b60006060820190506115996000830186610f14565b6115a66020830185610f14565b6115b36040830184610e8b565b949350505050565b60006040820190506115d06000830185610f14565b6115dd6020830184610e8b565b9392505050565b60006060820190506115f96000830186610e8b565b6116066020830185610f14565b6116136040830184610e8b565b949350505050565b60008151905061162a81610e1f565b92915050565b60006020828403121561164657611645610e10565b5b60006116548482850161161b565b9150509291505056fea2646970667358221220e7793ee4f462152cf131603f5bb77d27075d78abe61df154871c050e64806e8864736f6c634300080d0033",
  "immutableReferences": {},
  "source": "// SPDX-License-Identifier: MIT\npragma solidity ^0.8.0;\n\nimport \"@openzeppelin/contracts/security/ReentrancyGuard.sol\";\n\nimport \"./UniToken.sol\";\n\ncontract UniMarketplace {\n    UniToken private _uniToken;\n\n    constructor(UniToken tokenAddress) {\n        _uniToken = tokenAddress;\n    }\n\n    struct ListedItem {\n        uint256 listingId; // Index of listed item used to track selling status of a particular listing\n        uint256 tokenId; \n        address seller;\n        uint256 price; // Price set by seller\n        bool sold; \n    }\n    \n    // Array to store all listed tokens and their statuses\n    ListedItem[] public itemsListed;\n\n    // Mapping to check if tokenId is listed on the marketplace and can be bought \n    mapping(uint256 => bool) public isListed;\n    \n    // Function modifier to check if lister has the token to prevent hackers from listing other peoples' tokens\n    modifier IsItemOwner(uint256 tokenId){\n        require(_uniToken.ownerOf(tokenId) == msg.sender, \"Sender does not own the item\");\n        _;\n    }\n\n    // Function modifier to check if a listed item is still for sale\n    modifier IsForSale(uint256 listingId){\n        require(!itemsListed[listingId].sold, \"Item has been sold\");\n        _;\n    }\n\n    // Function modifier to check if item is already listed on marketplace\n    modifier IsNotListed(uint256 tokenId) {\n        require(!isListed[tokenId], \"Item already listed on marketplace\");\n        _;\n    }\n\n    event ItemListedSuccessfully(uint256 listingId, uint256 tokenId, uint256 price);\n    event ItemSold(uint256 listingId, address buyer, uint256 price);\n\n    // List owned NFT with price and tokenId passed from frontend\n    function list(uint256 tokenId, uint256 price) \n    IsItemOwner(tokenId)\n    IsNotListed(tokenId)\n    external \n    returns (uint256){\n        uint256 listingId = itemsListed.length;\n\n        // Add new listed item into itemsListed array\n        itemsListed.push(ListedItem({\n            listingId: listingId,\n            tokenId: tokenId,\n            seller: msg.sender, // Seller address to be made payable in Buy function\n            price: price,\n            sold: false\n        }));\n\n        // Set is listed tracking to true to prevent relisting of same token\n        isListed[tokenId] = true;\n\n        // Emit event to the frontend to update the UI\n        emit ItemListedSuccessfully(listingId, tokenId, price);\n        \n        return listingId;\n    }\n    \n    // Function called to purchase a listed item\n    function buyItem(uint256 listingId) \n    IsForSale(listingId)\n    payable \n    external {\n        uint256 tokenId = itemsListed[listingId].tokenId;\n        address seller = itemsListed[listingId].seller;\n        uint256 price = itemsListed[listingId].price;\n        \n        // I think this function calls the metamask (adapted from https://github.com/ethereum-boilerplate/ethereum-nft-marketplace-boilerplate/blob/main/src/contracts/marketplaceBoilerplate.sol)\n        // Need to test on frontend\n        require(msg.value == price, \"Please submit the asking price in order to complete the purchase\");\n\n        // Set the sold variable in the itemsListed array to true\n        itemsListed[listingId].sold = true;\n\n        // Set listed to false\n        isListed[tokenId] = false;\n\n        // Transfer funds from buyer to seller\n        payable(seller).transfer(price);\n\n        // Call the tranfer function from UniToken\n        _uniToken.transferFrom(seller, msg.sender, tokenId);\n        _uniToken.setOwner(msg.sender, tokenId);\n\n        emit ItemSold(listingId, msg.sender, price);\n    }\n\n    // returns all unsold listed items\n    function getAllNFTs() public view returns(ListedItem[] memory){\n\n        uint256 num = 0;\n\n        for (uint i = 0; i < itemsListed.length; i++) {\n            if (!itemsListed[i].sold) {\n                num++;\n            }\n        }\n\n        ListedItem[] memory listedNFTs = new ListedItem[](num);\n        uint256 j = 0;\n\n        for (uint i = 0; i < itemsListed.length; i++) {\n            if (!itemsListed[i].sold) {\n                listedNFTs[j] = itemsListed[i];\n                j++;\n            }\n        }\n        return listedNFTs;\n    }\n\n    struct UserNFT {\n        uint256 tokenId;\n        bool listed;\n    }\n\n    function getUserNFTs() public view returns(UserNFT[] memory) {\n\n        uint256 totalTokens = _uniToken.getNumTokens();\n\n        uint256 num = 0;\n\n        for (uint i = 0; i < totalTokens; i++) {\n            if (_uniToken.ownerOf(i) == msg.sender) {\n                num++;\n            }\n        }\n\n        UserNFT[] memory userNFTs = new UserNFT[](num);\n        uint256 j = 0;\n\n        for (uint i = 0; i < totalTokens; i++) {\n            if (_uniToken.ownerOf(i) == msg.sender) {\n                userNFTs[j] = (UserNFT(i, isListed[i]));\n                j++;\n            }\n        }\n\n        return userNFTs;\n    }\n}",
  "sourcePath": "/Users/tiongshankai/Documents/Github/50.037-SUTDBlockU/backend/contracts/UniMarketplace.sol",
  "compiler": {
    "name": "solc",
    "version": "0.8.13+commit.abaa5c0e.Emscripten.clang"
  },
  "schemaVersion": "3.4.6",
  "updatedAt": "2022-04-10T15:26:23.378Z",
  "devdoc": {
    "kind": "dev",
    "methods": {},
    "version": 1
  },
  "userdoc": {
    "kind": "user",
    "methods": {},
    "version": 1
  }
}