{
  "contractName": "UniMarketplace",
  "abi": [
    {
      "inputs": [
        {
          "internalType": "contract UniToken",
          "name": "tokenAddress",
          "type": "address"
        }
      ],
      "stateMutability": "nonpayable",
      "type": "constructor"
    },
    {
      "anonymous": false,
      "inputs": [
        {
          "indexed": false,
          "internalType": "uint256",
          "name": "newItemId",
          "type": "uint256"
        },
        {
          "indexed": false,
          "internalType": "uint256",
          "name": "tokenId",
          "type": "uint256"
        },
        {
          "indexed": false,
          "internalType": "uint256",
          "name": "price",
          "type": "uint256"
        }
      ],
      "name": "ItemListedSuccessfully",
      "type": "event"
    },
    {
      "anonymous": false,
      "inputs": [
        {
          "indexed": false,
          "internalType": "uint256",
          "name": "listingId",
          "type": "uint256"
        },
        {
          "indexed": false,
          "internalType": "address",
          "name": "buyer",
          "type": "address"
        },
        {
          "indexed": false,
          "internalType": "uint256",
          "name": "price",
          "type": "uint256"
        }
      ],
      "name": "ItemSold",
      "type": "event"
    },
    {
      "inputs": [
        {
          "internalType": "uint256",
          "name": "",
          "type": "uint256"
        }
      ],
      "name": "isListed",
      "outputs": [
        {
          "internalType": "bool",
          "name": "",
          "type": "bool"
        }
      ],
      "stateMutability": "view",
      "type": "function",
      "constant": true
    },
    {
      "inputs": [
        {
          "internalType": "uint256",
          "name": "",
          "type": "uint256"
        }
      ],
      "name": "itemsListed",
      "outputs": [
        {
          "internalType": "uint256",
          "name": "listingId",
          "type": "uint256"
        },
        {
          "internalType": "uint256",
          "name": "tokenId",
          "type": "uint256"
        },
        {
          "internalType": "uint256",
          "name": "price",
          "type": "uint256"
        },
        {
          "internalType": "address",
          "name": "seller",
          "type": "address"
        },
        {
          "internalType": "bool",
          "name": "sold",
          "type": "bool"
        }
      ],
      "stateMutability": "view",
      "type": "function",
      "constant": true
    },
    {
      "inputs": [
        {
          "internalType": "uint256",
          "name": "tokenId",
          "type": "uint256"
        },
        {
          "internalType": "uint256",
          "name": "price",
          "type": "uint256"
        }
      ],
      "name": "list",
      "outputs": [
        {
          "internalType": "uint256",
          "name": "",
          "type": "uint256"
        }
      ],
      "stateMutability": "nonpayable",
      "type": "function"
    },
    {
      "inputs": [
        {
          "internalType": "uint256",
          "name": "listingId",
          "type": "uint256"
        }
      ],
      "name": "buyItem",
      "outputs": [],
      "stateMutability": "payable",
      "type": "function",
      "payable": true
    },
    {
      "inputs": [],
      "name": "getAllNFTs",
      "outputs": [
        {
          "components": [
            {
              "internalType": "string",
              "name": "name",
              "type": "string"
            },
            {
              "internalType": "string",
              "name": "description",
              "type": "string"
            },
            {
              "internalType": "string",
              "name": "imgUrl",
              "type": "string"
            },
            {
              "internalType": "address",
              "name": "creator",
              "type": "address"
            },
            {
              "internalType": "string",
              "name": "imgHash",
              "type": "string"
            },
            {
              "internalType": "string",
              "name": "createdAt",
              "type": "string"
            }
          ],
          "internalType": "struct UniMarketplace.NFT[]",
          "name": "",
          "type": "tuple[]"
        }
      ],
      "stateMutability": "view",
      "type": "function",
      "constant": true
    },
    {
      "inputs": [],
      "name": "getUserNFTs",
      "outputs": [
        {
          "components": [
            {
              "internalType": "string",
              "name": "name",
              "type": "string"
            },
            {
              "internalType": "string",
              "name": "description",
              "type": "string"
            },
            {
              "internalType": "string",
              "name": "imgUrl",
              "type": "string"
            },
            {
              "internalType": "address",
              "name": "creator",
              "type": "address"
            },
            {
              "internalType": "string",
              "name": "imgHash",
              "type": "string"
            },
            {
              "internalType": "string",
              "name": "createdAt",
              "type": "string"
            }
          ],
          "internalType": "struct UniMarketplace.NFT[]",
          "name": "",
          "type": "tuple[]"
        }
      ],
      "stateMutability": "view",
      "type": "function",
      "constant": true
    }
  ],
  "bytecode": "0x60806040523480156200001157600080fd5b5060405162001458380380620014588339818101604052810190620000379190620000fc565b806000806101000a81548173ffffffffffffffffffffffffffffffffffffffff021916908373ffffffffffffffffffffffffffffffffffffffff160217905550506200012e565b600080fd5b600073ffffffffffffffffffffffffffffffffffffffff82169050919050565b6000620000b08262000083565b9050919050565b6000620000c482620000a3565b9050919050565b620000d681620000b7565b8114620000e257600080fd5b50565b600081519050620000f681620000cb565b92915050565b6000602082840312156200011557620001146200007e565b5b60006200012584828501620000e5565b91505092915050565b61131a806200013e6000396000f3fe6080604052600436106100555760003560e01c806350fd73671461005a57806377b046e914610097578063e0391b09146100d8578063e7fb74c714610103578063fcce48831461011f578063fdc5ab8e1461015c575b600080fd5b34801561006657600080fd5b50610081600480360381019061007c9190610be9565b610187565b60405161008e9190610c38565b60405180910390f35b3480156100a357600080fd5b506100be60048036038101906100b99190610c53565b610460565b6040516100cf959493929190610cdc565b60405180910390f35b3480156100e457600080fd5b506100ed6104d3565b6040516100fa9190610f3e565b60405180910390f35b61011d60048036038101906101189190610c53565b6106a0565b005b34801561012b57600080fd5b5061014660048036038101906101419190610c53565b610975565b6040516101539190610f60565b60405180910390f35b34801561016857600080fd5b50610171610995565b60405161017e9190610f3e565b60405180910390f35b6000823373ffffffffffffffffffffffffffffffffffffffff1660008054906101000a900473ffffffffffffffffffffffffffffffffffffffff1673ffffffffffffffffffffffffffffffffffffffff16636352211e836040518263ffffffff1660e01b81526004016101fa9190610c38565b602060405180830381865afa158015610217573d6000803e3d6000fd5b505050506040513d601f19601f8201168201806040525081019061023b9190610fa7565b73ffffffffffffffffffffffffffffffffffffffff1614610291576040517f08c379a000000000000000000000000000000000000000000000000000000000815260040161028890611031565b60405180910390fd5b6002600085815260200190815260200160002060009054906101000a900460ff16156102f2576040517f08c379a00000000000000000000000000000000000000000000000000000000081526004016102e9906110c3565b60405180910390fd5b6000600180549050905060016040518060a001604052808381526020018781526020018681526020013373ffffffffffffffffffffffffffffffffffffffff16815260200160001515815250908060018154018082558091505060019003906000526020600020906004020160009091909190915060008201518160000155602082015181600101556040820151816002015560608201518160030160006101000a81548173ffffffffffffffffffffffffffffffffffffffff021916908373ffffffffffffffffffffffffffffffffffffffff16021790555060808201518160030160146101000a81548160ff021916908315150217905550505060016002600087815260200190815260200160002060006101000a81548160ff0219169083151502179055507f456883247708cee5b52025d61dc9fd7dec3c58c552d8e8b1ddd5b292745f4b0f81868660405161044d939291906110e3565b60405180910390a1809250505092915050565b6001818154811061047057600080fd5b90600052602060002090600402016000915090508060000154908060010154908060020154908060030160009054906101000a900473ffffffffffffffffffffffffffffffffffffffff16908060030160149054906101000a900460ff16905085565b60606000600167ffffffffffffffff8111156104f2576104f161111a565b5b60405190808252806020026020018201604052801561052b57816020015b610518610b62565b8152602001906001900390816105105790505b5090506040518060c001604052806040518060400160405280600281526020017f686900000000000000000000000000000000000000000000000000000000000081525081526020016040518060400160405280600381526020017f627965000000000000000000000000000000000000000000000000000000000081525081526020016040518060400160405280600381526020017f75726c000000000000000000000000000000000000000000000000000000000081525081526020013373ffffffffffffffffffffffffffffffffffffffff1681526020016040518060400160405280600481526020017f686173680000000000000000000000000000000000000000000000000000000081525081526020016040518060400160405280600481526020017f64617465000000000000000000000000000000000000000000000000000000008152508152508160008151811061068e5761068d611149565b5b60200260200101819052508091505090565b80600181815481106106b5576106b4611149565b5b906000526020600020906004020160030160149054906101000a900460ff1615610714576040517f08c379a000000000000000000000000000000000000000000000000000000000815260040161070b906111c4565b60405180910390fd5b60006001838154811061072a57610729611149565b5b906000526020600020906004020160010154905060006001848154811061075457610753611149565b5b906000526020600020906004020160030160009054906101000a900473ffffffffffffffffffffffffffffffffffffffff16905060006001858154811061079e5761079d611149565b5b90600052602060002090600402016002015490508034146107f4576040517f08c379a00000000000000000000000000000000000000000000000000000000081526004016107eb90611256565b60405180910390fd5b600180868154811061080957610808611149565b5b906000526020600020906004020160030160146101000a81548160ff02191690831515021790555060006002600085815260200190815260200160002060006101000a81548160ff0219169083151502179055508173ffffffffffffffffffffffffffffffffffffffff166108fc829081150290604051600060405180830381858888f193505050501580156108a3573d6000803e3d6000fd5b5060008054906101000a900473ffffffffffffffffffffffffffffffffffffffff1673ffffffffffffffffffffffffffffffffffffffff166323b872dd8333866040518463ffffffff1660e01b815260040161090193929190611276565b600060405180830381600087803b15801561091b57600080fd5b505af115801561092f573d6000803e3d6000fd5b505050507fa574c741071bb18f51fa88c17aeefec514bebf670ca22a3736fba6504ecbb763853383604051610966939291906112ad565b60405180910390a15050505050565b60026020528060005260406000206000915054906101000a900460ff1681565b60606000600167ffffffffffffffff8111156109b4576109b361111a565b5b6040519080825280602002602001820160405280156109ed57816020015b6109da610b62565b8152602001906001900390816109d25790505b5090506040518060c001604052806040518060400160405280600281526020017f686900000000000000000000000000000000000000000000000000000000000081525081526020016040518060400160405280600381526020017f627965000000000000000000000000000000000000000000000000000000000081525081526020016040518060400160405280600381526020017f75726c000000000000000000000000000000000000000000000000000000000081525081526020013373ffffffffffffffffffffffffffffffffffffffff1681526020016040518060400160405280600481526020017f686173680000000000000000000000000000000000000000000000000000000081525081526020016040518060400160405280600481526020017f646174650000000000000000000000000000000000000000000000000000000081525081525081600081518110610b5057610b4f611149565b5b60200260200101819052508091505090565b6040518060c00160405280606081526020016060815260200160608152602001600073ffffffffffffffffffffffffffffffffffffffff16815260200160608152602001606081525090565b600080fd5b6000819050919050565b610bc681610bb3565b8114610bd157600080fd5b50565b600081359050610be381610bbd565b92915050565b60008060408385031215610c0057610bff610bae565b5b6000610c0e85828601610bd4565b9250506020610c1f85828601610bd4565b9150509250929050565b610c3281610bb3565b82525050565b6000602082019050610c4d6000830184610c29565b92915050565b600060208284031215610c6957610c68610bae565b5b6000610c7784828501610bd4565b91505092915050565b600073ffffffffffffffffffffffffffffffffffffffff82169050919050565b6000610cab82610c80565b9050919050565b610cbb81610ca0565b82525050565b60008115159050919050565b610cd681610cc1565b82525050565b600060a082019050610cf16000830188610c29565b610cfe6020830187610c29565b610d0b6040830186610c29565b610d186060830185610cb2565b610d256080830184610ccd565b9695505050505050565b600081519050919050565b600082825260208201905092915050565b6000819050602082019050919050565b600081519050919050565b600082825260208201905092915050565b60005b83811015610d95578082015181840152602081019050610d7a565b83811115610da4576000848401525b50505050565b6000601f19601f8301169050919050565b6000610dc682610d5b565b610dd08185610d66565b9350610de0818560208601610d77565b610de981610daa565b840191505092915050565b610dfd81610ca0565b82525050565b600060c0830160008301518482036000860152610e208282610dbb565b91505060208301518482036020860152610e3a8282610dbb565b91505060408301518482036040860152610e548282610dbb565b9150506060830151610e696060860182610df4565b5060808301518482036080860152610e818282610dbb565b91505060a083015184820360a0860152610e9b8282610dbb565b9150508091505092915050565b6000610eb48383610e03565b905092915050565b6000602082019050919050565b6000610ed482610d2f565b610ede8185610d3a565b935083602082028501610ef085610d4b565b8060005b85811015610f2c5784840389528151610f0d8582610ea8565b9450610f1883610ebc565b925060208a01995050600181019050610ef4565b50829750879550505050505092915050565b60006020820190508181036000830152610f588184610ec9565b905092915050565b6000602082019050610f756000830184610ccd565b92915050565b610f8481610ca0565b8114610f8f57600080fd5b50565b600081519050610fa181610f7b565b92915050565b600060208284031215610fbd57610fbc610bae565b5b6000610fcb84828501610f92565b91505092915050565b600082825260208201905092915050565b7f53656e64657220646f6573206e6f74206f776e20746865206974656d00000000600082015250565b600061101b601c83610fd4565b915061102682610fe5565b602082019050919050565b6000602082019050818103600083015261104a8161100e565b9050919050565b7f4974656d20616c7265616479206c6973746564206f6e206d61726b6574706c6160008201527f6365000000000000000000000000000000000000000000000000000000000000602082015250565b60006110ad602283610fd4565b91506110b882611051565b604082019050919050565b600060208201905081810360008301526110dc816110a0565b9050919050565b60006060820190506110f86000830186610c29565b6111056020830185610c29565b6111126040830184610c29565b949350505050565b7f4e487b7100000000000000000000000000000000000000000000000000000000600052604160045260246000fd5b7f4e487b7100000000000000000000000000000000000000000000000000000000600052603260045260246000fd5b7f4974656d20686173206265656e20736f6c640000000000000000000000000000600082015250565b60006111ae601283610fd4565b91506111b982611178565b602082019050919050565b600060208201905081810360008301526111dd816111a1565b9050919050565b7f506c65617365207375626d6974207468652061736b696e67207072696365206960008201527f6e206f7264657220746f20636f6d706c65746520746865207075726368617365602082015250565b6000611240604083610fd4565b915061124b826111e4565b604082019050919050565b6000602082019050818103600083015261126f81611233565b9050919050565b600060608201905061128b6000830186610cb2565b6112986020830185610cb2565b6112a56040830184610c29565b949350505050565b60006060820190506112c26000830186610c29565b6112cf6020830185610cb2565b6112dc6040830184610c29565b94935050505056fea2646970667358221220b4a18d9dee5e590cebe46a0111d0e5a582b72c19b5e0a4bd59f5bb106d94968a64736f6c634300080d0033",
  "immutableReferences": {},
  "source": "// SPDX-License-Identifier: MIT\npragma solidity ^0.8.0;\n\nimport \"@openzeppelin/contracts/security/ReentrancyGuard.sol\";\n\nimport \"./UniToken.sol\";\n\ncontract UniMarketplace {\n    UniToken private _uniToken;\n\n    constructor(UniToken tokenAddress) {\n        _uniToken = tokenAddress;\n    }\n\n    struct ListedItem {\n        uint256 listingId; // Index of listed item used to track selling status of a particular listing\n        uint256 tokenId; \n        uint256 price; // Price set by seller\n        address seller; \n        bool sold; // Track if NFT is sold for frontend filtering & to be set to true once item is sold\n    }\n    \n    // Array to store all listed tokens and their statuses\n    ListedItem[] public itemsListed;\n\n    // Mapping to check if tokenId is listed on the marketplace and can be bought \n    mapping(uint256 => bool) public isListed;\n    \n    // Function modifier to check if lister has the token to prevent hackers from listing other peoples' tokens\n    modifier IsItemOwner(uint256 tokenId){\n        require(_uniToken.ownerOf(tokenId) == msg.sender, \"Sender does not own the item\");\n        _;\n    }\n\n    // Function modifier to check if a listed item is still for sale\n    modifier IsForSale(uint256 listingId){\n        require(!itemsListed[listingId].sold, \"Item has been sold\");\n        _;\n    }\n\n\n    event ItemListedSuccessfully(uint256 newItemId, uint256 tokenId, uint256 price);\n    event ItemSold(uint256 listingId, address buyer, uint256 price);\n\n    // List owned NFT with price and tokenId passed from frontend\n    function list(uint256 tokenId, uint256 price) \n    IsItemOwner(tokenId)\n    external \n    returns (uint256){\n        require(!isListed[tokenId], \"Item already listed on marketplace\");\n\n        uint256 listingId = itemsListed.length;\n\n        // Add new listed item into itemsListed array\n        itemsListed.push(ListedItem({\n            listingId: listingId,\n            tokenId: tokenId,\n            seller: msg.sender, // Seller address to be made payable in Buy function\n            price: price,\n            sold: false\n        }));\n\n        // Set is listed tracking to true to prevent relisting of same token\n        isListed[tokenId] = true;\n\n        // Emit event to the frontend to update the UI\n        emit ItemListedSuccessfully(listingId, tokenId, price);\n        \n        return listingId;\n    }\n    \n    // Function called to purchase a listed item\n    function buyItem(uint256 listingId) \n    IsForSale(listingId)\n    payable \n    external {\n        uint256 tokenId = itemsListed[listingId].tokenId;\n        address seller = itemsListed[listingId].seller;\n        uint256 price = itemsListed[listingId].price;\n        \n        // I think this function calls the metamask (adapted from https://github.com/ethereum-boilerplate/ethereum-nft-marketplace-boilerplate/blob/main/src/contracts/marketplaceBoilerplate.sol)\n        // Need to test on frontend\n        require(msg.value == price, \"Please submit the asking price in order to complete the purchase\");\n\n        // Set the sold variable in the itemsListed array to true\n        itemsListed[listingId].sold = true;\n\n        // Set listed to false\n        isListed[tokenId] = false;\n\n        // Transfer funds from buyer to seller\n        payable(seller).transfer(price);\n\n        // Call the tranfer function from UniToken\n        _uniToken.transferFrom(seller, msg.sender, tokenId);\n\n        emit ItemSold(listingId, msg.sender, price);\n    }\n\n    struct NFT {\n        string name;\n        string description;\n        string imgUrl;\n        address creator;\n        string imgHash;\n        string createdAt;\n    }\n\n    function getAllNFTs() public view returns(NFT[] memory){\n        //TODO: Return all unsold listed NFTs\n        NFT[] memory hi = new NFT[](1);\n        // Member storage member = members[i];\n        // id[i] = member;\n        hi[0] = (NFT(\"hi\", \"bye\", \"url\", msg.sender, \"hash\", \"date\"));\n        return hi;\n    }\n\n    function getUserNFTs() public view returns(NFT[] memory){\n        //TODO: Get all NFTs owned by user, including if NFT is listed or not\n        NFT[] memory hi = new NFT[](1);\n        hi[0] = (NFT(\"hi\", \"bye\", \"url\", msg.sender, \"hash\", \"date\"));\n        return hi;\n    }\n}",
  "sourcePath": "/Users/tiongshankai/Documents/Github/50.037-SUTDBlockU/backend/contracts/UniMarketplace.sol",
  "compiler": {
    "name": "solc",
    "version": "0.8.13+commit.abaa5c0e.Emscripten.clang"
  },
  "schemaVersion": "3.4.6",
  "updatedAt": "2022-04-06T07:41:40.615Z",
  "networkType": "ethereum",
  "devdoc": {
    "kind": "dev",
    "methods": {},
    "version": 1
  },
  "userdoc": {
    "kind": "user",
    "methods": {},
    "version": 1
  }
}