{
  "contractName": "UniToken",
  "abi": [
    {
      "inputs": [],
      "stateMutability": "nonpayable",
      "type": "constructor"
    },
    {
      "anonymous": false,
      "inputs": [
        {
          "indexed": true,
          "internalType": "address",
          "name": "owner",
          "type": "address"
        },
        {
          "indexed": true,
          "internalType": "address",
          "name": "approved",
          "type": "address"
        },
        {
          "indexed": true,
          "internalType": "uint256",
          "name": "tokenId",
          "type": "uint256"
        }
      ],
      "name": "Approval",
      "type": "event"
    },
    {
      "anonymous": false,
      "inputs": [
        {
          "indexed": true,
          "internalType": "address",
          "name": "owner",
          "type": "address"
        },
        {
          "indexed": true,
          "internalType": "address",
          "name": "operator",
          "type": "address"
        },
        {
          "indexed": false,
          "internalType": "bool",
          "name": "approved",
          "type": "bool"
        }
      ],
      "name": "ApprovalForAll",
      "type": "event"
    },
    {
      "anonymous": false,
      "inputs": [
        {
          "indexed": false,
          "internalType": "uint256",
          "name": "tokenId",
          "type": "uint256"
        },
        {
          "indexed": false,
          "internalType": "string",
          "name": "name",
          "type": "string"
        },
        {
          "indexed": false,
          "internalType": "string",
          "name": "createdAt",
          "type": "string"
        }
      ],
      "name": "Minted",
      "type": "event"
    },
    {
      "anonymous": false,
      "inputs": [
        {
          "indexed": true,
          "internalType": "address",
          "name": "from",
          "type": "address"
        },
        {
          "indexed": true,
          "internalType": "address",
          "name": "to",
          "type": "address"
        },
        {
          "indexed": true,
          "internalType": "uint256",
          "name": "tokenId",
          "type": "uint256"
        }
      ],
      "name": "Transfer",
      "type": "event"
    },
    {
      "inputs": [
        {
          "internalType": "address",
          "name": "to",
          "type": "address"
        },
        {
          "internalType": "uint256",
          "name": "tokenId",
          "type": "uint256"
        }
      ],
      "name": "approve",
      "outputs": [],
      "stateMutability": "nonpayable",
      "type": "function"
    },
    {
      "inputs": [
        {
          "internalType": "address",
          "name": "owner",
          "type": "address"
        }
      ],
      "name": "balanceOf",
      "outputs": [
        {
          "internalType": "uint256",
          "name": "",
          "type": "uint256"
        }
      ],
      "stateMutability": "view",
      "type": "function",
      "constant": true
    },
    {
      "inputs": [
        {
          "internalType": "uint256",
          "name": "tokenId",
          "type": "uint256"
        }
      ],
      "name": "getApproved",
      "outputs": [
        {
          "internalType": "address",
          "name": "",
          "type": "address"
        }
      ],
      "stateMutability": "view",
      "type": "function",
      "constant": true
    },
    {
      "inputs": [
        {
          "internalType": "address",
          "name": "owner",
          "type": "address"
        },
        {
          "internalType": "address",
          "name": "operator",
          "type": "address"
        }
      ],
      "name": "isApprovedForAll",
      "outputs": [
        {
          "internalType": "bool",
          "name": "",
          "type": "bool"
        }
      ],
      "stateMutability": "view",
      "type": "function",
      "constant": true
    },
    {
      "inputs": [
        {
          "internalType": "uint256",
          "name": "",
          "type": "uint256"
        }
      ],
      "name": "mintedNFTs",
      "outputs": [
        {
          "internalType": "uint256",
          "name": "id",
          "type": "uint256"
        },
        {
          "internalType": "string",
          "name": "name",
          "type": "string"
        },
        {
          "internalType": "string",
          "name": "description",
          "type": "string"
        },
        {
          "internalType": "string",
          "name": "imgUrl",
          "type": "string"
        },
        {
          "internalType": "address",
          "name": "creator",
          "type": "address"
        },
        {
          "internalType": "address",
          "name": "owner",
          "type": "address"
        },
        {
          "internalType": "string",
          "name": "imgHash",
          "type": "string"
        },
        {
          "internalType": "string",
          "name": "createdAt",
          "type": "string"
        }
      ],
      "stateMutability": "view",
      "type": "function",
      "constant": true
    },
    {
      "inputs": [],
      "name": "name",
      "outputs": [
        {
          "internalType": "string",
          "name": "",
          "type": "string"
        }
      ],
      "stateMutability": "view",
      "type": "function",
      "constant": true
    },
    {
      "inputs": [
        {
          "internalType": "uint256",
          "name": "tokenId",
          "type": "uint256"
        }
      ],
      "name": "ownerOf",
      "outputs": [
        {
          "internalType": "address",
          "name": "",
          "type": "address"
        }
      ],
      "stateMutability": "view",
      "type": "function",
      "constant": true
    },
    {
      "inputs": [
        {
          "internalType": "address",
          "name": "from",
          "type": "address"
        },
        {
          "internalType": "address",
          "name": "to",
          "type": "address"
        },
        {
          "internalType": "uint256",
          "name": "tokenId",
          "type": "uint256"
        }
      ],
      "name": "safeTransferFrom",
      "outputs": [],
      "stateMutability": "nonpayable",
      "type": "function"
    },
    {
      "inputs": [
        {
          "internalType": "address",
          "name": "from",
          "type": "address"
        },
        {
          "internalType": "address",
          "name": "to",
          "type": "address"
        },
        {
          "internalType": "uint256",
          "name": "tokenId",
          "type": "uint256"
        },
        {
          "internalType": "bytes",
          "name": "_data",
          "type": "bytes"
        }
      ],
      "name": "safeTransferFrom",
      "outputs": [],
      "stateMutability": "nonpayable",
      "type": "function"
    },
    {
      "inputs": [
        {
          "internalType": "address",
          "name": "operator",
          "type": "address"
        },
        {
          "internalType": "bool",
          "name": "approved",
          "type": "bool"
        }
      ],
      "name": "setApprovalForAll",
      "outputs": [],
      "stateMutability": "nonpayable",
      "type": "function"
    },
    {
      "inputs": [
        {
          "internalType": "bytes4",
          "name": "interfaceId",
          "type": "bytes4"
        }
      ],
      "name": "supportsInterface",
      "outputs": [
        {
          "internalType": "bool",
          "name": "",
          "type": "bool"
        }
      ],
      "stateMutability": "view",
      "type": "function",
      "constant": true
    },
    {
      "inputs": [],
      "name": "symbol",
      "outputs": [
        {
          "internalType": "string",
          "name": "",
          "type": "string"
        }
      ],
      "stateMutability": "view",
      "type": "function",
      "constant": true
    },
    {
      "inputs": [
        {
          "internalType": "uint256",
          "name": "index",
          "type": "uint256"
        }
      ],
      "name": "tokenByIndex",
      "outputs": [
        {
          "internalType": "uint256",
          "name": "",
          "type": "uint256"
        }
      ],
      "stateMutability": "view",
      "type": "function",
      "constant": true
    },
    {
      "inputs": [
        {
          "internalType": "address",
          "name": "owner",
          "type": "address"
        },
        {
          "internalType": "uint256",
          "name": "index",
          "type": "uint256"
        }
      ],
      "name": "tokenOfOwnerByIndex",
      "outputs": [
        {
          "internalType": "uint256",
          "name": "",
          "type": "uint256"
        }
      ],
      "stateMutability": "view",
      "type": "function",
      "constant": true
    },
    {
      "inputs": [
        {
          "internalType": "uint256",
          "name": "tokenId",
          "type": "uint256"
        }
      ],
      "name": "tokenURI",
      "outputs": [
        {
          "internalType": "string",
          "name": "",
          "type": "string"
        }
      ],
      "stateMutability": "view",
      "type": "function",
      "constant": true
    },
    {
      "inputs": [],
      "name": "totalSupply",
      "outputs": [
        {
          "internalType": "uint256",
          "name": "",
          "type": "uint256"
        }
      ],
      "stateMutability": "view",
      "type": "function",
      "constant": true
    },
    {
      "inputs": [
        {
          "internalType": "address",
          "name": "from",
          "type": "address"
        },
        {
          "internalType": "address",
          "name": "to",
          "type": "address"
        },
        {
          "internalType": "uint256",
          "name": "tokenId",
          "type": "uint256"
        }
      ],
      "name": "transferFrom",
      "outputs": [],
      "stateMutability": "nonpayable",
      "type": "function"
    },
    {
      "inputs": [
        {
          "internalType": "string",
          "name": "name",
          "type": "string"
        },
        {
          "internalType": "string",
          "name": "description",
          "type": "string"
        },
        {
          "internalType": "string",
          "name": "imgUrl",
          "type": "string"
        },
        {
          "internalType": "string",
          "name": "imgHash",
          "type": "string"
        },
        {
          "internalType": "string",
          "name": "createdAt",
          "type": "string"
        }
      ],
      "name": "mint",
      "outputs": [
        {
          "internalType": "uint256",
          "name": "",
          "type": "uint256"
        }
      ],
      "stateMutability": "nonpayable",
      "type": "function"
    },
    {
      "inputs": [
        {
          "internalType": "address",
          "name": "owner",
          "type": "address"
        },
        {
          "internalType": "uint256",
          "name": "tokenId",
          "type": "uint256"
        }
      ],
      "name": "setOwner",
      "outputs": [],
      "stateMutability": "nonpayable",
      "type": "function"
    },
    {
      "inputs": [
        {
          "internalType": "uint256",
          "name": "tokenId",
          "type": "uint256"
        }
      ],
      "name": "getTokenData",
      "outputs": [
        {
          "components": [
            {
              "internalType": "uint256",
              "name": "id",
              "type": "uint256"
            },
            {
              "internalType": "string",
              "name": "name",
              "type": "string"
            },
            {
              "internalType": "string",
              "name": "description",
              "type": "string"
            },
            {
              "internalType": "string",
              "name": "imgUrl",
              "type": "string"
            },
            {
              "internalType": "address",
              "name": "creator",
              "type": "address"
            },
            {
              "internalType": "address",
              "name": "owner",
              "type": "address"
            },
            {
              "internalType": "string",
              "name": "imgHash",
              "type": "string"
            },
            {
              "internalType": "string",
              "name": "createdAt",
              "type": "string"
            }
          ],
          "internalType": "struct UniToken.UniNFT",
          "name": "",
          "type": "tuple"
        }
      ],
      "stateMutability": "view",
      "type": "function",
      "constant": true
    },
    {
      "inputs": [],
      "name": "getNumTokens",
      "outputs": [
        {
          "internalType": "uint256",
          "name": "",
          "type": "uint256"
        }
      ],
      "stateMutability": "view",
      "type": "function",
      "constant": true
    }
  ],
  "bytecode": "0x60806040523480156200001157600080fd5b506040518060400160405280600881526020017f556e69546f6b656e0000000000000000000000000000000000000000000000008152506040518060400160405280600381526020017f55544e0000000000000000000000000000000000000000000000000000000000815250816000908051906020019062000096929190620000b8565b508060019080519060200190620000af929190620000b8565b505050620001cc565b828054620000c69062000197565b90600052602060002090601f016020900481019282620000ea576000855562000136565b82601f106200010557805160ff191683800117855562000136565b8280016001018555821562000136579182015b828111156200013557825182559160200191906001019062000118565b5b50905062000145919062000149565b5090565b5b80821115620001645760008160009055506001016200014a565b5090565b7f4e487b7100000000000000000000000000000000000000000000000000000000600052602260045260246000fd5b60006002820490506001821680620001b057607f821691505b602082108103620001c657620001c562000168565b5b50919050565b613fab80620001dc6000396000f3fe608060405234801561001057600080fd5b50600436106101375760003560e01c80636352211e116100b8578063ab3b87fe1161007c578063ab3b87fe1461038d578063b09afec1146103a9578063b88d4fde146103d9578063c87b56dd146103f5578063cd2ed8fb14610425578063e985e9c51461044357610137565b80636352211e146102c357806370a08231146102f357806386833e911461032357806395d89b4114610353578063a22cb4651461037157610137565b80631ee9f1d5116100ff5780631ee9f1d5146101f457806323b872dd1461022b5780632f745c591461024757806342842e0e146102775780634f6ccce71461029357610137565b806301ffc9a71461013c57806306fdde031461016c578063081812fc1461018a578063095ea7b3146101ba57806318160ddd146101d6575b600080fd5b610156600480360381019061015191906128d6565b610473565b604051610163919061291e565b60405180910390f35b6101746104ed565b60405161018191906129d2565b60405180910390f35b6101a4600480360381019061019f9190612a2a565b61057f565b6040516101b19190612a98565b60405180910390f35b6101d460048036038101906101cf9190612adf565b610604565b005b6101de61071b565b6040516101eb9190612b2e565b60405180910390f35b61020e60048036038101906102099190612a2a565b610728565b604051610222989796959493929190612b49565b60405180910390f35b61024560048036038101906102409190612bea565b610a58565b005b610261600480360381019061025c9190612adf565b610ab8565b60405161026e9190612b2e565b60405180910390f35b610291600480360381019061028c9190612bea565b610b5d565b005b6102ad60048036038101906102a89190612a2a565b610b7d565b6040516102ba9190612b2e565b60405180910390f35b6102dd60048036038101906102d89190612a2a565b610bee565b6040516102ea9190612a98565b60405180910390f35b61030d60048036038101906103089190612c3d565b610c9f565b60405161031a9190612b2e565b60405180910390f35b61033d60048036038101906103389190612d9f565b610d56565b60405161034a9190612b2e565b60405180910390f35b61035b610fa3565b60405161036891906129d2565b60405180910390f35b61038b60048036038101906103869190612ed2565b611035565b005b6103a760048036038101906103a29190612adf565b61104b565b005b6103c360048036038101906103be9190612a2a565b6110a4565b6040516103d09190613046565b60405180910390f35b6103f360048036038101906103ee9190613109565b611462565b005b61040f600480360381019061040a9190612a2a565b6114c4565b60405161041c91906129d2565b60405180910390f35b61042d61156b565b60405161043a9190612b2e565b60405180910390f35b61045d6004803603810190610458919061318c565b61157a565b60405161046a919061291e565b60405180910390f35b60007f780e9d63000000000000000000000000000000000000000000000000000000007bffffffffffffffffffffffffffffffffffffffffffffffffffffffff1916827bffffffffffffffffffffffffffffffffffffffffffffffffffffffff191614806104e657506104e58261160e565b5b9050919050565b6060600080546104fc906131fb565b80601f0160208091040260200160405190810160405280929190818152602001828054610528906131fb565b80156105755780601f1061054a57610100808354040283529160200191610575565b820191906000526020600020905b81548152906001019060200180831161055857829003601f168201915b5050505050905090565b600061058a826116f0565b6105c9576040517f08c379a00000000000000000000000000000000000000000000000000000000081526004016105c09061329e565b60405180910390fd5b6004600083815260200190815260200160002060009054906101000a900473ffffffffffffffffffffffffffffffffffffffff169050919050565b600061060f82610bee565b90508073ffffffffffffffffffffffffffffffffffffffff168373ffffffffffffffffffffffffffffffffffffffff160361067f576040517f08c379a000000000000000000000000000000000000000000000000000000000815260040161067690613330565b60405180910390fd5b8073ffffffffffffffffffffffffffffffffffffffff1661069e61175c565b73ffffffffffffffffffffffffffffffffffffffff1614806106cd57506106cc816106c761175c565b61157a565b5b61070c576040517f08c379a0000000000000000000000000000000000000000000000000000000008152600401610703906133c2565b60405180910390fd5b6107168383611764565b505050565b6000600880549050905090565b600a602052806000526040600020600091509050806000015490806001018054610751906131fb565b80601f016020809104026020016040519081016040528092919081815260200182805461077d906131fb565b80156107ca5780601f1061079f576101008083540402835291602001916107ca565b820191906000526020600020905b8154815290600101906020018083116107ad57829003601f168201915b5050505050908060020180546107df906131fb565b80601f016020809104026020016040519081016040528092919081815260200182805461080b906131fb565b80156108585780601f1061082d57610100808354040283529160200191610858565b820191906000526020600020905b81548152906001019060200180831161083b57829003601f168201915b50505050509080600301805461086d906131fb565b80601f0160208091040260200160405190810160405280929190818152602001828054610899906131fb565b80156108e65780601f106108bb576101008083540402835291602001916108e6565b820191906000526020600020905b8154815290600101906020018083116108c957829003601f168201915b5050505050908060040160009054906101000a900473ffffffffffffffffffffffffffffffffffffffff16908060050160009054906101000a900473ffffffffffffffffffffffffffffffffffffffff1690806006018054610947906131fb565b80601f0160208091040260200160405190810160405280929190818152602001828054610973906131fb565b80156109c05780601f10610995576101008083540402835291602001916109c0565b820191906000526020600020905b8154815290600101906020018083116109a357829003601f168201915b5050505050908060070180546109d5906131fb565b80601f0160208091040260200160405190810160405280929190818152602001828054610a01906131fb565b8015610a4e5780601f10610a2357610100808354040283529160200191610a4e565b820191906000526020600020905b815481529060010190602001808311610a3157829003601f168201915b5050505050905088565b610a69610a6361175c565b8261181d565b610aa8576040517f08c379a0000000000000000000000000000000000000000000000000000000008152600401610a9f90613454565b60405180910390fd5b610ab38383836118fb565b505050565b6000610ac383610c9f565b8210610b04576040517f08c379a0000000000000000000000000000000000000000000000000000000008152600401610afb906134e6565b60405180910390fd5b600660008473ffffffffffffffffffffffffffffffffffffffff1673ffffffffffffffffffffffffffffffffffffffff168152602001908152602001600020600083815260200190815260200160002054905092915050565b610b7883838360405180602001604052806000815250611462565b505050565b6000610b8761071b565b8210610bc8576040517f08c379a0000000000000000000000000000000000000000000000000000000008152600401610bbf90613578565b60405180910390fd5b60088281548110610bdc57610bdb613598565b5b90600052602060002001549050919050565b6000806002600084815260200190815260200160002060009054906101000a900473ffffffffffffffffffffffffffffffffffffffff169050600073ffffffffffffffffffffffffffffffffffffffff168173ffffffffffffffffffffffffffffffffffffffff1603610c96576040517f08c379a0000000000000000000000000000000000000000000000000000000008152600401610c8d90613639565b60405180910390fd5b80915050919050565b60008073ffffffffffffffffffffffffffffffffffffffff168273ffffffffffffffffffffffffffffffffffffffff1603610d0f576040517f08c379a0000000000000000000000000000000000000000000000000000000008152600401610d06906136cb565b60405180910390fd5b600360008373ffffffffffffffffffffffffffffffffffffffff1673ffffffffffffffffffffffffffffffffffffffff168152602001908152602001600020549050919050565b6000610d6183611b61565b610da0576040517f08c379a0000000000000000000000000000000000000000000000000000000008152600401610d9790613737565b60405180910390fd5b6000610daa61071b565b90506040518061010001604052808281526020018881526020018781526020018681526020013373ffffffffffffffffffffffffffffffffffffffff1681526020013373ffffffffffffffffffffffffffffffffffffffff16815260200185815260200184815250600a6000838152602001908152602001600020600082015181600001556020820151816001019080519060200190610e4b929190612756565b506040820151816002019080519060200190610e68929190612756565b506060820151816003019080519060200190610e85929190612756565b5060808201518160040160006101000a81548173ffffffffffffffffffffffffffffffffffffffff021916908373ffffffffffffffffffffffffffffffffffffffff16021790555060a08201518160050160006101000a81548173ffffffffffffffffffffffffffffffffffffffff021916908373ffffffffffffffffffffffffffffffffffffffff16021790555060c0820151816006019080519060200190610f30929190612756565b5060e0820151816007019080519060200190610f4d929190612756565b50905050610f5b3382611c08565b7fa927ac04d4d3734fe8f2c6d7e10171f210b004d3f2d2a4449bbc6a5f2e5427e3818885604051610f8e93929190613757565b60405180910390a18091505095945050505050565b606060018054610fb2906131fb565b80601f0160208091040260200160405190810160405280929190818152602001828054610fde906131fb565b801561102b5780601f106110005761010080835404028352916020019161102b565b820191906000526020600020905b81548152906001019060200180831161100e57829003601f168201915b5050505050905090565b61104761104061175c565b8383611de1565b5050565b81600a600083815260200190815260200160002060050160006101000a81548173ffffffffffffffffffffffffffffffffffffffff021916908373ffffffffffffffffffffffffffffffffffffffff1602179055505050565b6110ac6127dc565b600a600083815260200190815260200160002060405180610100016040529081600082015481526020016001820180546110e5906131fb565b80601f0160208091040260200160405190810160405280929190818152602001828054611111906131fb565b801561115e5780601f106111335761010080835404028352916020019161115e565b820191906000526020600020905b81548152906001019060200180831161114157829003601f168201915b50505050508152602001600282018054611177906131fb565b80601f01602080910402602001604051908101604052809291908181526020018280546111a3906131fb565b80156111f05780601f106111c5576101008083540402835291602001916111f0565b820191906000526020600020905b8154815290600101906020018083116111d357829003601f168201915b50505050508152602001600382018054611209906131fb565b80601f0160208091040260200160405190810160405280929190818152602001828054611235906131fb565b80156112825780601f1061125757610100808354040283529160200191611282565b820191906000526020600020905b81548152906001019060200180831161126557829003601f168201915b505050505081526020016004820160009054906101000a900473ffffffffffffffffffffffffffffffffffffffff1673ffffffffffffffffffffffffffffffffffffffff1673ffffffffffffffffffffffffffffffffffffffff1681526020016005820160009054906101000a900473ffffffffffffffffffffffffffffffffffffffff1673ffffffffffffffffffffffffffffffffffffffff1673ffffffffffffffffffffffffffffffffffffffff168152602001600682018054611347906131fb565b80601f0160208091040260200160405190810160405280929190818152602001828054611373906131fb565b80156113c05780601f10611395576101008083540402835291602001916113c0565b820191906000526020600020905b8154815290600101906020018083116113a357829003601f168201915b505050505081526020016007820180546113d9906131fb565b80601f0160208091040260200160405190810160405280929190818152602001828054611405906131fb565b80156114525780601f1061142757610100808354040283529160200191611452565b820191906000526020600020905b81548152906001019060200180831161143557829003601f168201915b5050505050815250509050919050565b61147361146d61175c565b8361181d565b6114b2576040517f08c379a00000000000000000000000000000000000000000000000000000000081526004016114a990613454565b60405180910390fd5b6114be84848484611f4d565b50505050565b60606114cf826116f0565b61150e576040517f08c379a00000000000000000000000000000000000000000000000000000000081526004016115059061380e565b60405180910390fd5b6000611518611fa9565b905060008151116115385760405180602001604052806000815250611563565b8061154284611fc0565b60405160200161155392919061386a565b6040516020818303038152906040525b915050919050565b600061157561071b565b905090565b6000600560008473ffffffffffffffffffffffffffffffffffffffff1673ffffffffffffffffffffffffffffffffffffffff16815260200190815260200160002060008373ffffffffffffffffffffffffffffffffffffffff1673ffffffffffffffffffffffffffffffffffffffff16815260200190815260200160002060009054906101000a900460ff16905092915050565b60007f80ac58cd000000000000000000000000000000000000000000000000000000007bffffffffffffffffffffffffffffffffffffffffffffffffffffffff1916827bffffffffffffffffffffffffffffffffffffffffffffffffffffffff191614806116d957507f5b5e139f000000000000000000000000000000000000000000000000000000007bffffffffffffffffffffffffffffffffffffffffffffffffffffffff1916827bffffffffffffffffffffffffffffffffffffffffffffffffffffffff1916145b806116e957506116e882612120565b5b9050919050565b60008073ffffffffffffffffffffffffffffffffffffffff166002600084815260200190815260200160002060009054906101000a900473ffffffffffffffffffffffffffffffffffffffff1673ffffffffffffffffffffffffffffffffffffffff1614159050919050565b600033905090565b816004600083815260200190815260200160002060006101000a81548173ffffffffffffffffffffffffffffffffffffffff021916908373ffffffffffffffffffffffffffffffffffffffff160217905550808273ffffffffffffffffffffffffffffffffffffffff166117d783610bee565b73ffffffffffffffffffffffffffffffffffffffff167f8c5be1e5ebec7d5bd14f71427d1e84f3dd0314c0f7b2291e5b200ac8c7c3b92560405160405180910390a45050565b6000611828826116f0565b611867576040517f08c379a000000000000000000000000000000000000000000000000000000000815260040161185e90613900565b60405180910390fd5b600061187283610bee565b90508073ffffffffffffffffffffffffffffffffffffffff168473ffffffffffffffffffffffffffffffffffffffff1614806118e157508373ffffffffffffffffffffffffffffffffffffffff166118c98461057f565b73ffffffffffffffffffffffffffffffffffffffff16145b806118f257506118f1818561157a565b5b91505092915050565b8273ffffffffffffffffffffffffffffffffffffffff1661191b82610bee565b73ffffffffffffffffffffffffffffffffffffffff1614611971576040517f08c379a000000000000000000000000000000000000000000000000000000000815260040161196890613992565b60405180910390fd5b600073ffffffffffffffffffffffffffffffffffffffff168273ffffffffffffffffffffffffffffffffffffffff16036119e0576040517f08c379a00000000000000000000000000000000000000000000000000000000081526004016119d790613a24565b60405180910390fd5b6119eb83838361218a565b6119f6600082611764565b6001600360008573ffffffffffffffffffffffffffffffffffffffff1673ffffffffffffffffffffffffffffffffffffffff1681526020019081526020016000206000828254611a469190613a73565b925050819055506001600360008473ffffffffffffffffffffffffffffffffffffffff1673ffffffffffffffffffffffffffffffffffffffff1681526020019081526020016000206000828254611a9d9190613aa7565b92505081905550816002600083815260200190815260200160002060006101000a81548173ffffffffffffffffffffffffffffffffffffffff021916908373ffffffffffffffffffffffffffffffffffffffff160217905550808273ffffffffffffffffffffffffffffffffffffffff168473ffffffffffffffffffffffffffffffffffffffff167fddf252ad1be2c89b69c2b068fc378daa952ba7f163c4a11628f55a4df523b3ef60405160405180910390a4611b5c83838361229c565b505050565b600080600090505b611b7161071b565b811015611bfd57600a6000828152602001908152602001600020600601604051602001611b9e9190613b92565b6040516020818303038152906040528051906020012083604051602001611bc591906129d2565b6040516020818303038152906040528051906020012003611bea576000915050611c03565b8080611bf590613bb4565b915050611b69565b50600190505b919050565b600073ffffffffffffffffffffffffffffffffffffffff168273ffffffffffffffffffffffffffffffffffffffff1603611c77576040517f08c379a0000000000000000000000000000000000000000000000000000000008152600401611c6e90613c48565b60405180910390fd5b611c80816116f0565b15611cc0576040517f08c379a0000000000000000000000000000000000000000000000000000000008152600401611cb790613cb4565b60405180910390fd5b611ccc6000838361218a565b6001600360008473ffffffffffffffffffffffffffffffffffffffff1673ffffffffffffffffffffffffffffffffffffffff1681526020019081526020016000206000828254611d1c9190613aa7565b92505081905550816002600083815260200190815260200160002060006101000a81548173ffffffffffffffffffffffffffffffffffffffff021916908373ffffffffffffffffffffffffffffffffffffffff160217905550808273ffffffffffffffffffffffffffffffffffffffff16600073ffffffffffffffffffffffffffffffffffffffff167fddf252ad1be2c89b69c2b068fc378daa952ba7f163c4a11628f55a4df523b3ef60405160405180910390a4611ddd6000838361229c565b5050565b8173ffffffffffffffffffffffffffffffffffffffff168373ffffffffffffffffffffffffffffffffffffffff1603611e4f576040517f08c379a0000000000000000000000000000000000000000000000000000000008152600401611e4690613d20565b60405180910390fd5b80600560008573ffffffffffffffffffffffffffffffffffffffff1673ffffffffffffffffffffffffffffffffffffffff16815260200190815260200160002060008473ffffffffffffffffffffffffffffffffffffffff1673ffffffffffffffffffffffffffffffffffffffff16815260200190815260200160002060006101000a81548160ff0219169083151502179055508173ffffffffffffffffffffffffffffffffffffffff168373ffffffffffffffffffffffffffffffffffffffff167f17307eab39ab6107e8899845ad3d59bd9653f200f220920489ca2b5937696c3183604051611f40919061291e565b60405180910390a3505050565b611f588484846118fb565b611f64848484846122a1565b611fa3576040517f08c379a0000000000000000000000000000000000000000000000000000000008152600401611f9a90613db2565b60405180910390fd5b50505050565b606060405180602001604052806000815250905090565b606060008203612007576040518060400160405280600181526020017f3000000000000000000000000000000000000000000000000000000000000000815250905061211b565b600082905060005b6000821461203957808061202290613bb4565b915050600a826120329190613e01565b915061200f565b60008167ffffffffffffffff81111561205557612054612c74565b5b6040519080825280601f01601f1916602001820160405280156120875781602001600182028036833780820191505090505b5090505b60008514612114576001826120a09190613a73565b9150600a856120af9190613e32565b60306120bb9190613aa7565b60f81b8183815181106120d1576120d0613598565b5b60200101907effffffffffffffffffffffffffffffffffffffffffffffffffffffffffffff1916908160001a905350600a8561210d9190613e01565b945061208b565b8093505050505b919050565b60007f01ffc9a7000000000000000000000000000000000000000000000000000000007bffffffffffffffffffffffffffffffffffffffffffffffffffffffff1916827bffffffffffffffffffffffffffffffffffffffffffffffffffffffff1916149050919050565b612195838383612428565b600073ffffffffffffffffffffffffffffffffffffffff168373ffffffffffffffffffffffffffffffffffffffff16036121d7576121d28161242d565b612216565b8173ffffffffffffffffffffffffffffffffffffffff168373ffffffffffffffffffffffffffffffffffffffff1614612215576122148382612476565b5b5b600073ffffffffffffffffffffffffffffffffffffffff168273ffffffffffffffffffffffffffffffffffffffff160361225857612253816125e3565b612297565b8273ffffffffffffffffffffffffffffffffffffffff168273ffffffffffffffffffffffffffffffffffffffff16146122965761229582826126b4565b5b5b505050565b505050565b60006122c28473ffffffffffffffffffffffffffffffffffffffff16612733565b1561241b578373ffffffffffffffffffffffffffffffffffffffff1663150b7a026122eb61175c565b8786866040518563ffffffff1660e01b815260040161230d9493929190613eb8565b6020604051808303816000875af192505050801561234957506040513d601f19601f820116820180604052508101906123469190613f19565b60015b6123cb573d8060008114612379576040519150601f19603f3d011682016040523d82523d6000602084013e61237e565b606091505b5060008151036123c3576040517f08c379a00000000000000000000000000000000000000000000000000000000081526004016123ba90613db2565b60405180910390fd5b805181602001fd5b63150b7a0260e01b7bffffffffffffffffffffffffffffffffffffffffffffffffffffffff1916817bffffffffffffffffffffffffffffffffffffffffffffffffffffffff191614915050612420565b600190505b949350505050565b505050565b6008805490506009600083815260200190815260200160002081905550600881908060018154018082558091505060019003906000526020600020016000909190919091505550565b6000600161248384610c9f565b61248d9190613a73565b9050600060076000848152602001908152602001600020549050818114612572576000600660008673ffffffffffffffffffffffffffffffffffffffff1673ffffffffffffffffffffffffffffffffffffffff168152602001908152602001600020600084815260200190815260200160002054905080600660008773ffffffffffffffffffffffffffffffffffffffff1673ffffffffffffffffffffffffffffffffffffffff168152602001908152602001600020600084815260200190815260200160002081905550816007600083815260200190815260200160002081905550505b6007600084815260200190815260200160002060009055600660008573ffffffffffffffffffffffffffffffffffffffff1673ffffffffffffffffffffffffffffffffffffffff16815260200190815260200160002060008381526020019081526020016000206000905550505050565b600060016008805490506125f79190613a73565b905060006009600084815260200190815260200160002054905060006008838154811061262757612626613598565b5b90600052602060002001549050806008838154811061264957612648613598565b5b90600052602060002001819055508160096000838152602001908152602001600020819055506009600085815260200190815260200160002060009055600880548061269857612697613f46565b5b6001900381819060005260206000200160009055905550505050565b60006126bf83610c9f565b905081600660008573ffffffffffffffffffffffffffffffffffffffff1673ffffffffffffffffffffffffffffffffffffffff168152602001908152602001600020600083815260200190815260200160002081905550806007600084815260200190815260200160002081905550505050565b6000808273ffffffffffffffffffffffffffffffffffffffff163b119050919050565b828054612762906131fb565b90600052602060002090601f01602090048101928261278457600085556127cb565b82601f1061279d57805160ff19168380011785556127cb565b828001600101855582156127cb579182015b828111156127ca5782518255916020019190600101906127af565b5b5090506127d8919061284d565b5090565b60405180610100016040528060008152602001606081526020016060815260200160608152602001600073ffffffffffffffffffffffffffffffffffffffff168152602001600073ffffffffffffffffffffffffffffffffffffffff16815260200160608152602001606081525090565b5b8082111561286657600081600090555060010161284e565b5090565b6000604051905090565b600080fd5b600080fd5b60007fffffffff0000000000000000000000000000000000000000000000000000000082169050919050565b6128b38161287e565b81146128be57600080fd5b50565b6000813590506128d0816128aa565b92915050565b6000602082840312156128ec576128eb612874565b5b60006128fa848285016128c1565b91505092915050565b60008115159050919050565b61291881612903565b82525050565b6000602082019050612933600083018461290f565b92915050565b600081519050919050565b600082825260208201905092915050565b60005b83811015612973578082015181840152602081019050612958565b83811115612982576000848401525b50505050565b6000601f19601f8301169050919050565b60006129a482612939565b6129ae8185612944565b93506129be818560208601612955565b6129c781612988565b840191505092915050565b600060208201905081810360008301526129ec8184612999565b905092915050565b6000819050919050565b612a07816129f4565b8114612a1257600080fd5b50565b600081359050612a24816129fe565b92915050565b600060208284031215612a4057612a3f612874565b5b6000612a4e84828501612a15565b91505092915050565b600073ffffffffffffffffffffffffffffffffffffffff82169050919050565b6000612a8282612a57565b9050919050565b612a9281612a77565b82525050565b6000602082019050612aad6000830184612a89565b92915050565b612abc81612a77565b8114612ac757600080fd5b50565b600081359050612ad981612ab3565b92915050565b60008060408385031215612af657612af5612874565b5b6000612b0485828601612aca565b9250506020612b1585828601612a15565b9150509250929050565b612b28816129f4565b82525050565b6000602082019050612b436000830184612b1f565b92915050565b600061010082019050612b5f600083018b612b1f565b8181036020830152612b71818a612999565b90508181036040830152612b858189612999565b90508181036060830152612b998188612999565b9050612ba86080830187612a89565b612bb560a0830186612a89565b81810360c0830152612bc78185612999565b905081810360e0830152612bdb8184612999565b90509998505050505050505050565b600080600060608486031215612c0357612c02612874565b5b6000612c1186828701612aca565b9350506020612c2286828701612aca565b9250506040612c3386828701612a15565b9150509250925092565b600060208284031215612c5357612c52612874565b5b6000612c6184828501612aca565b91505092915050565b600080fd5b600080fd5b7f4e487b7100000000000000000000000000000000000000000000000000000000600052604160045260246000fd5b612cac82612988565b810181811067ffffffffffffffff82111715612ccb57612cca612c74565b5b80604052505050565b6000612cde61286a565b9050612cea8282612ca3565b919050565b600067ffffffffffffffff821115612d0a57612d09612c74565b5b612d1382612988565b9050602081019050919050565b82818337600083830152505050565b6000612d42612d3d84612cef565b612cd4565b905082815260208101848484011115612d5e57612d5d612c6f565b5b612d69848285612d20565b509392505050565b600082601f830112612d8657612d85612c6a565b5b8135612d96848260208601612d2f565b91505092915050565b600080600080600060a08688031215612dbb57612dba612874565b5b600086013567ffffffffffffffff811115612dd957612dd8612879565b5b612de588828901612d71565b955050602086013567ffffffffffffffff811115612e0657612e05612879565b5b612e1288828901612d71565b945050604086013567ffffffffffffffff811115612e3357612e32612879565b5b612e3f88828901612d71565b935050606086013567ffffffffffffffff811115612e6057612e5f612879565b5b612e6c88828901612d71565b925050608086013567ffffffffffffffff811115612e8d57612e8c612879565b5b612e9988828901612d71565b9150509295509295909350565b612eaf81612903565b8114612eba57600080fd5b50565b600081359050612ecc81612ea6565b92915050565b60008060408385031215612ee957612ee8612874565b5b6000612ef785828601612aca565b9250506020612f0885828601612ebd565b9150509250929050565b612f1b816129f4565b82525050565b600082825260208201905092915050565b6000612f3d82612939565b612f478185612f21565b9350612f57818560208601612955565b612f6081612988565b840191505092915050565b612f7481612a77565b82525050565b600061010083016000830151612f936000860182612f12565b5060208301518482036020860152612fab8282612f32565b91505060408301518482036040860152612fc58282612f32565b91505060608301518482036060860152612fdf8282612f32565b9150506080830151612ff46080860182612f6b565b5060a083015161300760a0860182612f6b565b5060c083015184820360c086015261301f8282612f32565b91505060e083015184820360e08601526130398282612f32565b9150508091505092915050565b600060208201905081810360008301526130608184612f7a565b905092915050565b600067ffffffffffffffff82111561308357613082612c74565b5b61308c82612988565b9050602081019050919050565b60006130ac6130a784613068565b612cd4565b9050828152602081018484840111156130c8576130c7612c6f565b5b6130d3848285612d20565b509392505050565b600082601f8301126130f0576130ef612c6a565b5b8135613100848260208601613099565b91505092915050565b6000806000806080858703121561312357613122612874565b5b600061313187828801612aca565b945050602061314287828801612aca565b935050604061315387828801612a15565b925050606085013567ffffffffffffffff81111561317457613173612879565b5b613180878288016130db565b91505092959194509250565b600080604083850312156131a3576131a2612874565b5b60006131b185828601612aca565b92505060206131c285828601612aca565b9150509250929050565b7f4e487b7100000000000000000000000000000000000000000000000000000000600052602260045260246000fd5b6000600282049050600182168061321357607f821691505b602082108103613226576132256131cc565b5b50919050565b7f4552433732313a20617070726f76656420717565727920666f72206e6f6e657860008201527f697374656e7420746f6b656e0000000000000000000000000000000000000000602082015250565b6000613288602c83612944565b91506132938261322c565b604082019050919050565b600060208201905081810360008301526132b78161327b565b9050919050565b7f4552433732313a20617070726f76616c20746f2063757272656e74206f776e6560008201527f7200000000000000000000000000000000000000000000000000000000000000602082015250565b600061331a602183612944565b9150613325826132be565b604082019050919050565b600060208201905081810360008301526133498161330d565b9050919050565b7f4552433732313a20617070726f76652063616c6c6572206973206e6f74206f7760008201527f6e6572206e6f7220617070726f76656420666f7220616c6c0000000000000000602082015250565b60006133ac603883612944565b91506133b782613350565b604082019050919050565b600060208201905081810360008301526133db8161339f565b9050919050565b7f4552433732313a207472616e736665722063616c6c6572206973206e6f74206f60008201527f776e6572206e6f7220617070726f766564000000000000000000000000000000602082015250565b600061343e603183612944565b9150613449826133e2565b604082019050919050565b6000602082019050818103600083015261346d81613431565b9050919050565b7f455243373231456e756d657261626c653a206f776e657220696e646578206f7560008201527f74206f6620626f756e6473000000000000000000000000000000000000000000602082015250565b60006134d0602b83612944565b91506134db82613474565b604082019050919050565b600060208201905081810360008301526134ff816134c3565b9050919050565b7f455243373231456e756d657261626c653a20676c6f62616c20696e646578206f60008201527f7574206f6620626f756e64730000000000000000000000000000000000000000602082015250565b6000613562602c83612944565b915061356d82613506565b604082019050919050565b6000602082019050818103600083015261359181613555565b9050919050565b7f4e487b7100000000000000000000000000000000000000000000000000000000600052603260045260246000fd5b7f4552433732313a206f776e657220717565727920666f72206e6f6e657869737460008201527f656e7420746f6b656e0000000000000000000000000000000000000000000000602082015250565b6000613623602983612944565b915061362e826135c7565b604082019050919050565b6000602082019050818103600083015261365281613616565b9050919050565b7f4552433732313a2062616c616e636520717565727920666f7220746865207a6560008201527f726f206164647265737300000000000000000000000000000000000000000000602082015250565b60006136b5602a83612944565b91506136c082613659565b604082019050919050565b600060208201905081810360008301526136e4816136a8565b9050919050565b7f4e465420616c7265616479206578697374732e00000000000000000000000000600082015250565b6000613721601383612944565b915061372c826136eb565b602082019050919050565b6000602082019050818103600083015261375081613714565b9050919050565b600060608201905061376c6000830186612b1f565b818103602083015261377e8185612999565b905081810360408301526137928184612999565b9050949350505050565b7f4552433732314d657461646174613a2055524920717565727920666f72206e6f60008201527f6e6578697374656e7420746f6b656e0000000000000000000000000000000000602082015250565b60006137f8602f83612944565b91506138038261379c565b604082019050919050565b60006020820190508181036000830152613827816137eb565b9050919050565b600081905092915050565b600061384482612939565b61384e818561382e565b935061385e818560208601612955565b80840191505092915050565b60006138768285613839565b91506138828284613839565b91508190509392505050565b7f4552433732313a206f70657261746f7220717565727920666f72206e6f6e657860008201527f697374656e7420746f6b656e0000000000000000000000000000000000000000602082015250565b60006138ea602c83612944565b91506138f58261388e565b604082019050919050565b60006020820190508181036000830152613919816138dd565b9050919050565b7f4552433732313a207472616e736665722066726f6d20696e636f72726563742060008201527f6f776e6572000000000000000000000000000000000000000000000000000000602082015250565b600061397c602583612944565b915061398782613920565b604082019050919050565b600060208201905081810360008301526139ab8161396f565b9050919050565b7f4552433732313a207472616e7366657220746f20746865207a65726f2061646460008201527f7265737300000000000000000000000000000000000000000000000000000000602082015250565b6000613a0e602483612944565b9150613a19826139b2565b604082019050919050565b60006020820190508181036000830152613a3d81613a01565b9050919050565b7f4e487b7100000000000000000000000000000000000000000000000000000000600052601160045260246000fd5b6000613a7e826129f4565b9150613a89836129f4565b925082821015613a9c57613a9b613a44565b5b828203905092915050565b6000613ab2826129f4565b9150613abd836129f4565b9250827fffffffffffffffffffffffffffffffffffffffffffffffffffffffffffffffff03821115613af257613af1613a44565b5b828201905092915050565b60008190508160005260206000209050919050565b60008154613b1f816131fb565b613b298186612944565b94506001821660008114613b445760018114613b5657613b89565b60ff1983168652602086019350613b89565b613b5f85613afd565b60005b83811015613b8157815481890152600182019150602081019050613b62565b808801955050505b50505092915050565b60006020820190508181036000830152613bac8184613b12565b905092915050565b6000613bbf826129f4565b91507fffffffffffffffffffffffffffffffffffffffffffffffffffffffffffffffff8203613bf157613bf0613a44565b5b600182019050919050565b7f4552433732313a206d696e7420746f20746865207a65726f2061646472657373600082015250565b6000613c32602083612944565b9150613c3d82613bfc565b602082019050919050565b60006020820190508181036000830152613c6181613c25565b9050919050565b7f4552433732313a20746f6b656e20616c7265616479206d696e74656400000000600082015250565b6000613c9e601c83612944565b9150613ca982613c68565b602082019050919050565b60006020820190508181036000830152613ccd81613c91565b9050919050565b7f4552433732313a20617070726f766520746f2063616c6c657200000000000000600082015250565b6000613d0a601983612944565b9150613d1582613cd4565b602082019050919050565b60006020820190508181036000830152613d3981613cfd565b9050919050565b7f4552433732313a207472616e7366657220746f206e6f6e20455243373231526560008201527f63656976657220696d706c656d656e7465720000000000000000000000000000602082015250565b6000613d9c603283612944565b9150613da782613d40565b604082019050919050565b60006020820190508181036000830152613dcb81613d8f565b9050919050565b7f4e487b7100000000000000000000000000000000000000000000000000000000600052601260045260246000fd5b6000613e0c826129f4565b9150613e17836129f4565b925082613e2757613e26613dd2565b5b828204905092915050565b6000613e3d826129f4565b9150613e48836129f4565b925082613e5857613e57613dd2565b5b828206905092915050565b600081519050919050565b600082825260208201905092915050565b6000613e8a82613e63565b613e948185613e6e565b9350613ea4818560208601612955565b613ead81612988565b840191505092915050565b6000608082019050613ecd6000830187612a89565b613eda6020830186612a89565b613ee76040830185612b1f565b8181036060830152613ef98184613e7f565b905095945050505050565b600081519050613f13816128aa565b92915050565b600060208284031215613f2f57613f2e612874565b5b6000613f3d84828501613f04565b91505092915050565b7f4e487b7100000000000000000000000000000000000000000000000000000000600052603160045260246000fdfea264697066735822122005f8b3e919b2718fc9638ecb9ba11b6df408ff7b00c1017c03bf9b59eabb5d0b64736f6c634300080d0033",
  "immutableReferences": {},
  "source": "// SPDX-License-Identifier: MIT\npragma solidity ^0.8.0;\n\nimport \"@openzeppelin/contracts/token/ERC721/extensions/ERC721Enumerable.sol\";\n\ncontract UniToken is ERC721Enumerable{\n    // Structure of metadata stored on the chain\n    struct UniNFT {\n        uint256 id;\n        string name;\n        string description;\n        string imgUrl;\n        address creator;\n        address owner;\n        string imgHash;\n        string createdAt;\n    }\n\n    // tokenIds to UniNFT metadata\n    mapping (uint256 => UniNFT) public mintedNFTs;\n\n    constructor() ERC721(\"UniToken\", \"UTN\") {}\n\n    event Minted (\n        uint256 tokenId,\n        string name,\n        string createdAt\n    );\n\n    // Minting function that assigns the new token metadata passed from frontend to a tokenId.\n    // Minted token is assigned to the address of the caller.\n    function mint(string memory name, \n        string memory description,\n        string memory imgUrl,\n        string memory imgHash,\n        string memory createdAt\n    ) external returns (uint) {\n        // Call the verify function to check if imgHash exists in our mintedNFTs mapping\n        require(_verify(imgHash), \"NFT already exists.\");\n\n        // Get the total supply of tokens and assign the new token id to it\n        uint tokenId = totalSupply();\n\n        // Assign metadata to the tokenId\n        mintedNFTs[tokenId] = UniNFT({\n            id: tokenId,\n            name: name,\n            description: description,\n            imgUrl: imgUrl,\n            creator: msg.sender,\n            owner: msg.sender,\n            imgHash: imgHash,\n            createdAt: createdAt\n        });\n\n        _mint(msg.sender, tokenId);\n\n        // Emit event\n        emit Minted(tokenId, name, createdAt);\n\n        return tokenId;\n    }\n\n    // Checks if imgHash exists in mintedNFTs\n    function _verify(string memory imgHash) private view returns(bool) {\n        for (uint i = 0; i < totalSupply(); i++) {\n            // Compare the 2 strings by hashing to save gas\n            if (keccak256(abi.encode(imgHash)) == keccak256(abi.encode(mintedNFTs[i].imgHash))) {\n                return false;\n            }\n        }\n        return true;\n    }\n\n    function setOwner(address owner, uint256 tokenId) external {\n        mintedNFTs[tokenId].owner = owner;\n    }\n\n    function getTokenData(uint256 tokenId) public view returns(UniNFT memory) {\n        return mintedNFTs[tokenId];\n    }\n\n    function getNumTokens() public view returns(uint256) {\n        return totalSupply();\n    }\n}\n\n",
  "sourcePath": "/Users/tiongshankai/Documents/Github/50.037-SUTDBlockU/backend/contracts/UniToken.sol",
  "compiler": {
    "name": "solc",
    "version": "0.8.13+commit.abaa5c0e.Emscripten.clang"
  },
  "schemaVersion": "3.4.6",
  "updatedAt": "2022-04-10T14:20:33.348Z",
  "networkType": "ethereum",
  "devdoc": {
    "kind": "dev",
    "methods": {
      "approve(address,uint256)": {
        "details": "See {IERC721-approve}."
      },
      "balanceOf(address)": {
        "details": "See {IERC721-balanceOf}."
      },
      "getApproved(uint256)": {
        "details": "See {IERC721-getApproved}."
      },
      "isApprovedForAll(address,address)": {
        "details": "See {IERC721-isApprovedForAll}."
      },
      "name()": {
        "details": "See {IERC721Metadata-name}."
      },
      "ownerOf(uint256)": {
        "details": "See {IERC721-ownerOf}."
      },
      "safeTransferFrom(address,address,uint256)": {
        "details": "See {IERC721-safeTransferFrom}."
      },
      "safeTransferFrom(address,address,uint256,bytes)": {
        "details": "See {IERC721-safeTransferFrom}."
      },
      "setApprovalForAll(address,bool)": {
        "details": "See {IERC721-setApprovalForAll}."
      },
      "supportsInterface(bytes4)": {
        "details": "See {IERC165-supportsInterface}."
      },
      "symbol()": {
        "details": "See {IERC721Metadata-symbol}."
      },
      "tokenByIndex(uint256)": {
        "details": "See {IERC721Enumerable-tokenByIndex}."
      },
      "tokenOfOwnerByIndex(address,uint256)": {
        "details": "See {IERC721Enumerable-tokenOfOwnerByIndex}."
      },
      "tokenURI(uint256)": {
        "details": "See {IERC721Metadata-tokenURI}."
      },
      "totalSupply()": {
        "details": "See {IERC721Enumerable-totalSupply}."
      },
      "transferFrom(address,address,uint256)": {
        "details": "See {IERC721-transferFrom}."
      }
    },
    "version": 1
  },
  "userdoc": {
    "kind": "user",
    "methods": {},
    "version": 1
  }
}