{
  "contractName": "UniToken",
  "abi": [
    {
      "inputs": [],
      "stateMutability": "nonpayable",
      "type": "constructor"
    },
    {
      "anonymous": false,
      "inputs": [
        {
          "indexed": true,
          "internalType": "address",
          "name": "owner",
          "type": "address"
        },
        {
          "indexed": true,
          "internalType": "address",
          "name": "approved",
          "type": "address"
        },
        {
          "indexed": true,
          "internalType": "uint256",
          "name": "tokenId",
          "type": "uint256"
        }
      ],
      "name": "Approval",
      "type": "event"
    },
    {
      "anonymous": false,
      "inputs": [
        {
          "indexed": true,
          "internalType": "address",
          "name": "owner",
          "type": "address"
        },
        {
          "indexed": true,
          "internalType": "address",
          "name": "operator",
          "type": "address"
        },
        {
          "indexed": false,
          "internalType": "bool",
          "name": "approved",
          "type": "bool"
        }
      ],
      "name": "ApprovalForAll",
      "type": "event"
    },
    {
      "anonymous": false,
      "inputs": [
        {
          "indexed": true,
          "internalType": "address",
          "name": "from",
          "type": "address"
        },
        {
          "indexed": true,
          "internalType": "address",
          "name": "to",
          "type": "address"
        },
        {
          "indexed": true,
          "internalType": "uint256",
          "name": "tokenId",
          "type": "uint256"
        }
      ],
      "name": "Transfer",
      "type": "event"
    },
    {
      "inputs": [
        {
          "internalType": "uint256",
          "name": "",
          "type": "uint256"
        }
      ],
      "name": "NFTs",
      "outputs": [
        {
          "internalType": "uint256",
          "name": "id",
          "type": "uint256"
        },
        {
          "internalType": "string",
          "name": "name",
          "type": "string"
        },
        {
          "internalType": "string",
          "name": "description",
          "type": "string"
        },
        {
          "internalType": "string",
          "name": "imgHash",
          "type": "string"
        },
        {
          "internalType": "string",
          "name": "createdAt",
          "type": "string"
        },
        {
          "internalType": "address",
          "name": "creator",
          "type": "address"
        },
        {
          "internalType": "string",
          "name": "uri",
          "type": "string"
        }
      ],
      "stateMutability": "view",
      "type": "function",
      "constant": true
    },
    {
      "inputs": [
        {
          "internalType": "address",
          "name": "to",
          "type": "address"
        },
        {
          "internalType": "uint256",
          "name": "tokenId",
          "type": "uint256"
        }
      ],
      "name": "approve",
      "outputs": [],
      "stateMutability": "nonpayable",
      "type": "function"
    },
    {
      "inputs": [
        {
          "internalType": "address",
          "name": "owner",
          "type": "address"
        }
      ],
      "name": "balanceOf",
      "outputs": [
        {
          "internalType": "uint256",
          "name": "",
          "type": "uint256"
        }
      ],
      "stateMutability": "view",
      "type": "function",
      "constant": true
    },
    {
      "inputs": [
        {
          "internalType": "uint256",
          "name": "tokenId",
          "type": "uint256"
        }
      ],
      "name": "getApproved",
      "outputs": [
        {
          "internalType": "address",
          "name": "",
          "type": "address"
        }
      ],
      "stateMutability": "view",
      "type": "function",
      "constant": true
    },
    {
      "inputs": [
        {
          "internalType": "address",
          "name": "owner",
          "type": "address"
        },
        {
          "internalType": "address",
          "name": "operator",
          "type": "address"
        }
      ],
      "name": "isApprovedForAll",
      "outputs": [
        {
          "internalType": "bool",
          "name": "",
          "type": "bool"
        }
      ],
      "stateMutability": "view",
      "type": "function",
      "constant": true
    },
    {
      "inputs": [],
      "name": "marketplace",
      "outputs": [
        {
          "internalType": "address",
          "name": "",
          "type": "address"
        }
      ],
      "stateMutability": "view",
      "type": "function",
      "constant": true
    },
    {
      "inputs": [],
      "name": "name",
      "outputs": [
        {
          "internalType": "string",
          "name": "",
          "type": "string"
        }
      ],
      "stateMutability": "view",
      "type": "function",
      "constant": true
    },
    {
      "inputs": [
        {
          "internalType": "uint256",
          "name": "tokenId",
          "type": "uint256"
        }
      ],
      "name": "ownerOf",
      "outputs": [
        {
          "internalType": "address",
          "name": "",
          "type": "address"
        }
      ],
      "stateMutability": "view",
      "type": "function",
      "constant": true
    },
    {
      "inputs": [
        {
          "internalType": "address",
          "name": "from",
          "type": "address"
        },
        {
          "internalType": "address",
          "name": "to",
          "type": "address"
        },
        {
          "internalType": "uint256",
          "name": "tokenId",
          "type": "uint256"
        }
      ],
      "name": "safeTransferFrom",
      "outputs": [],
      "stateMutability": "nonpayable",
      "type": "function"
    },
    {
      "inputs": [
        {
          "internalType": "address",
          "name": "from",
          "type": "address"
        },
        {
          "internalType": "address",
          "name": "to",
          "type": "address"
        },
        {
          "internalType": "uint256",
          "name": "tokenId",
          "type": "uint256"
        },
        {
          "internalType": "bytes",
          "name": "_data",
          "type": "bytes"
        }
      ],
      "name": "safeTransferFrom",
      "outputs": [],
      "stateMutability": "nonpayable",
      "type": "function"
    },
    {
      "inputs": [
        {
          "internalType": "address",
          "name": "operator",
          "type": "address"
        },
        {
          "internalType": "bool",
          "name": "approved",
          "type": "bool"
        }
      ],
      "name": "setApprovalForAll",
      "outputs": [],
      "stateMutability": "nonpayable",
      "type": "function"
    },
    {
      "inputs": [
        {
          "internalType": "bytes4",
          "name": "interfaceId",
          "type": "bytes4"
        }
      ],
      "name": "supportsInterface",
      "outputs": [
        {
          "internalType": "bool",
          "name": "",
          "type": "bool"
        }
      ],
      "stateMutability": "view",
      "type": "function",
      "constant": true
    },
    {
      "inputs": [],
      "name": "symbol",
      "outputs": [
        {
          "internalType": "string",
          "name": "",
          "type": "string"
        }
      ],
      "stateMutability": "view",
      "type": "function",
      "constant": true
    },
    {
      "inputs": [
        {
          "internalType": "uint256",
          "name": "index",
          "type": "uint256"
        }
      ],
      "name": "tokenByIndex",
      "outputs": [
        {
          "internalType": "uint256",
          "name": "",
          "type": "uint256"
        }
      ],
      "stateMutability": "view",
      "type": "function",
      "constant": true
    },
    {
      "inputs": [
        {
          "internalType": "address",
          "name": "owner",
          "type": "address"
        },
        {
          "internalType": "uint256",
          "name": "index",
          "type": "uint256"
        }
      ],
      "name": "tokenOfOwnerByIndex",
      "outputs": [
        {
          "internalType": "uint256",
          "name": "",
          "type": "uint256"
        }
      ],
      "stateMutability": "view",
      "type": "function",
      "constant": true
    },
    {
      "inputs": [],
      "name": "totalSupply",
      "outputs": [
        {
          "internalType": "uint256",
          "name": "",
          "type": "uint256"
        }
      ],
      "stateMutability": "view",
      "type": "function",
      "constant": true
    },
    {
      "inputs": [
        {
          "internalType": "address",
          "name": "from",
          "type": "address"
        },
        {
          "internalType": "address",
          "name": "to",
          "type": "address"
        },
        {
          "internalType": "uint256",
          "name": "tokenId",
          "type": "uint256"
        }
      ],
      "name": "transferFrom",
      "outputs": [],
      "stateMutability": "nonpayable",
      "type": "function"
    },
    {
      "inputs": [
        {
          "internalType": "string",
          "name": "uri",
          "type": "string"
        },
        {
          "internalType": "string",
          "name": "name",
          "type": "string"
        },
        {
          "internalType": "string",
          "name": "description",
          "type": "string"
        },
        {
          "internalType": "string",
          "name": "imgHash",
          "type": "string"
        },
        {
          "internalType": "string",
          "name": "createdAt",
          "type": "string"
        }
      ],
      "name": "mint",
      "outputs": [
        {
          "internalType": "uint256",
          "name": "",
          "type": "uint256"
        }
      ],
      "stateMutability": "nonpayable",
      "type": "function"
    },
    {
      "inputs": [
        {
          "internalType": "uint256",
          "name": "tokenId",
          "type": "uint256"
        }
      ],
      "name": "tokenURI",
      "outputs": [
        {
          "internalType": "string",
          "name": "",
          "type": "string"
        }
      ],
      "stateMutability": "view",
      "type": "function",
      "constant": true
    },
    {
      "inputs": [
        {
          "internalType": "address",
          "name": "market",
          "type": "address"
        }
      ],
      "name": "setMarketplace",
      "outputs": [],
      "stateMutability": "nonpayable",
      "type": "function"
    }
  ],
  "bytecode": "0x60806040523480156200001157600080fd5b506040518060400160405280600881526020017f556e69546f6b656e0000000000000000000000000000000000000000000000008152506040518060400160405280600581526020017f554e49544b000000000000000000000000000000000000000000000000000000815250816000908051906020019062000096929190620000b8565b508060019080519060200190620000af929190620000b8565b505050620001cc565b828054620000c69062000197565b90600052602060002090601f016020900481019282620000ea576000855562000136565b82601f106200010557805160ff191683800117855562000136565b8280016001018555821562000136579182015b828111156200013557825182559160200191906001019062000118565b5b50905062000145919062000149565b5090565b5b80821115620001645760008160009055506001016200014a565b5090565b7f4e487b7100000000000000000000000000000000000000000000000000000000600052602260045260246000fd5b60006002820490506001821680620001b057607f821691505b602082108103620001c657620001c562000168565b5b50919050565b61352f80620001dc6000396000f3fe608060405234801561001057600080fd5b506004361061012c5760003560e01c806370a08231116100ad578063a3c0b95b11610071578063a3c0b95b14610367578063abc8c7af1461039d578063b88d4fde146103bb578063c87b56dd146103d7578063e985e9c5146104075761012c565b806370a08231146102b157806373ad6c2d146102e157806386833e91146102fd57806395d89b411461032d578063a22cb4651461034b5761012c565b806323b872dd116100f457806323b872dd146101e95780632f745c591461020557806342842e0e146102355780634f6ccce7146102515780636352211e146102815761012c565b806301ffc9a71461013157806306fdde0314610161578063081812fc1461017f578063095ea7b3146101af57806318160ddd146101cb575b600080fd5b61014b60048036038101906101469190612260565b610437565b60405161015891906122a8565b60405180910390f35b6101696104b1565b604051610176919061235c565b60405180910390f35b610199600480360381019061019491906123b4565b610543565b6040516101a69190612422565b60405180910390f35b6101c960048036038101906101c49190612469565b6105c8565b005b6101d36106df565b6040516101e091906124b8565b60405180910390f35b61020360048036038101906101fe91906124d3565b6106ec565b005b61021f600480360381019061021a9190612469565b61074c565b60405161022c91906124b8565b60405180910390f35b61024f600480360381019061024a91906124d3565b6107f1565b005b61026b600480360381019061026691906123b4565b610811565b60405161027891906124b8565b60405180910390f35b61029b600480360381019061029691906123b4565b610882565b6040516102a89190612422565b60405180910390f35b6102cb60048036038101906102c69190612526565b610933565b6040516102d891906124b8565b60405180910390f35b6102fb60048036038101906102f69190612526565b6109ea565b005b61031760048036038101906103129190612688565b610a2e565b60405161032491906124b8565b60405180910390f35b610335610bcc565b604051610342919061235c565b60405180910390f35b610365600480360381019061036091906127bb565b610c5e565b005b610381600480360381019061037c91906123b4565b610c74565b60405161039497969594939291906127fb565b60405180910390f35b6103a5610f7e565b6040516103b29190612422565b60405180910390f35b6103d560048036038101906103d0919061292e565b610fa4565b005b6103f160048036038101906103ec91906123b4565b611006565b6040516103fe919061235c565b60405180910390f35b610421600480360381019061041c91906129b1565b6110f6565b60405161042e91906122a8565b60405180910390f35b60007f780e9d63000000000000000000000000000000000000000000000000000000007bffffffffffffffffffffffffffffffffffffffffffffffffffffffff1916827bffffffffffffffffffffffffffffffffffffffffffffffffffffffff191614806104aa57506104a98261118a565b5b9050919050565b6060600080546104c090612a20565b80601f01602080910402602001604051908101604052809291908181526020018280546104ec90612a20565b80156105395780601f1061050e57610100808354040283529160200191610539565b820191906000526020600020905b81548152906001019060200180831161051c57829003601f168201915b5050505050905090565b600061054e8261126c565b61058d576040517f08c379a000000000000000000000000000000000000000000000000000000000815260040161058490612ac3565b60405180910390fd5b6004600083815260200190815260200160002060009054906101000a900473ffffffffffffffffffffffffffffffffffffffff169050919050565b60006105d382610882565b90508073ffffffffffffffffffffffffffffffffffffffff168373ffffffffffffffffffffffffffffffffffffffff1603610643576040517f08c379a000000000000000000000000000000000000000000000000000000000815260040161063a90612b55565b60405180910390fd5b8073ffffffffffffffffffffffffffffffffffffffff166106626112d8565b73ffffffffffffffffffffffffffffffffffffffff16148061069157506106908161068b6112d8565b6110f6565b5b6106d0576040517f08c379a00000000000000000000000000000000000000000000000000000000081526004016106c790612be7565b60405180910390fd5b6106da83836112e0565b505050565b6000600880549050905090565b6106fd6106f76112d8565b82611399565b61073c576040517f08c379a000000000000000000000000000000000000000000000000000000000815260040161073390612c79565b60405180910390fd5b610747838383611477565b505050565b600061075783610933565b8210610798576040517f08c379a000000000000000000000000000000000000000000000000000000000815260040161078f90612d0b565b60405180910390fd5b600660008473ffffffffffffffffffffffffffffffffffffffff1673ffffffffffffffffffffffffffffffffffffffff168152602001908152602001600020600083815260200190815260200160002054905092915050565b61080c83838360405180602001604052806000815250610fa4565b505050565b600061081b6106df565b821061085c576040517f08c379a000000000000000000000000000000000000000000000000000000000815260040161085390612d9d565b60405180910390fd5b600882815481106108705761086f612dbd565b5b90600052602060002001549050919050565b6000806002600084815260200190815260200160002060009054906101000a900473ffffffffffffffffffffffffffffffffffffffff169050600073ffffffffffffffffffffffffffffffffffffffff168173ffffffffffffffffffffffffffffffffffffffff160361092a576040517f08c379a000000000000000000000000000000000000000000000000000000000815260040161092190612e5e565b60405180910390fd5b80915050919050565b60008073ffffffffffffffffffffffffffffffffffffffff168273ffffffffffffffffffffffffffffffffffffffff16036109a3576040517f08c379a000000000000000000000000000000000000000000000000000000000815260040161099a90612ef0565b60405180910390fd5b600360008373ffffffffffffffffffffffffffffffffffffffff1673ffffffffffffffffffffffffffffffffffffffff168152602001908152602001600020549050919050565b80600b60006101000a81548173ffffffffffffffffffffffffffffffffffffffff021916908373ffffffffffffffffffffffffffffffffffffffff16021790555050565b6000610a3a600a6116dd565b6000610a46600a6116f3565b9050610a523382611701565b610a7e600b60009054906101000a900473ffffffffffffffffffffffffffffffffffffffff16826105c8565b6040518060e001604052808281526020018781526020018681526020018581526020018481526020013373ffffffffffffffffffffffffffffffffffffffff16815260200188815250600c6000838152602001908152602001600020600082015181600001556020820151816001019080519060200190610b00929190612151565b506040820151816002019080519060200190610b1d929190612151565b506060820151816003019080519060200190610b3a929190612151565b506080820151816004019080519060200190610b57929190612151565b5060a08201518160050160006101000a81548173ffffffffffffffffffffffffffffffffffffffff021916908373ffffffffffffffffffffffffffffffffffffffff16021790555060c0820151816006019080519060200190610bbb929190612151565b509050508091505095945050505050565b606060018054610bdb90612a20565b80601f0160208091040260200160405190810160405280929190818152602001828054610c0790612a20565b8015610c545780601f10610c2957610100808354040283529160200191610c54565b820191906000526020600020905b815481529060010190602001808311610c3757829003601f168201915b5050505050905090565b610c70610c696112d8565b838361171f565b5050565b600c602052806000526040600020600091509050806000015490806001018054610c9d90612a20565b80601f0160208091040260200160405190810160405280929190818152602001828054610cc990612a20565b8015610d165780601f10610ceb57610100808354040283529160200191610d16565b820191906000526020600020905b815481529060010190602001808311610cf957829003601f168201915b505050505090806002018054610d2b90612a20565b80601f0160208091040260200160405190810160405280929190818152602001828054610d5790612a20565b8015610da45780601f10610d7957610100808354040283529160200191610da4565b820191906000526020600020905b815481529060010190602001808311610d8757829003601f168201915b505050505090806003018054610db990612a20565b80601f0160208091040260200160405190810160405280929190818152602001828054610de590612a20565b8015610e325780601f10610e0757610100808354040283529160200191610e32565b820191906000526020600020905b815481529060010190602001808311610e1557829003601f168201915b505050505090806004018054610e4790612a20565b80601f0160208091040260200160405190810160405280929190818152602001828054610e7390612a20565b8015610ec05780601f10610e9557610100808354040283529160200191610ec0565b820191906000526020600020905b815481529060010190602001808311610ea357829003601f168201915b5050505050908060050160009054906101000a900473ffffffffffffffffffffffffffffffffffffffff1690806006018054610efb90612a20565b80601f0160208091040260200160405190810160405280929190818152602001828054610f2790612a20565b8015610f745780601f10610f4957610100808354040283529160200191610f74565b820191906000526020600020905b815481529060010190602001808311610f5757829003601f168201915b5050505050905087565b600b60009054906101000a900473ffffffffffffffffffffffffffffffffffffffff1681565b610fb5610faf6112d8565b83611399565b610ff4576040517f08c379a0000000000000000000000000000000000000000000000000000000008152600401610feb90612c79565b60405180910390fd5b6110008484848461188b565b50505050565b60606110118261126c565b611050576040517f08c379a000000000000000000000000000000000000000000000000000000000815260040161104790612f82565b60405180910390fd5b600c6000838152602001908152602001600020600601805461107190612a20565b80601f016020809104026020016040519081016040528092919081815260200182805461109d90612a20565b80156110ea5780601f106110bf576101008083540402835291602001916110ea565b820191906000526020600020905b8154815290600101906020018083116110cd57829003601f168201915b50505050509050919050565b6000600560008473ffffffffffffffffffffffffffffffffffffffff1673ffffffffffffffffffffffffffffffffffffffff16815260200190815260200160002060008373ffffffffffffffffffffffffffffffffffffffff1673ffffffffffffffffffffffffffffffffffffffff16815260200190815260200160002060009054906101000a900460ff16905092915050565b60007f80ac58cd000000000000000000000000000000000000000000000000000000007bffffffffffffffffffffffffffffffffffffffffffffffffffffffff1916827bffffffffffffffffffffffffffffffffffffffffffffffffffffffff1916148061125557507f5b5e139f000000000000000000000000000000000000000000000000000000007bffffffffffffffffffffffffffffffffffffffffffffffffffffffff1916827bffffffffffffffffffffffffffffffffffffffffffffffffffffffff1916145b806112655750611264826118e7565b5b9050919050565b60008073ffffffffffffffffffffffffffffffffffffffff166002600084815260200190815260200160002060009054906101000a900473ffffffffffffffffffffffffffffffffffffffff1673ffffffffffffffffffffffffffffffffffffffff1614159050919050565b600033905090565b816004600083815260200190815260200160002060006101000a81548173ffffffffffffffffffffffffffffffffffffffff021916908373ffffffffffffffffffffffffffffffffffffffff160217905550808273ffffffffffffffffffffffffffffffffffffffff1661135383610882565b73ffffffffffffffffffffffffffffffffffffffff167f8c5be1e5ebec7d5bd14f71427d1e84f3dd0314c0f7b2291e5b200ac8c7c3b92560405160405180910390a45050565b60006113a48261126c565b6113e3576040517f08c379a00000000000000000000000000000000000000000000000000000000081526004016113da90613014565b60405180910390fd5b60006113ee83610882565b90508073ffffffffffffffffffffffffffffffffffffffff168473ffffffffffffffffffffffffffffffffffffffff16148061145d57508373ffffffffffffffffffffffffffffffffffffffff1661144584610543565b73ffffffffffffffffffffffffffffffffffffffff16145b8061146e575061146d81856110f6565b5b91505092915050565b8273ffffffffffffffffffffffffffffffffffffffff1661149782610882565b73ffffffffffffffffffffffffffffffffffffffff16146114ed576040517f08c379a00000000000000000000000000000000000000000000000000000000081526004016114e4906130a6565b60405180910390fd5b600073ffffffffffffffffffffffffffffffffffffffff168273ffffffffffffffffffffffffffffffffffffffff160361155c576040517f08c379a000000000000000000000000000000000000000000000000000000000815260040161155390613138565b60405180910390fd5b611567838383611951565b6115726000826112e0565b6001600360008573ffffffffffffffffffffffffffffffffffffffff1673ffffffffffffffffffffffffffffffffffffffff16815260200190815260200160002060008282546115c29190613187565b925050819055506001600360008473ffffffffffffffffffffffffffffffffffffffff1673ffffffffffffffffffffffffffffffffffffffff168152602001908152602001600020600082825461161991906131bb565b92505081905550816002600083815260200190815260200160002060006101000a81548173ffffffffffffffffffffffffffffffffffffffff021916908373ffffffffffffffffffffffffffffffffffffffff160217905550808273ffffffffffffffffffffffffffffffffffffffff168473ffffffffffffffffffffffffffffffffffffffff167fddf252ad1be2c89b69c2b068fc378daa952ba7f163c4a11628f55a4df523b3ef60405160405180910390a46116d8838383611a63565b505050565b6001816000016000828254019250508190555050565b600081600001549050919050565b61171b828260405180602001604052806000815250611a68565b5050565b8173ffffffffffffffffffffffffffffffffffffffff168373ffffffffffffffffffffffffffffffffffffffff160361178d576040517f08c379a00000000000000000000000000000000000000000000000000000000081526004016117849061325d565b60405180910390fd5b80600560008573ffffffffffffffffffffffffffffffffffffffff1673ffffffffffffffffffffffffffffffffffffffff16815260200190815260200160002060008473ffffffffffffffffffffffffffffffffffffffff1673ffffffffffffffffffffffffffffffffffffffff16815260200190815260200160002060006101000a81548160ff0219169083151502179055508173ffffffffffffffffffffffffffffffffffffffff168373ffffffffffffffffffffffffffffffffffffffff167f17307eab39ab6107e8899845ad3d59bd9653f200f220920489ca2b5937696c318360405161187e91906122a8565b60405180910390a3505050565b611896848484611477565b6118a284848484611ac3565b6118e1576040517f08c379a00000000000000000000000000000000000000000000000000000000081526004016118d8906132ef565b60405180910390fd5b50505050565b60007f01ffc9a7000000000000000000000000000000000000000000000000000000007bffffffffffffffffffffffffffffffffffffffffffffffffffffffff1916827bffffffffffffffffffffffffffffffffffffffffffffffffffffffff1916149050919050565b61195c838383611c4a565b600073ffffffffffffffffffffffffffffffffffffffff168373ffffffffffffffffffffffffffffffffffffffff160361199e5761199981611c4f565b6119dd565b8173ffffffffffffffffffffffffffffffffffffffff168373ffffffffffffffffffffffffffffffffffffffff16146119dc576119db8382611c98565b5b5b600073ffffffffffffffffffffffffffffffffffffffff168273ffffffffffffffffffffffffffffffffffffffff1603611a1f57611a1a81611e05565b611a5e565b8273ffffffffffffffffffffffffffffffffffffffff168273ffffffffffffffffffffffffffffffffffffffff1614611a5d57611a5c8282611ed6565b5b5b505050565b505050565b611a728383611f55565b611a7f6000848484611ac3565b611abe576040517f08c379a0000000000000000000000000000000000000000000000000000000008152600401611ab5906132ef565b60405180910390fd5b505050565b6000611ae48473ffffffffffffffffffffffffffffffffffffffff1661212e565b15611c3d578373ffffffffffffffffffffffffffffffffffffffff1663150b7a02611b0d6112d8565b8786866040518563ffffffff1660e01b8152600401611b2f9493929190613364565b6020604051808303816000875af1925050508015611b6b57506040513d601f19601f82011682018060405250810190611b6891906133c5565b60015b611bed573d8060008114611b9b576040519150601f19603f3d011682016040523d82523d6000602084013e611ba0565b606091505b506000815103611be5576040517f08c379a0000000000000000000000000000000000000000000000000000000008152600401611bdc906132ef565b60405180910390fd5b805181602001fd5b63150b7a0260e01b7bffffffffffffffffffffffffffffffffffffffffffffffffffffffff1916817bffffffffffffffffffffffffffffffffffffffffffffffffffffffff191614915050611c42565b600190505b949350505050565b505050565b6008805490506009600083815260200190815260200160002081905550600881908060018154018082558091505060019003906000526020600020016000909190919091505550565b60006001611ca584610933565b611caf9190613187565b9050600060076000848152602001908152602001600020549050818114611d94576000600660008673ffffffffffffffffffffffffffffffffffffffff1673ffffffffffffffffffffffffffffffffffffffff168152602001908152602001600020600084815260200190815260200160002054905080600660008773ffffffffffffffffffffffffffffffffffffffff1673ffffffffffffffffffffffffffffffffffffffff168152602001908152602001600020600084815260200190815260200160002081905550816007600083815260200190815260200160002081905550505b6007600084815260200190815260200160002060009055600660008573ffffffffffffffffffffffffffffffffffffffff1673ffffffffffffffffffffffffffffffffffffffff16815260200190815260200160002060008381526020019081526020016000206000905550505050565b60006001600880549050611e199190613187565b9050600060096000848152602001908152602001600020549050600060088381548110611e4957611e48612dbd565b5b906000526020600020015490508060088381548110611e6b57611e6a612dbd565b5b906000526020600020018190555081600960008381526020019081526020016000208190555060096000858152602001908152602001600020600090556008805480611eba57611eb96133f2565b5b6001900381819060005260206000200160009055905550505050565b6000611ee183610933565b905081600660008573ffffffffffffffffffffffffffffffffffffffff1673ffffffffffffffffffffffffffffffffffffffff168152602001908152602001600020600083815260200190815260200160002081905550806007600084815260200190815260200160002081905550505050565b600073ffffffffffffffffffffffffffffffffffffffff168273ffffffffffffffffffffffffffffffffffffffff1603611fc4576040517f08c379a0000000000000000000000000000000000000000000000000000000008152600401611fbb9061346d565b60405180910390fd5b611fcd8161126c565b1561200d576040517f08c379a0000000000000000000000000000000000000000000000000000000008152600401612004906134d9565b60405180910390fd5b61201960008383611951565b6001600360008473ffffffffffffffffffffffffffffffffffffffff1673ffffffffffffffffffffffffffffffffffffffff168152602001908152602001600020600082825461206991906131bb565b92505081905550816002600083815260200190815260200160002060006101000a81548173ffffffffffffffffffffffffffffffffffffffff021916908373ffffffffffffffffffffffffffffffffffffffff160217905550808273ffffffffffffffffffffffffffffffffffffffff16600073ffffffffffffffffffffffffffffffffffffffff167fddf252ad1be2c89b69c2b068fc378daa952ba7f163c4a11628f55a4df523b3ef60405160405180910390a461212a60008383611a63565b5050565b6000808273ffffffffffffffffffffffffffffffffffffffff163b119050919050565b82805461215d90612a20565b90600052602060002090601f01602090048101928261217f57600085556121c6565b82601f1061219857805160ff19168380011785556121c6565b828001600101855582156121c6579182015b828111156121c55782518255916020019190600101906121aa565b5b5090506121d391906121d7565b5090565b5b808211156121f05760008160009055506001016121d8565b5090565b6000604051905090565b600080fd5b600080fd5b60007fffffffff0000000000000000000000000000000000000000000000000000000082169050919050565b61223d81612208565b811461224857600080fd5b50565b60008135905061225a81612234565b92915050565b600060208284031215612276576122756121fe565b5b60006122848482850161224b565b91505092915050565b60008115159050919050565b6122a28161228d565b82525050565b60006020820190506122bd6000830184612299565b92915050565b600081519050919050565b600082825260208201905092915050565b60005b838110156122fd5780820151818401526020810190506122e2565b8381111561230c576000848401525b50505050565b6000601f19601f8301169050919050565b600061232e826122c3565b61233881856122ce565b93506123488185602086016122df565b61235181612312565b840191505092915050565b600060208201905081810360008301526123768184612323565b905092915050565b6000819050919050565b6123918161237e565b811461239c57600080fd5b50565b6000813590506123ae81612388565b92915050565b6000602082840312156123ca576123c96121fe565b5b60006123d88482850161239f565b91505092915050565b600073ffffffffffffffffffffffffffffffffffffffff82169050919050565b600061240c826123e1565b9050919050565b61241c81612401565b82525050565b60006020820190506124376000830184612413565b92915050565b61244681612401565b811461245157600080fd5b50565b6000813590506124638161243d565b92915050565b600080604083850312156124805761247f6121fe565b5b600061248e85828601612454565b925050602061249f8582860161239f565b9150509250929050565b6124b28161237e565b82525050565b60006020820190506124cd60008301846124a9565b92915050565b6000806000606084860312156124ec576124eb6121fe565b5b60006124fa86828701612454565b935050602061250b86828701612454565b925050604061251c8682870161239f565b9150509250925092565b60006020828403121561253c5761253b6121fe565b5b600061254a84828501612454565b91505092915050565b600080fd5b600080fd5b7f4e487b7100000000000000000000000000000000000000000000000000000000600052604160045260246000fd5b61259582612312565b810181811067ffffffffffffffff821117156125b4576125b361255d565b5b80604052505050565b60006125c76121f4565b90506125d3828261258c565b919050565b600067ffffffffffffffff8211156125f3576125f261255d565b5b6125fc82612312565b9050602081019050919050565b82818337600083830152505050565b600061262b612626846125d8565b6125bd565b90508281526020810184848401111561264757612646612558565b5b612652848285612609565b509392505050565b600082601f83011261266f5761266e612553565b5b813561267f848260208601612618565b91505092915050565b600080600080600060a086880312156126a4576126a36121fe565b5b600086013567ffffffffffffffff8111156126c2576126c1612203565b5b6126ce8882890161265a565b955050602086013567ffffffffffffffff8111156126ef576126ee612203565b5b6126fb8882890161265a565b945050604086013567ffffffffffffffff81111561271c5761271b612203565b5b6127288882890161265a565b935050606086013567ffffffffffffffff81111561274957612748612203565b5b6127558882890161265a565b925050608086013567ffffffffffffffff81111561277657612775612203565b5b6127828882890161265a565b9150509295509295909350565b6127988161228d565b81146127a357600080fd5b50565b6000813590506127b58161278f565b92915050565b600080604083850312156127d2576127d16121fe565b5b60006127e085828601612454565b92505060206127f1858286016127a6565b9150509250929050565b600060e082019050612810600083018a6124a9565b81810360208301526128228189612323565b905081810360408301526128368188612323565b9050818103606083015261284a8187612323565b9050818103608083015261285e8186612323565b905061286d60a0830185612413565b81810360c083015261287f8184612323565b905098975050505050505050565b600067ffffffffffffffff8211156128a8576128a761255d565b5b6128b182612312565b9050602081019050919050565b60006128d16128cc8461288d565b6125bd565b9050828152602081018484840111156128ed576128ec612558565b5b6128f8848285612609565b509392505050565b600082601f83011261291557612914612553565b5b81356129258482602086016128be565b91505092915050565b60008060008060808587031215612948576129476121fe565b5b600061295687828801612454565b945050602061296787828801612454565b93505060406129788782880161239f565b925050606085013567ffffffffffffffff81111561299957612998612203565b5b6129a587828801612900565b91505092959194509250565b600080604083850312156129c8576129c76121fe565b5b60006129d685828601612454565b92505060206129e785828601612454565b9150509250929050565b7f4e487b7100000000000000000000000000000000000000000000000000000000600052602260045260246000fd5b60006002820490506001821680612a3857607f821691505b602082108103612a4b57612a4a6129f1565b5b50919050565b7f4552433732313a20617070726f76656420717565727920666f72206e6f6e657860008201527f697374656e7420746f6b656e0000000000000000000000000000000000000000602082015250565b6000612aad602c836122ce565b9150612ab882612a51565b604082019050919050565b60006020820190508181036000830152612adc81612aa0565b9050919050565b7f4552433732313a20617070726f76616c20746f2063757272656e74206f776e6560008201527f7200000000000000000000000000000000000000000000000000000000000000602082015250565b6000612b3f6021836122ce565b9150612b4a82612ae3565b604082019050919050565b60006020820190508181036000830152612b6e81612b32565b9050919050565b7f4552433732313a20617070726f76652063616c6c6572206973206e6f74206f7760008201527f6e6572206e6f7220617070726f76656420666f7220616c6c0000000000000000602082015250565b6000612bd16038836122ce565b9150612bdc82612b75565b604082019050919050565b60006020820190508181036000830152612c0081612bc4565b9050919050565b7f4552433732313a207472616e736665722063616c6c6572206973206e6f74206f60008201527f776e6572206e6f7220617070726f766564000000000000000000000000000000602082015250565b6000612c636031836122ce565b9150612c6e82612c07565b604082019050919050565b60006020820190508181036000830152612c9281612c56565b9050919050565b7f455243373231456e756d657261626c653a206f776e657220696e646578206f7560008201527f74206f6620626f756e6473000000000000000000000000000000000000000000602082015250565b6000612cf5602b836122ce565b9150612d0082612c99565b604082019050919050565b60006020820190508181036000830152612d2481612ce8565b9050919050565b7f455243373231456e756d657261626c653a20676c6f62616c20696e646578206f60008201527f7574206f6620626f756e64730000000000000000000000000000000000000000602082015250565b6000612d87602c836122ce565b9150612d9282612d2b565b604082019050919050565b60006020820190508181036000830152612db681612d7a565b9050919050565b7f4e487b7100000000000000000000000000000000000000000000000000000000600052603260045260246000fd5b7f4552433732313a206f776e657220717565727920666f72206e6f6e657869737460008201527f656e7420746f6b656e0000000000000000000000000000000000000000000000602082015250565b6000612e486029836122ce565b9150612e5382612dec565b604082019050919050565b60006020820190508181036000830152612e7781612e3b565b9050919050565b7f4552433732313a2062616c616e636520717565727920666f7220746865207a6560008201527f726f206164647265737300000000000000000000000000000000000000000000602082015250565b6000612eda602a836122ce565b9150612ee582612e7e565b604082019050919050565b60006020820190508181036000830152612f0981612ecd565b9050919050565b7f45524337323155524953746f726167653a2055524920717565727920666f722060008201527f6e6f6e6578697374656e7420746f6b656e000000000000000000000000000000602082015250565b6000612f6c6031836122ce565b9150612f7782612f10565b604082019050919050565b60006020820190508181036000830152612f9b81612f5f565b9050919050565b7f4552433732313a206f70657261746f7220717565727920666f72206e6f6e657860008201527f697374656e7420746f6b656e0000000000000000000000000000000000000000602082015250565b6000612ffe602c836122ce565b915061300982612fa2565b604082019050919050565b6000602082019050818103600083015261302d81612ff1565b9050919050565b7f4552433732313a207472616e736665722066726f6d20696e636f72726563742060008201527f6f776e6572000000000000000000000000000000000000000000000000000000602082015250565b60006130906025836122ce565b915061309b82613034565b604082019050919050565b600060208201905081810360008301526130bf81613083565b9050919050565b7f4552433732313a207472616e7366657220746f20746865207a65726f2061646460008201527f7265737300000000000000000000000000000000000000000000000000000000602082015250565b60006131226024836122ce565b915061312d826130c6565b604082019050919050565b6000602082019050818103600083015261315181613115565b9050919050565b7f4e487b7100000000000000000000000000000000000000000000000000000000600052601160045260246000fd5b60006131928261237e565b915061319d8361237e565b9250828210156131b0576131af613158565b5b828203905092915050565b60006131c68261237e565b91506131d18361237e565b9250827fffffffffffffffffffffffffffffffffffffffffffffffffffffffffffffffff0382111561320657613205613158565b5b828201905092915050565b7f4552433732313a20617070726f766520746f2063616c6c657200000000000000600082015250565b60006132476019836122ce565b915061325282613211565b602082019050919050565b600060208201905081810360008301526132768161323a565b9050919050565b7f4552433732313a207472616e7366657220746f206e6f6e20455243373231526560008201527f63656976657220696d706c656d656e7465720000000000000000000000000000602082015250565b60006132d96032836122ce565b91506132e48261327d565b604082019050919050565b60006020820190508181036000830152613308816132cc565b9050919050565b600081519050919050565b600082825260208201905092915050565b60006133368261330f565b613340818561331a565b93506133508185602086016122df565b61335981612312565b840191505092915050565b60006080820190506133796000830187612413565b6133866020830186612413565b61339360408301856124a9565b81810360608301526133a5818461332b565b905095945050505050565b6000815190506133bf81612234565b92915050565b6000602082840312156133db576133da6121fe565b5b60006133e9848285016133b0565b91505092915050565b7f4e487b7100000000000000000000000000000000000000000000000000000000600052603160045260246000fd5b7f4552433732313a206d696e7420746f20746865207a65726f2061646472657373600082015250565b60006134576020836122ce565b915061346282613421565b602082019050919050565b600060208201905081810360008301526134868161344a565b9050919050565b7f4552433732313a20746f6b656e20616c7265616479206d696e74656400000000600082015250565b60006134c3601c836122ce565b91506134ce8261348d565b602082019050919050565b600060208201905081810360008301526134f2816134b6565b905091905056fea2646970667358221220246690c45e022f87686df7efe4fd239aa2e7741dd44117a696b0af6da736c24e64736f6c634300080d0033",
  "immutableReferences": {},
  "source": "// SPDX-License-Identifier: MIT\r\npragma solidity ^0.8.0;\r\n\r\nimport \"@openzeppelin/contracts/token/ERC721/ERC721.sol\";\r\nimport \"@openzeppelin/contracts/token/ERC721/extensions/ERC721Enumerable.sol\";\r\nimport \"@openzeppelin/contracts/token/ERC721/extensions/ERC721URIStorage.sol\";\r\nimport \"@openzeppelin/contracts/utils/Counters.sol\";\r\n\r\ncontract UniToken is ERC721Enumerable{\r\n  using Counters for Counters.Counter;\r\n\r\n  Counters.Counter private _numTokens; // total num of token minted\r\n  address public marketplace;\r\n\r\n  struct NFT {\r\n    uint256 id; \r\n    string name;\r\n    string description;\r\n    string imgHash;\r\n    string createdAt;\r\n    address creator; // attached here\r\n    /* uri content\r\n    {\r\n      name: string,\r\n      description: string,\r\n      creator: hash address,\r\n      imgHash: string,\r\n      createdAt: unix timestamp\r\n    }\r\n    */\r\n    string uri; \r\n  }\r\n\r\n  mapping(uint256 => NFT) public NFTs; //token id => NFT\r\n\r\n  constructor () ERC721(\"UniToken\", \"UNITK\") {}\r\n\r\n  // mint a new token\r\n  function mint(\r\n    string memory uri,\r\n    string memory name,\r\n    string memory description,\r\n    string memory imgHash,\r\n    string memory createdAt\r\n    ) public returns (uint256){\r\n      \r\n    _numTokens.increment(); // increase token counter by 1\r\n    uint256 newNFTId = _numTokens.current();\r\n    _safeMint(msg.sender, newNFTId);\r\n    approve(marketplace, newNFTId);\r\n\r\n    // JSON metadata\r\n    NFTs[newNFTId] = NFT({\r\n      id: newNFTId, \r\n      creator: msg.sender,\r\n      uri:uri,\r\n      name: name,\r\n      description: description,\r\n      imgHash: imgHash,\r\n      createdAt: createdAt\r\n    });\r\n\r\n    return newNFTId;\r\n  }\r\n\r\n  function tokenURI(uint256 tokenId) public view override returns (string memory) {\r\n    require(_exists(tokenId), \"ERC721URIStorage: URI query for nonexistent token\");\r\n    return NFTs[tokenId].uri;\r\n  }\r\n\r\n  function setMarketplace(address market) public {\r\n    //require(msg.sender ==);\r\n    marketplace = market;\r\n  }\r\n\r\n}",
  "sourcePath": "/Users/gabriel/Documents/SUTD/Term 7/Blockchain/50.037-SUTDBlockU-Smart-Contract/contracts/token.sol",
  "compiler": {
    "name": "solc",
    "version": "0.8.13+commit.abaa5c0e.Emscripten.clang"
  },
  "schemaVersion": "3.4.6",
  "updatedAt": "2022-03-31T12:23:01.908Z",
  "networkType": "ethereum",
  "devdoc": {
    "kind": "dev",
    "methods": {
      "approve(address,uint256)": {
        "details": "See {IERC721-approve}."
      },
      "balanceOf(address)": {
        "details": "See {IERC721-balanceOf}."
      },
      "getApproved(uint256)": {
        "details": "See {IERC721-getApproved}."
      },
      "isApprovedForAll(address,address)": {
        "details": "See {IERC721-isApprovedForAll}."
      },
      "name()": {
        "details": "See {IERC721Metadata-name}."
      },
      "ownerOf(uint256)": {
        "details": "See {IERC721-ownerOf}."
      },
      "safeTransferFrom(address,address,uint256)": {
        "details": "See {IERC721-safeTransferFrom}."
      },
      "safeTransferFrom(address,address,uint256,bytes)": {
        "details": "See {IERC721-safeTransferFrom}."
      },
      "setApprovalForAll(address,bool)": {
        "details": "See {IERC721-setApprovalForAll}."
      },
      "supportsInterface(bytes4)": {
        "details": "See {IERC165-supportsInterface}."
      },
      "symbol()": {
        "details": "See {IERC721Metadata-symbol}."
      },
      "tokenByIndex(uint256)": {
        "details": "See {IERC721Enumerable-tokenByIndex}."
      },
      "tokenOfOwnerByIndex(address,uint256)": {
        "details": "See {IERC721Enumerable-tokenOfOwnerByIndex}."
      },
      "tokenURI(uint256)": {
        "details": "See {IERC721Metadata-tokenURI}."
      },
      "totalSupply()": {
        "details": "See {IERC721Enumerable-totalSupply}."
      },
      "transferFrom(address,address,uint256)": {
        "details": "See {IERC721-transferFrom}."
      }
    },
    "version": 1
  },
  "userdoc": {
    "kind": "user",
    "methods": {},
    "version": 1
  }
}