{
  "contractName": "UniToken",
  "abi": [
    {
      "inputs": [],
      "stateMutability": "nonpayable",
      "type": "constructor"
    },
    {
      "anonymous": false,
      "inputs": [
        {
          "indexed": true,
          "internalType": "address",
          "name": "owner",
          "type": "address"
        },
        {
          "indexed": true,
          "internalType": "address",
          "name": "approved",
          "type": "address"
        },
        {
          "indexed": true,
          "internalType": "uint256",
          "name": "tokenId",
          "type": "uint256"
        }
      ],
      "name": "Approval",
      "type": "event"
    },
    {
      "anonymous": false,
      "inputs": [
        {
          "indexed": true,
          "internalType": "address",
          "name": "owner",
          "type": "address"
        },
        {
          "indexed": true,
          "internalType": "address",
          "name": "operator",
          "type": "address"
        },
        {
          "indexed": false,
          "internalType": "bool",
          "name": "approved",
          "type": "bool"
        }
      ],
      "name": "ApprovalForAll",
      "type": "event"
    },
    {
      "anonymous": false,
      "inputs": [
        {
          "indexed": true,
          "internalType": "address",
          "name": "from",
          "type": "address"
        },
        {
          "indexed": true,
          "internalType": "address",
          "name": "to",
          "type": "address"
        },
        {
          "indexed": true,
          "internalType": "uint256",
          "name": "tokenId",
          "type": "uint256"
        }
      ],
      "name": "Transfer",
      "type": "event"
    },
    {
      "inputs": [
        {
          "internalType": "address",
          "name": "to",
          "type": "address"
        },
        {
          "internalType": "uint256",
          "name": "tokenId",
          "type": "uint256"
        }
      ],
      "name": "approve",
      "outputs": [],
      "stateMutability": "nonpayable",
      "type": "function"
    },
    {
      "inputs": [
        {
          "internalType": "address",
          "name": "owner",
          "type": "address"
        }
      ],
      "name": "balanceOf",
      "outputs": [
        {
          "internalType": "uint256",
          "name": "",
          "type": "uint256"
        }
      ],
      "stateMutability": "view",
      "type": "function",
      "constant": true
    },
    {
      "inputs": [
        {
          "internalType": "uint256",
          "name": "tokenId",
          "type": "uint256"
        }
      ],
      "name": "getApproved",
      "outputs": [
        {
          "internalType": "address",
          "name": "",
          "type": "address"
        }
      ],
      "stateMutability": "view",
      "type": "function",
      "constant": true
    },
    {
      "inputs": [
        {
          "internalType": "address",
          "name": "owner",
          "type": "address"
        },
        {
          "internalType": "address",
          "name": "operator",
          "type": "address"
        }
      ],
      "name": "isApprovedForAll",
      "outputs": [
        {
          "internalType": "bool",
          "name": "",
          "type": "bool"
        }
      ],
      "stateMutability": "view",
      "type": "function",
      "constant": true
    },
    {
      "inputs": [],
      "name": "name",
      "outputs": [
        {
          "internalType": "string",
          "name": "",
          "type": "string"
        }
      ],
      "stateMutability": "view",
      "type": "function",
      "constant": true
    },
    {
      "inputs": [
        {
          "internalType": "uint256",
          "name": "tokenId",
          "type": "uint256"
        }
      ],
      "name": "ownerOf",
      "outputs": [
        {
          "internalType": "address",
          "name": "",
          "type": "address"
        }
      ],
      "stateMutability": "view",
      "type": "function",
      "constant": true
    },
    {
      "inputs": [
        {
          "internalType": "address",
          "name": "from",
          "type": "address"
        },
        {
          "internalType": "address",
          "name": "to",
          "type": "address"
        },
        {
          "internalType": "uint256",
          "name": "tokenId",
          "type": "uint256"
        }
      ],
      "name": "safeTransferFrom",
      "outputs": [],
      "stateMutability": "nonpayable",
      "type": "function"
    },
    {
      "inputs": [
        {
          "internalType": "address",
          "name": "from",
          "type": "address"
        },
        {
          "internalType": "address",
          "name": "to",
          "type": "address"
        },
        {
          "internalType": "uint256",
          "name": "tokenId",
          "type": "uint256"
        },
        {
          "internalType": "bytes",
          "name": "_data",
          "type": "bytes"
        }
      ],
      "name": "safeTransferFrom",
      "outputs": [],
      "stateMutability": "nonpayable",
      "type": "function"
    },
    {
      "inputs": [
        {
          "internalType": "address",
          "name": "operator",
          "type": "address"
        },
        {
          "internalType": "bool",
          "name": "approved",
          "type": "bool"
        }
      ],
      "name": "setApprovalForAll",
      "outputs": [],
      "stateMutability": "nonpayable",
      "type": "function"
    },
    {
      "inputs": [
        {
          "internalType": "bytes4",
          "name": "interfaceId",
          "type": "bytes4"
        }
      ],
      "name": "supportsInterface",
      "outputs": [
        {
          "internalType": "bool",
          "name": "",
          "type": "bool"
        }
      ],
      "stateMutability": "view",
      "type": "function",
      "constant": true
    },
    {
      "inputs": [],
      "name": "symbol",
      "outputs": [
        {
          "internalType": "string",
          "name": "",
          "type": "string"
        }
      ],
      "stateMutability": "view",
      "type": "function",
      "constant": true
    },
    {
      "inputs": [
        {
          "internalType": "uint256",
          "name": "index",
          "type": "uint256"
        }
      ],
      "name": "tokenByIndex",
      "outputs": [
        {
          "internalType": "uint256",
          "name": "",
          "type": "uint256"
        }
      ],
      "stateMutability": "view",
      "type": "function",
      "constant": true
    },
    {
      "inputs": [
        {
          "internalType": "address",
          "name": "owner",
          "type": "address"
        },
        {
          "internalType": "uint256",
          "name": "index",
          "type": "uint256"
        }
      ],
      "name": "tokenOfOwnerByIndex",
      "outputs": [
        {
          "internalType": "uint256",
          "name": "",
          "type": "uint256"
        }
      ],
      "stateMutability": "view",
      "type": "function",
      "constant": true
    },
    {
      "inputs": [
        {
          "internalType": "uint256",
          "name": "tokenId",
          "type": "uint256"
        }
      ],
      "name": "tokenURI",
      "outputs": [
        {
          "internalType": "string",
          "name": "",
          "type": "string"
        }
      ],
      "stateMutability": "view",
      "type": "function",
      "constant": true
    },
    {
      "inputs": [],
      "name": "totalSupply",
      "outputs": [
        {
          "internalType": "uint256",
          "name": "",
          "type": "uint256"
        }
      ],
      "stateMutability": "view",
      "type": "function",
      "constant": true
    },
    {
      "inputs": [
        {
          "internalType": "address",
          "name": "from",
          "type": "address"
        },
        {
          "internalType": "address",
          "name": "to",
          "type": "address"
        },
        {
          "internalType": "uint256",
          "name": "tokenId",
          "type": "uint256"
        }
      ],
      "name": "transferFrom",
      "outputs": [],
      "stateMutability": "nonpayable",
      "type": "function"
    },
    {
      "inputs": [
        {
          "internalType": "string",
          "name": "name",
          "type": "string"
        },
        {
          "internalType": "string",
          "name": "description",
          "type": "string"
        },
        {
          "internalType": "string",
          "name": "imgUrl",
          "type": "string"
        },
        {
          "internalType": "string",
          "name": "imgHash",
          "type": "string"
        },
        {
          "internalType": "string",
          "name": "createdAt",
          "type": "string"
        }
      ],
      "name": "mint",
      "outputs": [
        {
          "internalType": "uint256",
          "name": "",
          "type": "uint256"
        }
      ],
      "stateMutability": "nonpayable",
      "type": "function"
    }
  ],
  "bytecode": "0x60806040523480156200001157600080fd5b506040518060400160405280600881526020017f556e69546f6b656e0000000000000000000000000000000000000000000000008152506040518060400160405280600381526020017f55544e0000000000000000000000000000000000000000000000000000000000815250816000908051906020019062000096929190620000b8565b508060019080519060200190620000af929190620000b8565b505050620001cc565b828054620000c69062000197565b90600052602060002090601f016020900481019282620000ea576000855562000136565b82601f106200010557805160ff191683800117855562000136565b8280016001018555821562000136579182015b828111156200013557825182559160200191906001019062000118565b5b50905062000145919062000149565b5090565b5b80821115620001645760008160009055506001016200014a565b5090565b7f4e487b7100000000000000000000000000000000000000000000000000000000600052602260045260246000fd5b60006002820490506001821680620001b057607f821691505b602082108103620001c657620001c562000168565b5b50919050565b61342c80620001dc6000396000f3fe608060405234801561001057600080fd5b506004361061010b5760003560e01c80634f6ccce7116100a257806395d89b411161007157806395d89b41146102f0578063a22cb4651461030e578063b88d4fde1461032a578063c87b56dd14610346578063e985e9c5146103765761010b565b80634f6ccce7146102305780636352211e1461026057806370a082311461029057806386833e91146102c05761010b565b806318160ddd116100de57806318160ddd146101aa57806323b872dd146101c85780632f745c59146101e457806342842e0e146102145761010b565b806301ffc9a71461011057806306fdde0314610140578063081812fc1461015e578063095ea7b31461018e575b600080fd5b61012a60048036038101906101259190611f93565b6103a6565b6040516101379190611fdb565b60405180910390f35b610148610420565b604051610155919061208f565b60405180910390f35b610178600480360381019061017391906120e7565b6104b2565b6040516101859190612155565b60405180910390f35b6101a860048036038101906101a3919061219c565b610537565b005b6101b261064e565b6040516101bf91906121eb565b60405180910390f35b6101e260048036038101906101dd9190612206565b61065b565b005b6101fe60048036038101906101f9919061219c565b6106bb565b60405161020b91906121eb565b60405180910390f35b61022e60048036038101906102299190612206565b610760565b005b61024a600480360381019061024591906120e7565b610780565b60405161025791906121eb565b60405180910390f35b61027a600480360381019061027591906120e7565b6107f1565b6040516102879190612155565b60405180910390f35b6102aa60048036038101906102a59190612259565b6108a2565b6040516102b791906121eb565b60405180910390f35b6102da60048036038101906102d591906123bb565b610959565b6040516102e791906121eb565b60405180910390f35b6102f8610af7565b604051610305919061208f565b60405180910390f35b610328600480360381019061032391906124ee565b610b89565b005b610344600480360381019061033f91906125cf565b610b9f565b005b610360600480360381019061035b91906120e7565b610c01565b60405161036d919061208f565b60405180910390f35b610390600480360381019061038b9190612652565b610ca8565b60405161039d9190611fdb565b60405180910390f35b60007f780e9d63000000000000000000000000000000000000000000000000000000007bffffffffffffffffffffffffffffffffffffffffffffffffffffffff1916827bffffffffffffffffffffffffffffffffffffffffffffffffffffffff19161480610419575061041882610d3c565b5b9050919050565b60606000805461042f906126c1565b80601f016020809104026020016040519081016040528092919081815260200182805461045b906126c1565b80156104a85780601f1061047d576101008083540402835291602001916104a8565b820191906000526020600020905b81548152906001019060200180831161048b57829003601f168201915b5050505050905090565b60006104bd82610e1e565b6104fc576040517f08c379a00000000000000000000000000000000000000000000000000000000081526004016104f390612764565b60405180910390fd5b6004600083815260200190815260200160002060009054906101000a900473ffffffffffffffffffffffffffffffffffffffff169050919050565b6000610542826107f1565b90508073ffffffffffffffffffffffffffffffffffffffff168373ffffffffffffffffffffffffffffffffffffffff16036105b2576040517f08c379a00000000000000000000000000000000000000000000000000000000081526004016105a9906127f6565b60405180910390fd5b8073ffffffffffffffffffffffffffffffffffffffff166105d1610e8a565b73ffffffffffffffffffffffffffffffffffffffff16148061060057506105ff816105fa610e8a565b610ca8565b5b61063f576040517f08c379a000000000000000000000000000000000000000000000000000000000815260040161063690612888565b60405180910390fd5b6106498383610e92565b505050565b6000600880549050905090565b61066c610666610e8a565b82610f4b565b6106ab576040517f08c379a00000000000000000000000000000000000000000000000000000000081526004016106a29061291a565b60405180910390fd5b6106b6838383611029565b505050565b60006106c6836108a2565b8210610707576040517f08c379a00000000000000000000000000000000000000000000000000000000081526004016106fe906129ac565b60405180910390fd5b600660008473ffffffffffffffffffffffffffffffffffffffff1673ffffffffffffffffffffffffffffffffffffffff168152602001908152602001600020600083815260200190815260200160002054905092915050565b61077b83838360405180602001604052806000815250610b9f565b505050565b600061078a61064e565b82106107cb576040517f08c379a00000000000000000000000000000000000000000000000000000000081526004016107c290612a3e565b60405180910390fd5b600882815481106107df576107de612a5e565b5b90600052602060002001549050919050565b6000806002600084815260200190815260200160002060009054906101000a900473ffffffffffffffffffffffffffffffffffffffff169050600073ffffffffffffffffffffffffffffffffffffffff168173ffffffffffffffffffffffffffffffffffffffff1603610899576040517f08c379a000000000000000000000000000000000000000000000000000000000815260040161089090612aff565b60405180910390fd5b80915050919050565b60008073ffffffffffffffffffffffffffffffffffffffff168273ffffffffffffffffffffffffffffffffffffffff1603610912576040517f08c379a000000000000000000000000000000000000000000000000000000000815260040161090990612b91565b60405180910390fd5b600360008373ffffffffffffffffffffffffffffffffffffffff1673ffffffffffffffffffffffffffffffffffffffff168152602001908152602001600020549050919050565b60006109648361128f565b6109a3576040517f08c379a000000000000000000000000000000000000000000000000000000000815260040161099a90612bfd565b60405180910390fd5b60006109ad61064e565b90506040518060c001604052808881526020018781526020018681526020013373ffffffffffffffffffffffffffffffffffffffff16815260200185815260200184815250600a60008381526020019081526020016000206000820151816000019080519060200190610a21929190611e84565b506020820151816001019080519060200190610a3e929190611e84565b506040820151816002019080519060200190610a5b929190611e84565b5060608201518160030160006101000a81548173ffffffffffffffffffffffffffffffffffffffff021916908373ffffffffffffffffffffffffffffffffffffffff1602179055506080820151816004019080519060200190610abf929190611e84565b5060a0820151816005019080519060200190610adc929190611e84565b50905050610aea3382611336565b8091505095945050505050565b606060018054610b06906126c1565b80601f0160208091040260200160405190810160405280929190818152602001828054610b32906126c1565b8015610b7f5780601f10610b5457610100808354040283529160200191610b7f565b820191906000526020600020905b815481529060010190602001808311610b6257829003601f168201915b5050505050905090565b610b9b610b94610e8a565b838361150f565b5050565b610bb0610baa610e8a565b83610f4b565b610bef576040517f08c379a0000000000000000000000000000000000000000000000000000000008152600401610be69061291a565b60405180910390fd5b610bfb8484848461167b565b50505050565b6060610c0c82610e1e565b610c4b576040517f08c379a0000000000000000000000000000000000000000000000000000000008152600401610c4290612c8f565b60405180910390fd5b6000610c556116d7565b90506000815111610c755760405180602001604052806000815250610ca0565b80610c7f846116ee565b604051602001610c90929190612ceb565b6040516020818303038152906040525b915050919050565b6000600560008473ffffffffffffffffffffffffffffffffffffffff1673ffffffffffffffffffffffffffffffffffffffff16815260200190815260200160002060008373ffffffffffffffffffffffffffffffffffffffff1673ffffffffffffffffffffffffffffffffffffffff16815260200190815260200160002060009054906101000a900460ff16905092915050565b60007f80ac58cd000000000000000000000000000000000000000000000000000000007bffffffffffffffffffffffffffffffffffffffffffffffffffffffff1916827bffffffffffffffffffffffffffffffffffffffffffffffffffffffff19161480610e0757507f5b5e139f000000000000000000000000000000000000000000000000000000007bffffffffffffffffffffffffffffffffffffffffffffffffffffffff1916827bffffffffffffffffffffffffffffffffffffffffffffffffffffffff1916145b80610e175750610e168261184e565b5b9050919050565b60008073ffffffffffffffffffffffffffffffffffffffff166002600084815260200190815260200160002060009054906101000a900473ffffffffffffffffffffffffffffffffffffffff1673ffffffffffffffffffffffffffffffffffffffff1614159050919050565b600033905090565b816004600083815260200190815260200160002060006101000a81548173ffffffffffffffffffffffffffffffffffffffff021916908373ffffffffffffffffffffffffffffffffffffffff160217905550808273ffffffffffffffffffffffffffffffffffffffff16610f05836107f1565b73ffffffffffffffffffffffffffffffffffffffff167f8c5be1e5ebec7d5bd14f71427d1e84f3dd0314c0f7b2291e5b200ac8c7c3b92560405160405180910390a45050565b6000610f5682610e1e565b610f95576040517f08c379a0000000000000000000000000000000000000000000000000000000008152600401610f8c90612d81565b60405180910390fd5b6000610fa0836107f1565b90508073ffffffffffffffffffffffffffffffffffffffff168473ffffffffffffffffffffffffffffffffffffffff16148061100f57508373ffffffffffffffffffffffffffffffffffffffff16610ff7846104b2565b73ffffffffffffffffffffffffffffffffffffffff16145b80611020575061101f8185610ca8565b5b91505092915050565b8273ffffffffffffffffffffffffffffffffffffffff16611049826107f1565b73ffffffffffffffffffffffffffffffffffffffff161461109f576040517f08c379a000000000000000000000000000000000000000000000000000000000815260040161109690612e13565b60405180910390fd5b600073ffffffffffffffffffffffffffffffffffffffff168273ffffffffffffffffffffffffffffffffffffffff160361110e576040517f08c379a000000000000000000000000000000000000000000000000000000000815260040161110590612ea5565b60405180910390fd5b6111198383836118b8565b611124600082610e92565b6001600360008573ffffffffffffffffffffffffffffffffffffffff1673ffffffffffffffffffffffffffffffffffffffff16815260200190815260200160002060008282546111749190612ef4565b925050819055506001600360008473ffffffffffffffffffffffffffffffffffffffff1673ffffffffffffffffffffffffffffffffffffffff16815260200190815260200160002060008282546111cb9190612f28565b92505081905550816002600083815260200190815260200160002060006101000a81548173ffffffffffffffffffffffffffffffffffffffff021916908373ffffffffffffffffffffffffffffffffffffffff160217905550808273ffffffffffffffffffffffffffffffffffffffff168473ffffffffffffffffffffffffffffffffffffffff167fddf252ad1be2c89b69c2b068fc378daa952ba7f163c4a11628f55a4df523b3ef60405160405180910390a461128a8383836119ca565b505050565b600080600090505b61129f61064e565b81101561132b57600a60008281526020019081526020016000206004016040516020016112cc9190613013565b60405160208183030381529060405280519060200120836040516020016112f3919061208f565b6040516020818303038152906040528051906020012003611318576000915050611331565b808061132390613035565b915050611297565b50600190505b919050565b600073ffffffffffffffffffffffffffffffffffffffff168273ffffffffffffffffffffffffffffffffffffffff16036113a5576040517f08c379a000000000000000000000000000000000000000000000000000000000815260040161139c906130c9565b60405180910390fd5b6113ae81610e1e565b156113ee576040517f08c379a00000000000000000000000000000000000000000000000000000000081526004016113e590613135565b60405180910390fd5b6113fa600083836118b8565b6001600360008473ffffffffffffffffffffffffffffffffffffffff1673ffffffffffffffffffffffffffffffffffffffff168152602001908152602001600020600082825461144a9190612f28565b92505081905550816002600083815260200190815260200160002060006101000a81548173ffffffffffffffffffffffffffffffffffffffff021916908373ffffffffffffffffffffffffffffffffffffffff160217905550808273ffffffffffffffffffffffffffffffffffffffff16600073ffffffffffffffffffffffffffffffffffffffff167fddf252ad1be2c89b69c2b068fc378daa952ba7f163c4a11628f55a4df523b3ef60405160405180910390a461150b600083836119ca565b5050565b8173ffffffffffffffffffffffffffffffffffffffff168373ffffffffffffffffffffffffffffffffffffffff160361157d576040517f08c379a0000000000000000000000000000000000000000000000000000000008152600401611574906131a1565b60405180910390fd5b80600560008573ffffffffffffffffffffffffffffffffffffffff1673ffffffffffffffffffffffffffffffffffffffff16815260200190815260200160002060008473ffffffffffffffffffffffffffffffffffffffff1673ffffffffffffffffffffffffffffffffffffffff16815260200190815260200160002060006101000a81548160ff0219169083151502179055508173ffffffffffffffffffffffffffffffffffffffff168373ffffffffffffffffffffffffffffffffffffffff167f17307eab39ab6107e8899845ad3d59bd9653f200f220920489ca2b5937696c318360405161166e9190611fdb565b60405180910390a3505050565b611686848484611029565b611692848484846119cf565b6116d1576040517f08c379a00000000000000000000000000000000000000000000000000000000081526004016116c890613233565b60405180910390fd5b50505050565b606060405180602001604052806000815250905090565b606060008203611735576040518060400160405280600181526020017f30000000000000000000000000000000000000000000000000000000000000008152509050611849565b600082905060005b6000821461176757808061175090613035565b915050600a826117609190613282565b915061173d565b60008167ffffffffffffffff81111561178357611782612290565b5b6040519080825280601f01601f1916602001820160405280156117b55781602001600182028036833780820191505090505b5090505b60008514611842576001826117ce9190612ef4565b9150600a856117dd91906132b3565b60306117e99190612f28565b60f81b8183815181106117ff576117fe612a5e565b5b60200101907effffffffffffffffffffffffffffffffffffffffffffffffffffffffffffff1916908160001a905350600a8561183b9190613282565b94506117b9565b8093505050505b919050565b60007f01ffc9a7000000000000000000000000000000000000000000000000000000007bffffffffffffffffffffffffffffffffffffffffffffffffffffffff1916827bffffffffffffffffffffffffffffffffffffffffffffffffffffffff1916149050919050565b6118c3838383611b56565b600073ffffffffffffffffffffffffffffffffffffffff168373ffffffffffffffffffffffffffffffffffffffff16036119055761190081611b5b565b611944565b8173ffffffffffffffffffffffffffffffffffffffff168373ffffffffffffffffffffffffffffffffffffffff1614611943576119428382611ba4565b5b5b600073ffffffffffffffffffffffffffffffffffffffff168273ffffffffffffffffffffffffffffffffffffffff16036119865761198181611d11565b6119c5565b8273ffffffffffffffffffffffffffffffffffffffff168273ffffffffffffffffffffffffffffffffffffffff16146119c4576119c38282611de2565b5b5b505050565b505050565b60006119f08473ffffffffffffffffffffffffffffffffffffffff16611e61565b15611b49578373ffffffffffffffffffffffffffffffffffffffff1663150b7a02611a19610e8a565b8786866040518563ffffffff1660e01b8152600401611a3b9493929190613339565b6020604051808303816000875af1925050508015611a7757506040513d601f19601f82011682018060405250810190611a74919061339a565b60015b611af9573d8060008114611aa7576040519150601f19603f3d011682016040523d82523d6000602084013e611aac565b606091505b506000815103611af1576040517f08c379a0000000000000000000000000000000000000000000000000000000008152600401611ae890613233565b60405180910390fd5b805181602001fd5b63150b7a0260e01b7bffffffffffffffffffffffffffffffffffffffffffffffffffffffff1916817bffffffffffffffffffffffffffffffffffffffffffffffffffffffff191614915050611b4e565b600190505b949350505050565b505050565b6008805490506009600083815260200190815260200160002081905550600881908060018154018082558091505060019003906000526020600020016000909190919091505550565b60006001611bb1846108a2565b611bbb9190612ef4565b9050600060076000848152602001908152602001600020549050818114611ca0576000600660008673ffffffffffffffffffffffffffffffffffffffff1673ffffffffffffffffffffffffffffffffffffffff168152602001908152602001600020600084815260200190815260200160002054905080600660008773ffffffffffffffffffffffffffffffffffffffff1673ffffffffffffffffffffffffffffffffffffffff168152602001908152602001600020600084815260200190815260200160002081905550816007600083815260200190815260200160002081905550505b6007600084815260200190815260200160002060009055600660008573ffffffffffffffffffffffffffffffffffffffff1673ffffffffffffffffffffffffffffffffffffffff16815260200190815260200160002060008381526020019081526020016000206000905550505050565b60006001600880549050611d259190612ef4565b9050600060096000848152602001908152602001600020549050600060088381548110611d5557611d54612a5e565b5b906000526020600020015490508060088381548110611d7757611d76612a5e565b5b906000526020600020018190555081600960008381526020019081526020016000208190555060096000858152602001908152602001600020600090556008805480611dc657611dc56133c7565b5b6001900381819060005260206000200160009055905550505050565b6000611ded836108a2565b905081600660008573ffffffffffffffffffffffffffffffffffffffff1673ffffffffffffffffffffffffffffffffffffffff168152602001908152602001600020600083815260200190815260200160002081905550806007600084815260200190815260200160002081905550505050565b6000808273ffffffffffffffffffffffffffffffffffffffff163b119050919050565b828054611e90906126c1565b90600052602060002090601f016020900481019282611eb25760008555611ef9565b82601f10611ecb57805160ff1916838001178555611ef9565b82800160010185558215611ef9579182015b82811115611ef8578251825591602001919060010190611edd565b5b509050611f069190611f0a565b5090565b5b80821115611f23576000816000905550600101611f0b565b5090565b6000604051905090565b600080fd5b600080fd5b60007fffffffff0000000000000000000000000000000000000000000000000000000082169050919050565b611f7081611f3b565b8114611f7b57600080fd5b50565b600081359050611f8d81611f67565b92915050565b600060208284031215611fa957611fa8611f31565b5b6000611fb784828501611f7e565b91505092915050565b60008115159050919050565b611fd581611fc0565b82525050565b6000602082019050611ff06000830184611fcc565b92915050565b600081519050919050565b600082825260208201905092915050565b60005b83811015612030578082015181840152602081019050612015565b8381111561203f576000848401525b50505050565b6000601f19601f8301169050919050565b600061206182611ff6565b61206b8185612001565b935061207b818560208601612012565b61208481612045565b840191505092915050565b600060208201905081810360008301526120a98184612056565b905092915050565b6000819050919050565b6120c4816120b1565b81146120cf57600080fd5b50565b6000813590506120e1816120bb565b92915050565b6000602082840312156120fd576120fc611f31565b5b600061210b848285016120d2565b91505092915050565b600073ffffffffffffffffffffffffffffffffffffffff82169050919050565b600061213f82612114565b9050919050565b61214f81612134565b82525050565b600060208201905061216a6000830184612146565b92915050565b61217981612134565b811461218457600080fd5b50565b60008135905061219681612170565b92915050565b600080604083850312156121b3576121b2611f31565b5b60006121c185828601612187565b92505060206121d2858286016120d2565b9150509250929050565b6121e5816120b1565b82525050565b600060208201905061220060008301846121dc565b92915050565b60008060006060848603121561221f5761221e611f31565b5b600061222d86828701612187565b935050602061223e86828701612187565b925050604061224f868287016120d2565b9150509250925092565b60006020828403121561226f5761226e611f31565b5b600061227d84828501612187565b91505092915050565b600080fd5b600080fd5b7f4e487b7100000000000000000000000000000000000000000000000000000000600052604160045260246000fd5b6122c882612045565b810181811067ffffffffffffffff821117156122e7576122e6612290565b5b80604052505050565b60006122fa611f27565b905061230682826122bf565b919050565b600067ffffffffffffffff82111561232657612325612290565b5b61232f82612045565b9050602081019050919050565b82818337600083830152505050565b600061235e6123598461230b565b6122f0565b90508281526020810184848401111561237a5761237961228b565b5b61238584828561233c565b509392505050565b600082601f8301126123a2576123a1612286565b5b81356123b284826020860161234b565b91505092915050565b600080600080600060a086880312156123d7576123d6611f31565b5b600086013567ffffffffffffffff8111156123f5576123f4611f36565b5b6124018882890161238d565b955050602086013567ffffffffffffffff81111561242257612421611f36565b5b61242e8882890161238d565b945050604086013567ffffffffffffffff81111561244f5761244e611f36565b5b61245b8882890161238d565b935050606086013567ffffffffffffffff81111561247c5761247b611f36565b5b6124888882890161238d565b925050608086013567ffffffffffffffff8111156124a9576124a8611f36565b5b6124b58882890161238d565b9150509295509295909350565b6124cb81611fc0565b81146124d657600080fd5b50565b6000813590506124e8816124c2565b92915050565b6000806040838503121561250557612504611f31565b5b600061251385828601612187565b9250506020612524858286016124d9565b9150509250929050565b600067ffffffffffffffff82111561254957612548612290565b5b61255282612045565b9050602081019050919050565b600061257261256d8461252e565b6122f0565b90508281526020810184848401111561258e5761258d61228b565b5b61259984828561233c565b509392505050565b600082601f8301126125b6576125b5612286565b5b81356125c684826020860161255f565b91505092915050565b600080600080608085870312156125e9576125e8611f31565b5b60006125f787828801612187565b945050602061260887828801612187565b9350506040612619878288016120d2565b925050606085013567ffffffffffffffff81111561263a57612639611f36565b5b612646878288016125a1565b91505092959194509250565b6000806040838503121561266957612668611f31565b5b600061267785828601612187565b925050602061268885828601612187565b9150509250929050565b7f4e487b7100000000000000000000000000000000000000000000000000000000600052602260045260246000fd5b600060028204905060018216806126d957607f821691505b6020821081036126ec576126eb612692565b5b50919050565b7f4552433732313a20617070726f76656420717565727920666f72206e6f6e657860008201527f697374656e7420746f6b656e0000000000000000000000000000000000000000602082015250565b600061274e602c83612001565b9150612759826126f2565b604082019050919050565b6000602082019050818103600083015261277d81612741565b9050919050565b7f4552433732313a20617070726f76616c20746f2063757272656e74206f776e6560008201527f7200000000000000000000000000000000000000000000000000000000000000602082015250565b60006127e0602183612001565b91506127eb82612784565b604082019050919050565b6000602082019050818103600083015261280f816127d3565b9050919050565b7f4552433732313a20617070726f76652063616c6c6572206973206e6f74206f7760008201527f6e6572206e6f7220617070726f76656420666f7220616c6c0000000000000000602082015250565b6000612872603883612001565b915061287d82612816565b604082019050919050565b600060208201905081810360008301526128a181612865565b9050919050565b7f4552433732313a207472616e736665722063616c6c6572206973206e6f74206f60008201527f776e6572206e6f7220617070726f766564000000000000000000000000000000602082015250565b6000612904603183612001565b915061290f826128a8565b604082019050919050565b60006020820190508181036000830152612933816128f7565b9050919050565b7f455243373231456e756d657261626c653a206f776e657220696e646578206f7560008201527f74206f6620626f756e6473000000000000000000000000000000000000000000602082015250565b6000612996602b83612001565b91506129a18261293a565b604082019050919050565b600060208201905081810360008301526129c581612989565b9050919050565b7f455243373231456e756d657261626c653a20676c6f62616c20696e646578206f60008201527f7574206f6620626f756e64730000000000000000000000000000000000000000602082015250565b6000612a28602c83612001565b9150612a33826129cc565b604082019050919050565b60006020820190508181036000830152612a5781612a1b565b9050919050565b7f4e487b7100000000000000000000000000000000000000000000000000000000600052603260045260246000fd5b7f4552433732313a206f776e657220717565727920666f72206e6f6e657869737460008201527f656e7420746f6b656e0000000000000000000000000000000000000000000000602082015250565b6000612ae9602983612001565b9150612af482612a8d565b604082019050919050565b60006020820190508181036000830152612b1881612adc565b9050919050565b7f4552433732313a2062616c616e636520717565727920666f7220746865207a6560008201527f726f206164647265737300000000000000000000000000000000000000000000602082015250565b6000612b7b602a83612001565b9150612b8682612b1f565b604082019050919050565b60006020820190508181036000830152612baa81612b6e565b9050919050565b7f4e465420616c7265616479206578697374732e00000000000000000000000000600082015250565b6000612be7601383612001565b9150612bf282612bb1565b602082019050919050565b60006020820190508181036000830152612c1681612bda565b9050919050565b7f4552433732314d657461646174613a2055524920717565727920666f72206e6f60008201527f6e6578697374656e7420746f6b656e0000000000000000000000000000000000602082015250565b6000612c79602f83612001565b9150612c8482612c1d565b604082019050919050565b60006020820190508181036000830152612ca881612c6c565b9050919050565b600081905092915050565b6000612cc582611ff6565b612ccf8185612caf565b9350612cdf818560208601612012565b80840191505092915050565b6000612cf78285612cba565b9150612d038284612cba565b91508190509392505050565b7f4552433732313a206f70657261746f7220717565727920666f72206e6f6e657860008201527f697374656e7420746f6b656e0000000000000000000000000000000000000000602082015250565b6000612d6b602c83612001565b9150612d7682612d0f565b604082019050919050565b60006020820190508181036000830152612d9a81612d5e565b9050919050565b7f4552433732313a207472616e736665722066726f6d20696e636f72726563742060008201527f6f776e6572000000000000000000000000000000000000000000000000000000602082015250565b6000612dfd602583612001565b9150612e0882612da1565b604082019050919050565b60006020820190508181036000830152612e2c81612df0565b9050919050565b7f4552433732313a207472616e7366657220746f20746865207a65726f2061646460008201527f7265737300000000000000000000000000000000000000000000000000000000602082015250565b6000612e8f602483612001565b9150612e9a82612e33565b604082019050919050565b60006020820190508181036000830152612ebe81612e82565b9050919050565b7f4e487b7100000000000000000000000000000000000000000000000000000000600052601160045260246000fd5b6000612eff826120b1565b9150612f0a836120b1565b925082821015612f1d57612f1c612ec5565b5b828203905092915050565b6000612f33826120b1565b9150612f3e836120b1565b9250827fffffffffffffffffffffffffffffffffffffffffffffffffffffffffffffffff03821115612f7357612f72612ec5565b5b828201905092915050565b60008190508160005260206000209050919050565b60008154612fa0816126c1565b612faa8186612001565b94506001821660008114612fc55760018114612fd75761300a565b60ff198316865260208601935061300a565b612fe085612f7e565b60005b8381101561300257815481890152600182019150602081019050612fe3565b808801955050505b50505092915050565b6000602082019050818103600083015261302d8184612f93565b905092915050565b6000613040826120b1565b91507fffffffffffffffffffffffffffffffffffffffffffffffffffffffffffffffff820361307257613071612ec5565b5b600182019050919050565b7f4552433732313a206d696e7420746f20746865207a65726f2061646472657373600082015250565b60006130b3602083612001565b91506130be8261307d565b602082019050919050565b600060208201905081810360008301526130e2816130a6565b9050919050565b7f4552433732313a20746f6b656e20616c7265616479206d696e74656400000000600082015250565b600061311f601c83612001565b915061312a826130e9565b602082019050919050565b6000602082019050818103600083015261314e81613112565b9050919050565b7f4552433732313a20617070726f766520746f2063616c6c657200000000000000600082015250565b600061318b601983612001565b915061319682613155565b602082019050919050565b600060208201905081810360008301526131ba8161317e565b9050919050565b7f4552433732313a207472616e7366657220746f206e6f6e20455243373231526560008201527f63656976657220696d706c656d656e7465720000000000000000000000000000602082015250565b600061321d603283612001565b9150613228826131c1565b604082019050919050565b6000602082019050818103600083015261324c81613210565b9050919050565b7f4e487b7100000000000000000000000000000000000000000000000000000000600052601260045260246000fd5b600061328d826120b1565b9150613298836120b1565b9250826132a8576132a7613253565b5b828204905092915050565b60006132be826120b1565b91506132c9836120b1565b9250826132d9576132d8613253565b5b828206905092915050565b600081519050919050565b600082825260208201905092915050565b600061330b826132e4565b61331581856132ef565b9350613325818560208601612012565b61332e81612045565b840191505092915050565b600060808201905061334e6000830187612146565b61335b6020830186612146565b61336860408301856121dc565b818103606083015261337a8184613300565b905095945050505050565b60008151905061339481611f67565b92915050565b6000602082840312156133b0576133af611f31565b5b60006133be84828501613385565b91505092915050565b7f4e487b7100000000000000000000000000000000000000000000000000000000600052603160045260246000fdfea2646970667358221220ffd914e207ba51cd61ad7acba6264b7339b9aed4d9dc350bc03215c8bedd571d64736f6c634300080d0033",
  "immutableReferences": {},
  "source": "// SPDX-License-Identifier: MIT\npragma solidity ^0.8.0;\n\nimport \"@openzeppelin/contracts/token/ERC721/extensions/ERC721Enumerable.sol\";\n\ncontract UniToken is ERC721Enumerable{\n    // Structure of metadata stored on the chain\n    struct UniNFT {\n        string name;\n        string description;\n        string imgUrl;\n        address creator;\n        string imgHash;\n        string createdAt;\n    }\n\n    // tokenIds to UniNFT metadata\n    mapping (uint256 => UniNFT) private mintedNFTs;\n\n    constructor() ERC721(\"UniToken\", \"UTN\") {}\n\n    // Minting function that assigns the new token metadata passed from frontend to a tokenId.\n    // Minted token is assigned to the address of the caller.\n    function mint(string memory name, \n        string memory description,\n        string memory imgUrl,\n        string memory imgHash,\n        string memory createdAt\n    ) external returns (uint) {\n        // Call the verify function to check if imgHash exists in our mintedNFTs mapping\n        require(_verify(imgHash), \"NFT already exists.\");\n\n        // Get the total supply of tokens and assign the new token id to it\n        uint tokenId = totalSupply();\n\n        // Assign metadata to the tokenId\n        mintedNFTs[tokenId] = UniNFT({\n            name: name,\n            description: description,\n            imgUrl: imgUrl,\n            creator: msg.sender,\n            imgHash: imgHash,\n            createdAt: createdAt\n        });\n\n        _mint(msg.sender, tokenId);\n\n        return tokenId;\n    }\n\n    // Checks if imgHash exists in mintedNFTs\n    function _verify(string memory imgHash) private view returns(bool) {\n        for (uint i = 0; i < totalSupply(); i++) {\n            // Compare the 2 strings by hashing to save gas\n            if (keccak256(abi.encode(imgHash)) == keccak256(abi.encode(mintedNFTs[i].imgHash))) {\n                return false;\n            }\n        }\n        return true;\n    }\n\n\n}\n\n",
  "sourcePath": "/Users/tiongshankai/Documents/Github/50.037-SUTDBlockU/backend/contracts/UniToken.sol",
  "compiler": {
    "name": "solc",
    "version": "0.8.13+commit.abaa5c0e.Emscripten.clang"
  },
  "schemaVersion": "3.4.6",
  "updatedAt": "2022-04-06T07:41:40.607Z",
  "networkType": "ethereum",
  "devdoc": {
    "kind": "dev",
    "methods": {
      "approve(address,uint256)": {
        "details": "See {IERC721-approve}."
      },
      "balanceOf(address)": {
        "details": "See {IERC721-balanceOf}."
      },
      "getApproved(uint256)": {
        "details": "See {IERC721-getApproved}."
      },
      "isApprovedForAll(address,address)": {
        "details": "See {IERC721-isApprovedForAll}."
      },
      "name()": {
        "details": "See {IERC721Metadata-name}."
      },
      "ownerOf(uint256)": {
        "details": "See {IERC721-ownerOf}."
      },
      "safeTransferFrom(address,address,uint256)": {
        "details": "See {IERC721-safeTransferFrom}."
      },
      "safeTransferFrom(address,address,uint256,bytes)": {
        "details": "See {IERC721-safeTransferFrom}."
      },
      "setApprovalForAll(address,bool)": {
        "details": "See {IERC721-setApprovalForAll}."
      },
      "supportsInterface(bytes4)": {
        "details": "See {IERC165-supportsInterface}."
      },
      "symbol()": {
        "details": "See {IERC721Metadata-symbol}."
      },
      "tokenByIndex(uint256)": {
        "details": "See {IERC721Enumerable-tokenByIndex}."
      },
      "tokenOfOwnerByIndex(address,uint256)": {
        "details": "See {IERC721Enumerable-tokenOfOwnerByIndex}."
      },
      "tokenURI(uint256)": {
        "details": "See {IERC721Metadata-tokenURI}."
      },
      "totalSupply()": {
        "details": "See {IERC721Enumerable-totalSupply}."
      },
      "transferFrom(address,address,uint256)": {
        "details": "See {IERC721-transferFrom}."
      }
    },
    "version": 1
  },
  "userdoc": {
    "kind": "user",
    "methods": {},
    "version": 1
  }
}