{
  "contractName": "UniToken",
  "abi": [
    {
      "inputs": [],
      "stateMutability": "nonpayable",
      "type": "constructor"
    },
    {
      "anonymous": false,
      "inputs": [
        {
          "indexed": true,
          "internalType": "address",
          "name": "owner",
          "type": "address"
        },
        {
          "indexed": true,
          "internalType": "address",
          "name": "approved",
          "type": "address"
        },
        {
          "indexed": true,
          "internalType": "uint256",
          "name": "tokenId",
          "type": "uint256"
        }
      ],
      "name": "Approval",
      "type": "event"
    },
    {
      "anonymous": false,
      "inputs": [
        {
          "indexed": true,
          "internalType": "address",
          "name": "owner",
          "type": "address"
        },
        {
          "indexed": true,
          "internalType": "address",
          "name": "operator",
          "type": "address"
        },
        {
          "indexed": false,
          "internalType": "bool",
          "name": "approved",
          "type": "bool"
        }
      ],
      "name": "ApprovalForAll",
      "type": "event"
    },
    {
      "anonymous": false,
      "inputs": [
        {
          "indexed": false,
          "internalType": "address",
          "name": "seller",
          "type": "address"
        },
        {
          "indexed": false,
          "internalType": "string",
          "name": "name",
          "type": "string"
        },
        {
          "indexed": false,
          "internalType": "uint256",
          "name": "price",
          "type": "uint256"
        }
      ],
      "name": "ItemBought",
      "type": "event"
    },
    {
      "anonymous": false,
      "inputs": [
        {
          "indexed": false,
          "internalType": "uint256",
          "name": "tokenId",
          "type": "uint256"
        },
        {
          "indexed": false,
          "internalType": "uint256",
          "name": "price",
          "type": "uint256"
        }
      ],
      "name": "ItemListedSuccessfully",
      "type": "event"
    },
    {
      "anonymous": false,
      "inputs": [
        {
          "indexed": false,
          "internalType": "uint256",
          "name": "tokenId",
          "type": "uint256"
        },
        {
          "indexed": false,
          "internalType": "string",
          "name": "name",
          "type": "string"
        },
        {
          "indexed": false,
          "internalType": "string",
          "name": "createdAt",
          "type": "string"
        }
      ],
      "name": "Minted",
      "type": "event"
    },
    {
      "anonymous": false,
      "inputs": [
        {
          "indexed": true,
          "internalType": "address",
          "name": "from",
          "type": "address"
        },
        {
          "indexed": true,
          "internalType": "address",
          "name": "to",
          "type": "address"
        },
        {
          "indexed": true,
          "internalType": "uint256",
          "name": "tokenId",
          "type": "uint256"
        }
      ],
      "name": "Transfer",
      "type": "event"
    },
    {
      "inputs": [
        {
          "internalType": "address",
          "name": "to",
          "type": "address"
        },
        {
          "internalType": "uint256",
          "name": "tokenId",
          "type": "uint256"
        }
      ],
      "name": "approve",
      "outputs": [],
      "stateMutability": "nonpayable",
      "type": "function"
    },
    {
      "inputs": [
        {
          "internalType": "address",
          "name": "owner",
          "type": "address"
        }
      ],
      "name": "balanceOf",
      "outputs": [
        {
          "internalType": "uint256",
          "name": "",
          "type": "uint256"
        }
      ],
      "stateMutability": "view",
      "type": "function",
      "constant": true
    },
    {
      "inputs": [
        {
          "internalType": "uint256",
          "name": "tokenId",
          "type": "uint256"
        }
      ],
      "name": "getApproved",
      "outputs": [
        {
          "internalType": "address",
          "name": "",
          "type": "address"
        }
      ],
      "stateMutability": "view",
      "type": "function",
      "constant": true
    },
    {
      "inputs": [
        {
          "internalType": "address",
          "name": "owner",
          "type": "address"
        },
        {
          "internalType": "address",
          "name": "operator",
          "type": "address"
        }
      ],
      "name": "isApprovedForAll",
      "outputs": [
        {
          "internalType": "bool",
          "name": "",
          "type": "bool"
        }
      ],
      "stateMutability": "view",
      "type": "function",
      "constant": true
    },
    {
      "inputs": [
        {
          "internalType": "uint256",
          "name": "",
          "type": "uint256"
        }
      ],
      "name": "mintedNFTs",
      "outputs": [
        {
          "internalType": "uint256",
          "name": "id",
          "type": "uint256"
        },
        {
          "internalType": "string",
          "name": "name",
          "type": "string"
        },
        {
          "internalType": "string",
          "name": "description",
          "type": "string"
        },
        {
          "internalType": "string",
          "name": "imgUrl",
          "type": "string"
        },
        {
          "internalType": "address",
          "name": "creator",
          "type": "address"
        },
        {
          "internalType": "address",
          "name": "owner",
          "type": "address"
        },
        {
          "internalType": "string",
          "name": "imgHash",
          "type": "string"
        },
        {
          "internalType": "string",
          "name": "createdAt",
          "type": "string"
        },
        {
          "internalType": "bool",
          "name": "listed",
          "type": "bool"
        },
        {
          "internalType": "uint256",
          "name": "price",
          "type": "uint256"
        }
      ],
      "stateMutability": "view",
      "type": "function",
      "constant": true
    },
    {
      "inputs": [],
      "name": "name",
      "outputs": [
        {
          "internalType": "string",
          "name": "",
          "type": "string"
        }
      ],
      "stateMutability": "view",
      "type": "function",
      "constant": true
    },
    {
      "inputs": [
        {
          "internalType": "uint256",
          "name": "tokenId",
          "type": "uint256"
        }
      ],
      "name": "ownerOf",
      "outputs": [
        {
          "internalType": "address",
          "name": "",
          "type": "address"
        }
      ],
      "stateMutability": "view",
      "type": "function",
      "constant": true
    },
    {
      "inputs": [
        {
          "internalType": "address",
          "name": "from",
          "type": "address"
        },
        {
          "internalType": "address",
          "name": "to",
          "type": "address"
        },
        {
          "internalType": "uint256",
          "name": "tokenId",
          "type": "uint256"
        }
      ],
      "name": "safeTransferFrom",
      "outputs": [],
      "stateMutability": "nonpayable",
      "type": "function"
    },
    {
      "inputs": [
        {
          "internalType": "address",
          "name": "from",
          "type": "address"
        },
        {
          "internalType": "address",
          "name": "to",
          "type": "address"
        },
        {
          "internalType": "uint256",
          "name": "tokenId",
          "type": "uint256"
        },
        {
          "internalType": "bytes",
          "name": "_data",
          "type": "bytes"
        }
      ],
      "name": "safeTransferFrom",
      "outputs": [],
      "stateMutability": "nonpayable",
      "type": "function"
    },
    {
      "inputs": [
        {
          "internalType": "address",
          "name": "operator",
          "type": "address"
        },
        {
          "internalType": "bool",
          "name": "approved",
          "type": "bool"
        }
      ],
      "name": "setApprovalForAll",
      "outputs": [],
      "stateMutability": "nonpayable",
      "type": "function"
    },
    {
      "inputs": [
        {
          "internalType": "bytes4",
          "name": "interfaceId",
          "type": "bytes4"
        }
      ],
      "name": "supportsInterface",
      "outputs": [
        {
          "internalType": "bool",
          "name": "",
          "type": "bool"
        }
      ],
      "stateMutability": "view",
      "type": "function",
      "constant": true
    },
    {
      "inputs": [],
      "name": "symbol",
      "outputs": [
        {
          "internalType": "string",
          "name": "",
          "type": "string"
        }
      ],
      "stateMutability": "view",
      "type": "function",
      "constant": true
    },
    {
      "inputs": [
        {
          "internalType": "uint256",
          "name": "index",
          "type": "uint256"
        }
      ],
      "name": "tokenByIndex",
      "outputs": [
        {
          "internalType": "uint256",
          "name": "",
          "type": "uint256"
        }
      ],
      "stateMutability": "view",
      "type": "function",
      "constant": true
    },
    {
      "inputs": [
        {
          "internalType": "address",
          "name": "owner",
          "type": "address"
        },
        {
          "internalType": "uint256",
          "name": "index",
          "type": "uint256"
        }
      ],
      "name": "tokenOfOwnerByIndex",
      "outputs": [
        {
          "internalType": "uint256",
          "name": "",
          "type": "uint256"
        }
      ],
      "stateMutability": "view",
      "type": "function",
      "constant": true
    },
    {
      "inputs": [
        {
          "internalType": "uint256",
          "name": "tokenId",
          "type": "uint256"
        }
      ],
      "name": "tokenURI",
      "outputs": [
        {
          "internalType": "string",
          "name": "",
          "type": "string"
        }
      ],
      "stateMutability": "view",
      "type": "function",
      "constant": true
    },
    {
      "inputs": [],
      "name": "totalSupply",
      "outputs": [
        {
          "internalType": "uint256",
          "name": "",
          "type": "uint256"
        }
      ],
      "stateMutability": "view",
      "type": "function",
      "constant": true
    },
    {
      "inputs": [
        {
          "internalType": "address",
          "name": "from",
          "type": "address"
        },
        {
          "internalType": "address",
          "name": "to",
          "type": "address"
        },
        {
          "internalType": "uint256",
          "name": "tokenId",
          "type": "uint256"
        }
      ],
      "name": "transferFrom",
      "outputs": [],
      "stateMutability": "nonpayable",
      "type": "function"
    },
    {
      "inputs": [
        {
          "internalType": "string",
          "name": "name",
          "type": "string"
        },
        {
          "internalType": "string",
          "name": "description",
          "type": "string"
        },
        {
          "internalType": "string",
          "name": "imgUrl",
          "type": "string"
        },
        {
          "internalType": "string",
          "name": "imgHash",
          "type": "string"
        },
        {
          "internalType": "string",
          "name": "createdAt",
          "type": "string"
        }
      ],
      "name": "mint",
      "outputs": [
        {
          "internalType": "uint256",
          "name": "",
          "type": "uint256"
        }
      ],
      "stateMutability": "nonpayable",
      "type": "function"
    },
    {
      "inputs": [
        {
          "internalType": "uint256",
          "name": "tokenId",
          "type": "uint256"
        },
        {
          "internalType": "uint256",
          "name": "price",
          "type": "uint256"
        }
      ],
      "name": "list",
      "outputs": [],
      "stateMutability": "nonpayable",
      "type": "function"
    },
    {
      "inputs": [
        {
          "internalType": "uint256",
          "name": "tokenId",
          "type": "uint256"
        }
      ],
      "name": "buyItem",
      "outputs": [],
      "stateMutability": "payable",
      "type": "function",
      "payable": true
    },
    {
      "inputs": [],
      "name": "getListedNFTs",
      "outputs": [
        {
          "components": [
            {
              "internalType": "uint256",
              "name": "id",
              "type": "uint256"
            },
            {
              "internalType": "string",
              "name": "name",
              "type": "string"
            },
            {
              "internalType": "string",
              "name": "description",
              "type": "string"
            },
            {
              "internalType": "string",
              "name": "imgUrl",
              "type": "string"
            },
            {
              "internalType": "address",
              "name": "creator",
              "type": "address"
            },
            {
              "internalType": "address",
              "name": "owner",
              "type": "address"
            },
            {
              "internalType": "string",
              "name": "imgHash",
              "type": "string"
            },
            {
              "internalType": "string",
              "name": "createdAt",
              "type": "string"
            },
            {
              "internalType": "bool",
              "name": "listed",
              "type": "bool"
            },
            {
              "internalType": "uint256",
              "name": "price",
              "type": "uint256"
            }
          ],
          "internalType": "struct UniToken.UniNFT[]",
          "name": "",
          "type": "tuple[]"
        }
      ],
      "stateMutability": "view",
      "type": "function",
      "constant": true
    },
    {
      "inputs": [],
      "name": "getUserNFTs",
      "outputs": [
        {
          "components": [
            {
              "internalType": "uint256",
              "name": "id",
              "type": "uint256"
            },
            {
              "internalType": "string",
              "name": "name",
              "type": "string"
            },
            {
              "internalType": "string",
              "name": "description",
              "type": "string"
            },
            {
              "internalType": "string",
              "name": "imgUrl",
              "type": "string"
            },
            {
              "internalType": "address",
              "name": "creator",
              "type": "address"
            },
            {
              "internalType": "address",
              "name": "owner",
              "type": "address"
            },
            {
              "internalType": "string",
              "name": "imgHash",
              "type": "string"
            },
            {
              "internalType": "string",
              "name": "createdAt",
              "type": "string"
            },
            {
              "internalType": "bool",
              "name": "listed",
              "type": "bool"
            },
            {
              "internalType": "uint256",
              "name": "price",
              "type": "uint256"
            }
          ],
          "internalType": "struct UniToken.UniNFT[]",
          "name": "",
          "type": "tuple[]"
        }
      ],
      "stateMutability": "view",
      "type": "function",
      "constant": true
    },
    {
      "inputs": [
        {
          "internalType": "uint256",
          "name": "tokenId",
          "type": "uint256"
        }
      ],
      "name": "getTokenData",
      "outputs": [
        {
          "components": [
            {
              "internalType": "uint256",
              "name": "id",
              "type": "uint256"
            },
            {
              "internalType": "string",
              "name": "name",
              "type": "string"
            },
            {
              "internalType": "string",
              "name": "description",
              "type": "string"
            },
            {
              "internalType": "string",
              "name": "imgUrl",
              "type": "string"
            },
            {
              "internalType": "address",
              "name": "creator",
              "type": "address"
            },
            {
              "internalType": "address",
              "name": "owner",
              "type": "address"
            },
            {
              "internalType": "string",
              "name": "imgHash",
              "type": "string"
            },
            {
              "internalType": "string",
              "name": "createdAt",
              "type": "string"
            },
            {
              "internalType": "bool",
              "name": "listed",
              "type": "bool"
            },
            {
              "internalType": "uint256",
              "name": "price",
              "type": "uint256"
            }
          ],
          "internalType": "struct UniToken.UniNFT",
          "name": "",
          "type": "tuple"
        }
      ],
      "stateMutability": "view",
      "type": "function",
      "constant": true
    },
    {
      "inputs": [],
      "name": "getTransactionHistory",
      "outputs": [
        {
          "components": [
            {
              "internalType": "address",
              "name": "seller",
              "type": "address"
            },
            {
              "internalType": "address",
              "name": "buyer",
              "type": "address"
            },
            {
              "internalType": "uint256",
              "name": "price",
              "type": "uint256"
            },
            {
              "internalType": "uint256",
              "name": "tokenId",
              "type": "uint256"
            }
          ],
          "internalType": "struct UniToken.Transaction[]",
          "name": "",
          "type": "tuple[]"
        }
      ],
      "stateMutability": "view",
      "type": "function",
      "constant": true
    },
    {
      "inputs": [],
      "name": "getNumTokens",
      "outputs": [
        {
          "internalType": "uint256",
          "name": "",
          "type": "uint256"
        }
      ],
      "stateMutability": "view",
      "type": "function",
      "constant": true
    }
  ],
  "bytecode": "0x60806040523480156200001157600080fd5b506040518060400160405280600881526020017f556e69546f6b656e0000000000000000000000000000000000000000000000008152506040518060400160405280600381526020017f55544e0000000000000000000000000000000000000000000000000000000000815250816000908051906020019062000096929190620000b8565b508060019080519060200190620000af929190620000b8565b505050620001cc565b828054620000c69062000197565b90600052602060002090601f016020900481019282620000ea576000855562000136565b82601f106200010557805160ff191683800117855562000136565b8280016001018555821562000136579182015b828111156200013557825182559160200191906001019062000118565b5b50905062000145919062000149565b5090565b5b80821115620001645760008160009055506001016200014a565b5090565b7f4e487b7100000000000000000000000000000000000000000000000000000000600052602260045260246000fd5b60006002820490506001821680620001b057607f821691505b602082108103620001c657620001c562000168565b5b50919050565b61573780620001dc6000396000f3fe6080604052600436106101665760003560e01c80636352211e116100d1578063b76d4fc31161008a578063cd2ed8fb11610064578063cd2ed8fb146105a3578063e7fb74c7146105ce578063e985e9c5146105ea578063fdc5ab8e1461062757610166565b8063b76d4fc314610512578063b88d4fde1461053d578063c87b56dd1461056657610166565b80636352211e146103ca57806370a082311461040757806386833e911461044457806395d89b4114610481578063a22cb465146104ac578063b09afec1146104d557610166565b80631ee9f1d5116101235780631ee9f1d51461028f57806323b872dd146102d55780632f745c59146102fe57806342842e0e1461033b5780634f6ccce71461036457806350fd7367146103a157610166565b8063012386f01461016b57806301ffc9a71461019657806306fdde03146101d3578063081812fc146101fe578063095ea7b31461023b57806318160ddd14610264575b600080fd5b34801561017757600080fd5b50610180610652565b60405161018d9190613d7a565b60405180910390f35b3480156101a257600080fd5b506101bd60048036038101906101b89190613e08565b610b65565b6040516101ca9190613e44565b60405180910390f35b3480156101df57600080fd5b506101e8610bdf565b6040516101f59190613ea9565b60405180910390f35b34801561020a57600080fd5b5061022560048036038101906102209190613ef7565b610c71565b6040516102329190613f33565b60405180910390f35b34801561024757600080fd5b50610262600480360381019061025d9190613f7a565b610cf6565b005b34801561027057600080fd5b50610279610e0d565b6040516102869190613fc9565b60405180910390f35b34801561029b57600080fd5b506102b660048036038101906102b19190613ef7565b610e1a565b6040516102cc9a99989796959493929190613fe4565b60405180910390f35b3480156102e157600080fd5b506102fc60048036038101906102f791906140a3565b611163565b005b34801561030a57600080fd5b5061032560048036038101906103209190613f7a565b6111c3565b6040516103329190613fc9565b60405180910390f35b34801561034757600080fd5b50610362600480360381019061035d91906140a3565b611268565b005b34801561037057600080fd5b5061038b60048036038101906103869190613ef7565b611288565b6040516103989190613fc9565b60405180910390f35b3480156103ad57600080fd5b506103c860048036038101906103c391906140f6565b6112f9565b005b3480156103d657600080fd5b506103f160048036038101906103ec9190613ef7565b61145e565b6040516103fe9190613f33565b60405180910390f35b34801561041357600080fd5b5061042e60048036038101906104299190614136565b61150f565b60405161043b9190613fc9565b60405180910390f35b34801561045057600080fd5b5061046b60048036038101906104669190614298565b6115c6565b6040516104789190613fc9565b60405180910390f35b34801561048d57600080fd5b5061049661184f565b6040516104a39190613ea9565b60405180910390f35b3480156104b857600080fd5b506104d360048036038101906104ce91906143cb565b6118e1565b005b3480156104e157600080fd5b506104fc60048036038101906104f79190613ef7565b6118f7565b6040516105099190614501565b60405180910390f35b34801561051e57600080fd5b50610527611cda565b6040516105349190614627565b60405180910390f35b34801561054957600080fd5b50610564600480360381019061055f91906146ea565b611df9565b005b34801561057257600080fd5b5061058d60048036038101906105889190613ef7565b611e5b565b60405161059a9190613ea9565b60405180910390f35b3480156105af57600080fd5b506105b8611f02565b6040516105c59190613fc9565b60405180910390f35b6105e860048036038101906105e39190613ef7565b611f11565b005b3480156105f657600080fd5b50610611600480360381019061060c919061476d565b61227d565b60405161061e9190613e44565b60405180910390f35b34801561063357600080fd5b5061063c612311565b6040516106499190613d7a565b60405180910390f35b60606000805b610660610e0d565b8110156106b257600b600082815260200190815260200160002060080160009054906101000a900460ff161561069f57818061069b906147dc565b9250505b80806106aa906147dc565b915050610658565b5060008167ffffffffffffffff8111156106cf576106ce61416d565b5b60405190808252806020026020018201604052801561070857816020015b6106f5613990565b8152602001906001900390816106ed5790505b5090506000805b610717610e0d565b811015610b5b57600b600082815260200190815260200160002060080160009054906101000a900460ff1615610b4857600b6000828152602001908152602001600020604051806101400160405290816000820154815260200160018201805461078090614853565b80601f01602080910402602001604051908101604052809291908181526020018280546107ac90614853565b80156107f95780601f106107ce576101008083540402835291602001916107f9565b820191906000526020600020905b8154815290600101906020018083116107dc57829003601f168201915b5050505050815260200160028201805461081290614853565b80601f016020809104026020016040519081016040528092919081815260200182805461083e90614853565b801561088b5780601f106108605761010080835404028352916020019161088b565b820191906000526020600020905b81548152906001019060200180831161086e57829003601f168201915b505050505081526020016003820180546108a490614853565b80601f01602080910402602001604051908101604052809291908181526020018280546108d090614853565b801561091d5780601f106108f25761010080835404028352916020019161091d565b820191906000526020600020905b81548152906001019060200180831161090057829003601f168201915b505050505081526020016004820160009054906101000a900473ffffffffffffffffffffffffffffffffffffffff1673ffffffffffffffffffffffffffffffffffffffff1673ffffffffffffffffffffffffffffffffffffffff1681526020016005820160009054906101000a900473ffffffffffffffffffffffffffffffffffffffff1673ffffffffffffffffffffffffffffffffffffffff1673ffffffffffffffffffffffffffffffffffffffff1681526020016006820180546109e290614853565b80601f0160208091040260200160405190810160405280929190818152602001828054610a0e90614853565b8015610a5b5780601f10610a3057610100808354040283529160200191610a5b565b820191906000526020600020905b815481529060010190602001808311610a3e57829003601f168201915b50505050508152602001600782018054610a7490614853565b80601f0160208091040260200160405190810160405280929190818152602001828054610aa090614853565b8015610aed5780601f10610ac257610100808354040283529160200191610aed565b820191906000526020600020905b815481529060010190602001808311610ad057829003601f168201915b505050505081526020016008820160009054906101000a900460ff16151515158152602001600982015481525050838381518110610b2e57610b2d614884565b5b60200260200101819052508180610b44906147dc565b9250505b8080610b53906147dc565b91505061070f565b5081935050505090565b60007f780e9d63000000000000000000000000000000000000000000000000000000007bffffffffffffffffffffffffffffffffffffffffffffffffffffffff1916827bffffffffffffffffffffffffffffffffffffffffffffffffffffffff19161480610bd85750610bd782612848565b5b9050919050565b606060008054610bee90614853565b80601f0160208091040260200160405190810160405280929190818152602001828054610c1a90614853565b8015610c675780601f10610c3c57610100808354040283529160200191610c67565b820191906000526020600020905b815481529060010190602001808311610c4a57829003601f168201915b5050505050905090565b6000610c7c8261292a565b610cbb576040517f08c379a0000000000000000000000000000000000000000000000000000000008152600401610cb290614925565b60405180910390fd5b6004600083815260200190815260200160002060009054906101000a900473ffffffffffffffffffffffffffffffffffffffff169050919050565b6000610d018261145e565b90508073ffffffffffffffffffffffffffffffffffffffff168373ffffffffffffffffffffffffffffffffffffffff1603610d71576040517f08c379a0000000000000000000000000000000000000000000000000000000008152600401610d68906149b7565b60405180910390fd5b8073ffffffffffffffffffffffffffffffffffffffff16610d90612996565b73ffffffffffffffffffffffffffffffffffffffff161480610dbf5750610dbe81610db9612996565b61227d565b5b610dfe576040517f08c379a0000000000000000000000000000000000000000000000000000000008152600401610df590614a49565b60405180910390fd5b610e08838361299e565b505050565b6000600880549050905090565b600b602052806000526040600020600091509050806000015490806001018054610e4390614853565b80601f0160208091040260200160405190810160405280929190818152602001828054610e6f90614853565b8015610ebc5780601f10610e9157610100808354040283529160200191610ebc565b820191906000526020600020905b815481529060010190602001808311610e9f57829003601f168201915b505050505090806002018054610ed190614853565b80601f0160208091040260200160405190810160405280929190818152602001828054610efd90614853565b8015610f4a5780601f10610f1f57610100808354040283529160200191610f4a565b820191906000526020600020905b815481529060010190602001808311610f2d57829003601f168201915b505050505090806003018054610f5f90614853565b80601f0160208091040260200160405190810160405280929190818152602001828054610f8b90614853565b8015610fd85780601f10610fad57610100808354040283529160200191610fd8565b820191906000526020600020905b815481529060010190602001808311610fbb57829003601f168201915b5050505050908060040160009054906101000a900473ffffffffffffffffffffffffffffffffffffffff16908060050160009054906101000a900473ffffffffffffffffffffffffffffffffffffffff169080600601805461103990614853565b80601f016020809104026020016040519081016040528092919081815260200182805461106590614853565b80156110b25780601f10611087576101008083540402835291602001916110b2565b820191906000526020600020905b81548152906001019060200180831161109557829003601f168201915b5050505050908060070180546110c790614853565b80601f01602080910402602001604051908101604052809291908181526020018280546110f390614853565b80156111405780601f1061111557610100808354040283529160200191611140565b820191906000526020600020905b81548152906001019060200180831161112357829003601f168201915b5050505050908060080160009054906101000a900460ff1690806009015490508a565b61117461116e612996565b82612a57565b6111b3576040517f08c379a00000000000000000000000000000000000000000000000000000000081526004016111aa90614adb565b60405180910390fd5b6111be838383612b35565b505050565b60006111ce8361150f565b821061120f576040517f08c379a000000000000000000000000000000000000000000000000000000000815260040161120690614b6d565b60405180910390fd5b600660008473ffffffffffffffffffffffffffffffffffffffff1673ffffffffffffffffffffffffffffffffffffffff168152602001908152602001600020600083815260200190815260200160002054905092915050565b61128383838360405180602001604052806000815250611df9565b505050565b6000611292610e0d565b82106112d3576040517f08c379a00000000000000000000000000000000000000000000000000000000081526004016112ca90614bff565b60405180910390fd5b600882815481106112e7576112e6614884565b5b90600052602060002001549050919050565b813373ffffffffffffffffffffffffffffffffffffffff1661131a8261145e565b73ffffffffffffffffffffffffffffffffffffffff1614611370576040517f08c379a000000000000000000000000000000000000000000000000000000000815260040161136790614c6b565b60405180910390fd5b82600b600082815260200190815260200160002060080160009054906101000a900460ff16156113d5576040517f08c379a00000000000000000000000000000000000000000000000000000000081526004016113cc90614cd7565b60405180910390fd5b82600b6000868152602001908152602001600020600901819055506001600b600086815260200190815260200160002060080160006101000a81548160ff0219169083151502179055507f039d9e29c1dfd1839290bfaafeba3d84c64ae8d5226ec082e1c8f3dac466668e8484604051611450929190614cf7565b60405180910390a150505050565b6000806002600084815260200190815260200160002060009054906101000a900473ffffffffffffffffffffffffffffffffffffffff169050600073ffffffffffffffffffffffffffffffffffffffff168173ffffffffffffffffffffffffffffffffffffffff1603611506576040517f08c379a00000000000000000000000000000000000000000000000000000000081526004016114fd90614d92565b60405180910390fd5b80915050919050565b60008073ffffffffffffffffffffffffffffffffffffffff168273ffffffffffffffffffffffffffffffffffffffff160361157f576040517f08c379a000000000000000000000000000000000000000000000000000000000815260040161157690614e24565b60405180910390fd5b600360008373ffffffffffffffffffffffffffffffffffffffff1673ffffffffffffffffffffffffffffffffffffffff168152602001908152602001600020549050919050565b60006115d183612d9b565b611610576040517f08c379a000000000000000000000000000000000000000000000000000000000815260040161160790614e90565b60405180910390fd5b600061161a610e0d565b90506040518061014001604052808281526020018881526020018781526020018681526020013373ffffffffffffffffffffffffffffffffffffffff1681526020013373ffffffffffffffffffffffffffffffffffffffff1681526020018581526020018481526020016000151581526020016000815250600b60008381526020019081526020016000206000820151816000015560208201518160010190805190602001906116cb929190613a11565b5060408201518160020190805190602001906116e8929190613a11565b506060820151816003019080519060200190611705929190613a11565b5060808201518160040160006101000a81548173ffffffffffffffffffffffffffffffffffffffff021916908373ffffffffffffffffffffffffffffffffffffffff16021790555060a08201518160050160006101000a81548173ffffffffffffffffffffffffffffffffffffffff021916908373ffffffffffffffffffffffffffffffffffffffff16021790555060c08201518160060190805190602001906117b0929190613a11565b5060e08201518160070190805190602001906117cd929190613a11565b506101008201518160080160006101000a81548160ff02191690831515021790555061012082015181600901559050506118073382612e42565b7fa927ac04d4d3734fe8f2c6d7e10171f210b004d3f2d2a4449bbc6a5f2e5427e381888560405161183a93929190614eb0565b60405180910390a18091505095945050505050565b60606001805461185e90614853565b80601f016020809104026020016040519081016040528092919081815260200182805461188a90614853565b80156118d75780601f106118ac576101008083540402835291602001916118d7565b820191906000526020600020905b8154815290600101906020018083116118ba57829003601f168201915b5050505050905090565b6118f36118ec612996565b838361301b565b5050565b6118ff613990565b600b6000838152602001908152602001600020604051806101400160405290816000820154815260200160018201805461193890614853565b80601f016020809104026020016040519081016040528092919081815260200182805461196490614853565b80156119b15780601f10611986576101008083540402835291602001916119b1565b820191906000526020600020905b81548152906001019060200180831161199457829003601f168201915b505050505081526020016002820180546119ca90614853565b80601f01602080910402602001604051908101604052809291908181526020018280546119f690614853565b8015611a435780601f10611a1857610100808354040283529160200191611a43565b820191906000526020600020905b815481529060010190602001808311611a2657829003601f168201915b50505050508152602001600382018054611a5c90614853565b80601f0160208091040260200160405190810160405280929190818152602001828054611a8890614853565b8015611ad55780601f10611aaa57610100808354040283529160200191611ad5565b820191906000526020600020905b815481529060010190602001808311611ab857829003601f168201915b505050505081526020016004820160009054906101000a900473ffffffffffffffffffffffffffffffffffffffff1673ffffffffffffffffffffffffffffffffffffffff1673ffffffffffffffffffffffffffffffffffffffff1681526020016005820160009054906101000a900473ffffffffffffffffffffffffffffffffffffffff1673ffffffffffffffffffffffffffffffffffffffff1673ffffffffffffffffffffffffffffffffffffffff168152602001600682018054611b9a90614853565b80601f0160208091040260200160405190810160405280929190818152602001828054611bc690614853565b8015611c135780601f10611be857610100808354040283529160200191611c13565b820191906000526020600020905b815481529060010190602001808311611bf657829003601f168201915b50505050508152602001600782018054611c2c90614853565b80601f0160208091040260200160405190810160405280929190818152602001828054611c5890614853565b8015611ca55780601f10611c7a57610100808354040283529160200191611ca5565b820191906000526020600020905b815481529060010190602001808311611c8857829003601f168201915b505050505081526020016008820160009054906101000a900460ff161515151581526020016009820154815250509050919050565b6060600a805480602002602001604051908101604052809291908181526020016000905b82821015611df057838290600052602060002090600402016040518060800160405290816000820160009054906101000a900473ffffffffffffffffffffffffffffffffffffffff1673ffffffffffffffffffffffffffffffffffffffff1673ffffffffffffffffffffffffffffffffffffffff1681526020016001820160009054906101000a900473ffffffffffffffffffffffffffffffffffffffff1673ffffffffffffffffffffffffffffffffffffffff1673ffffffffffffffffffffffffffffffffffffffff1681526020016002820154815260200160038201548152505081526020019060010190611cfe565b50505050905090565b611e0a611e04612996565b83612a57565b611e49576040517f08c379a0000000000000000000000000000000000000000000000000000000008152600401611e4090614adb565b60405180910390fd5b611e5584848484613187565b50505050565b6060611e668261292a565b611ea5576040517f08c379a0000000000000000000000000000000000000000000000000000000008152600401611e9c90614f67565b60405180910390fd5b6000611eaf6131e3565b90506000815111611ecf5760405180602001604052806000815250611efa565b80611ed9846131fa565b604051602001611eea929190614fc3565b6040516020818303038152906040525b915050919050565b6000611f0c610e0d565b905090565b80600b600082815260200190815260200160002060080160009054906101000a900460ff16611f75576040517f08c379a0000000000000000000000000000000000000000000000000000000008152600401611f6c90615033565b60405180910390fd5b6000600b6000848152602001908152602001600020600901549050803414611f9c826131fa565b90611fdd576040517f08c379a0000000000000000000000000000000000000000000000000000000008152600401611fd49190613ea9565b60405180910390fd5b506000600b600085815260200190815260200160002060050160009054906101000a900473ffffffffffffffffffffffffffffffffffffffff1690508073ffffffffffffffffffffffffffffffffffffffff166108fc839081150290604051600060405180830381858888f1935050505015801561205f573d6000803e3d6000fd5b5033600b600086815260200190815260200160002060050160006101000a81548173ffffffffffffffffffffffffffffffffffffffff021916908373ffffffffffffffffffffffffffffffffffffffff1602179055506000600b600086815260200190815260200160002060080160006101000a81548160ff0219169083151502179055506000600b60008681526020019081526020016000206009018190555061210b813386612b35565b600a60405180608001604052808373ffffffffffffffffffffffffffffffffffffffff1681526020013373ffffffffffffffffffffffffffffffffffffffff16815260200184815260200186815250908060018154018082558091505060019003906000526020600020906004020160009091909190915060008201518160000160006101000a81548173ffffffffffffffffffffffffffffffffffffffff021916908373ffffffffffffffffffffffffffffffffffffffff16021790555060208201518160010160006101000a81548173ffffffffffffffffffffffffffffffffffffffff021916908373ffffffffffffffffffffffffffffffffffffffff160217905550604082015181600201556060820151816003015550507f253fcd678c758e0e03dbf3a0243701c7439c306a61158b3c522a81197729901081600b60008781526020019081526020016000206001018460405161226f939291906150e8565b60405180910390a150505050565b6000600560008473ffffffffffffffffffffffffffffffffffffffff1673ffffffffffffffffffffffffffffffffffffffff16815260200190815260200160002060008373ffffffffffffffffffffffffffffffffffffffff1673ffffffffffffffffffffffffffffffffffffffff16815260200190815260200160002060009054906101000a900460ff16905092915050565b60606000805b61231f610e0d565b811015612383573373ffffffffffffffffffffffffffffffffffffffff166123468261145e565b73ffffffffffffffffffffffffffffffffffffffff160361237057818061236c906147dc565b9250505b808061237b906147dc565b915050612317565b5060008167ffffffffffffffff8111156123a05761239f61416d565b5b6040519080825280602002602001820160405280156123d957816020015b6123c6613990565b8152602001906001900390816123be5790505b5090506000805b6123e8610e0d565b81101561283e573373ffffffffffffffffffffffffffffffffffffffff1661240f8261145e565b73ffffffffffffffffffffffffffffffffffffffff160361282b57600b6000828152602001908152602001600020604051806101400160405290816000820154815260200160018201805461246390614853565b80601f016020809104026020016040519081016040528092919081815260200182805461248f90614853565b80156124dc5780601f106124b1576101008083540402835291602001916124dc565b820191906000526020600020905b8154815290600101906020018083116124bf57829003601f168201915b505050505081526020016002820180546124f590614853565b80601f016020809104026020016040519081016040528092919081815260200182805461252190614853565b801561256e5780601f106125435761010080835404028352916020019161256e565b820191906000526020600020905b81548152906001019060200180831161255157829003601f168201915b5050505050815260200160038201805461258790614853565b80601f01602080910402602001604051908101604052809291908181526020018280546125b390614853565b80156126005780601f106125d557610100808354040283529160200191612600565b820191906000526020600020905b8154815290600101906020018083116125e357829003601f168201915b505050505081526020016004820160009054906101000a900473ffffffffffffffffffffffffffffffffffffffff1673ffffffffffffffffffffffffffffffffffffffff1673ffffffffffffffffffffffffffffffffffffffff1681526020016005820160009054906101000a900473ffffffffffffffffffffffffffffffffffffffff1673ffffffffffffffffffffffffffffffffffffffff1673ffffffffffffffffffffffffffffffffffffffff1681526020016006820180546126c590614853565b80601f01602080910402602001604051908101604052809291908181526020018280546126f190614853565b801561273e5780601f106127135761010080835404028352916020019161273e565b820191906000526020600020905b81548152906001019060200180831161272157829003601f168201915b5050505050815260200160078201805461275790614853565b80601f016020809104026020016040519081016040528092919081815260200182805461278390614853565b80156127d05780601f106127a5576101008083540402835291602001916127d0565b820191906000526020600020905b8154815290600101906020018083116127b357829003601f168201915b505050505081526020016008820160009054906101000a900460ff1615151515815260200160098201548152505083838151811061281157612810614884565b5b60200260200101819052508180612827906147dc565b9250505b8080612836906147dc565b9150506123e0565b5081935050505090565b60007f80ac58cd000000000000000000000000000000000000000000000000000000007bffffffffffffffffffffffffffffffffffffffffffffffffffffffff1916827bffffffffffffffffffffffffffffffffffffffffffffffffffffffff1916148061291357507f5b5e139f000000000000000000000000000000000000000000000000000000007bffffffffffffffffffffffffffffffffffffffffffffffffffffffff1916827bffffffffffffffffffffffffffffffffffffffffffffffffffffffff1916145b8061292357506129228261335a565b5b9050919050565b60008073ffffffffffffffffffffffffffffffffffffffff166002600084815260200190815260200160002060009054906101000a900473ffffffffffffffffffffffffffffffffffffffff1673ffffffffffffffffffffffffffffffffffffffff1614159050919050565b600033905090565b816004600083815260200190815260200160002060006101000a81548173ffffffffffffffffffffffffffffffffffffffff021916908373ffffffffffffffffffffffffffffffffffffffff160217905550808273ffffffffffffffffffffffffffffffffffffffff16612a118361145e565b73ffffffffffffffffffffffffffffffffffffffff167f8c5be1e5ebec7d5bd14f71427d1e84f3dd0314c0f7b2291e5b200ac8c7c3b92560405160405180910390a45050565b6000612a628261292a565b612aa1576040517f08c379a0000000000000000000000000000000000000000000000000000000008152600401612a9890615198565b60405180910390fd5b6000612aac8361145e565b90508073ffffffffffffffffffffffffffffffffffffffff168473ffffffffffffffffffffffffffffffffffffffff161480612b1b57508373ffffffffffffffffffffffffffffffffffffffff16612b0384610c71565b73ffffffffffffffffffffffffffffffffffffffff16145b80612b2c5750612b2b818561227d565b5b91505092915050565b8273ffffffffffffffffffffffffffffffffffffffff16612b558261145e565b73ffffffffffffffffffffffffffffffffffffffff1614612bab576040517f08c379a0000000000000000000000000000000000000000000000000000000008152600401612ba29061522a565b60405180910390fd5b600073ffffffffffffffffffffffffffffffffffffffff168273ffffffffffffffffffffffffffffffffffffffff1603612c1a576040517f08c379a0000000000000000000000000000000000000000000000000000000008152600401612c11906152bc565b60405180910390fd5b612c258383836133c4565b612c3060008261299e565b6001600360008573ffffffffffffffffffffffffffffffffffffffff1673ffffffffffffffffffffffffffffffffffffffff1681526020019081526020016000206000828254612c8091906152dc565b925050819055506001600360008473ffffffffffffffffffffffffffffffffffffffff1673ffffffffffffffffffffffffffffffffffffffff1681526020019081526020016000206000828254612cd79190615310565b92505081905550816002600083815260200190815260200160002060006101000a81548173ffffffffffffffffffffffffffffffffffffffff021916908373ffffffffffffffffffffffffffffffffffffffff160217905550808273ffffffffffffffffffffffffffffffffffffffff168473ffffffffffffffffffffffffffffffffffffffff167fddf252ad1be2c89b69c2b068fc378daa952ba7f163c4a11628f55a4df523b3ef60405160405180910390a4612d968383836134d6565b505050565b600080600090505b612dab610e0d565b811015612e3757600b6000828152602001908152602001600020600601604051602001612dd89190615366565b6040516020818303038152906040528051906020012083604051602001612dff9190613ea9565b6040516020818303038152906040528051906020012003612e24576000915050612e3d565b8080612e2f906147dc565b915050612da3565b50600190505b919050565b600073ffffffffffffffffffffffffffffffffffffffff168273ffffffffffffffffffffffffffffffffffffffff1603612eb1576040517f08c379a0000000000000000000000000000000000000000000000000000000008152600401612ea8906153d4565b60405180910390fd5b612eba8161292a565b15612efa576040517f08c379a0000000000000000000000000000000000000000000000000000000008152600401612ef190615440565b60405180910390fd5b612f06600083836133c4565b6001600360008473ffffffffffffffffffffffffffffffffffffffff1673ffffffffffffffffffffffffffffffffffffffff1681526020019081526020016000206000828254612f569190615310565b92505081905550816002600083815260200190815260200160002060006101000a81548173ffffffffffffffffffffffffffffffffffffffff021916908373ffffffffffffffffffffffffffffffffffffffff160217905550808273ffffffffffffffffffffffffffffffffffffffff16600073ffffffffffffffffffffffffffffffffffffffff167fddf252ad1be2c89b69c2b068fc378daa952ba7f163c4a11628f55a4df523b3ef60405160405180910390a4613017600083836134d6565b5050565b8173ffffffffffffffffffffffffffffffffffffffff168373ffffffffffffffffffffffffffffffffffffffff1603613089576040517f08c379a0000000000000000000000000000000000000000000000000000000008152600401613080906154ac565b60405180910390fd5b80600560008573ffffffffffffffffffffffffffffffffffffffff1673ffffffffffffffffffffffffffffffffffffffff16815260200190815260200160002060008473ffffffffffffffffffffffffffffffffffffffff1673ffffffffffffffffffffffffffffffffffffffff16815260200190815260200160002060006101000a81548160ff0219169083151502179055508173ffffffffffffffffffffffffffffffffffffffff168373ffffffffffffffffffffffffffffffffffffffff167f17307eab39ab6107e8899845ad3d59bd9653f200f220920489ca2b5937696c318360405161317a9190613e44565b60405180910390a3505050565b613192848484612b35565b61319e848484846134db565b6131dd576040517f08c379a00000000000000000000000000000000000000000000000000000000081526004016131d49061553e565b60405180910390fd5b50505050565b606060405180602001604052806000815250905090565b606060008203613241576040518060400160405280600181526020017f30000000000000000000000000000000000000000000000000000000000000008152509050613355565b600082905060005b6000821461327357808061325c906147dc565b915050600a8261326c919061558d565b9150613249565b60008167ffffffffffffffff81111561328f5761328e61416d565b5b6040519080825280601f01601f1916602001820160405280156132c15781602001600182028036833780820191505090505b5090505b6000851461334e576001826132da91906152dc565b9150600a856132e991906155be565b60306132f59190615310565b60f81b81838151811061330b5761330a614884565b5b60200101907effffffffffffffffffffffffffffffffffffffffffffffffffffffffffffff1916908160001a905350600a85613347919061558d565b94506132c5565b8093505050505b919050565b60007f01ffc9a7000000000000000000000000000000000000000000000000000000007bffffffffffffffffffffffffffffffffffffffffffffffffffffffff1916827bffffffffffffffffffffffffffffffffffffffffffffffffffffffff1916149050919050565b6133cf838383613662565b600073ffffffffffffffffffffffffffffffffffffffff168373ffffffffffffffffffffffffffffffffffffffff16036134115761340c81613667565b613450565b8173ffffffffffffffffffffffffffffffffffffffff168373ffffffffffffffffffffffffffffffffffffffff161461344f5761344e83826136b0565b5b5b600073ffffffffffffffffffffffffffffffffffffffff168273ffffffffffffffffffffffffffffffffffffffff16036134925761348d8161381d565b6134d1565b8273ffffffffffffffffffffffffffffffffffffffff168273ffffffffffffffffffffffffffffffffffffffff16146134d0576134cf82826138ee565b5b5b505050565b505050565b60006134fc8473ffffffffffffffffffffffffffffffffffffffff1661396d565b15613655578373ffffffffffffffffffffffffffffffffffffffff1663150b7a02613525612996565b8786866040518563ffffffff1660e01b81526004016135479493929190615644565b6020604051808303816000875af192505050801561358357506040513d601f19601f8201168201806040525081019061358091906156a5565b60015b613605573d80600081146135b3576040519150601f19603f3d011682016040523d82523d6000602084013e6135b8565b606091505b5060008151036135fd576040517f08c379a00000000000000000000000000000000000000000000000000000000081526004016135f49061553e565b60405180910390fd5b805181602001fd5b63150b7a0260e01b7bffffffffffffffffffffffffffffffffffffffffffffffffffffffff1916817bffffffffffffffffffffffffffffffffffffffffffffffffffffffff19161491505061365a565b600190505b949350505050565b505050565b6008805490506009600083815260200190815260200160002081905550600881908060018154018082558091505060019003906000526020600020016000909190919091505550565b600060016136bd8461150f565b6136c791906152dc565b90506000600760008481526020019081526020016000205490508181146137ac576000600660008673ffffffffffffffffffffffffffffffffffffffff1673ffffffffffffffffffffffffffffffffffffffff168152602001908152602001600020600084815260200190815260200160002054905080600660008773ffffffffffffffffffffffffffffffffffffffff1673ffffffffffffffffffffffffffffffffffffffff168152602001908152602001600020600084815260200190815260200160002081905550816007600083815260200190815260200160002081905550505b6007600084815260200190815260200160002060009055600660008573ffffffffffffffffffffffffffffffffffffffff1673ffffffffffffffffffffffffffffffffffffffff16815260200190815260200160002060008381526020019081526020016000206000905550505050565b6000600160088054905061383191906152dc565b905060006009600084815260200190815260200160002054905060006008838154811061386157613860614884565b5b90600052602060002001549050806008838154811061388357613882614884565b5b9060005260206000200181905550816009600083815260200190815260200160002081905550600960008581526020019081526020016000206000905560088054806138d2576138d16156d2565b5b6001900381819060005260206000200160009055905550505050565b60006138f98361150f565b905081600660008573ffffffffffffffffffffffffffffffffffffffff1673ffffffffffffffffffffffffffffffffffffffff168152602001908152602001600020600083815260200190815260200160002081905550806007600084815260200190815260200160002081905550505050565b6000808273ffffffffffffffffffffffffffffffffffffffff163b119050919050565b60405180610140016040528060008152602001606081526020016060815260200160608152602001600073ffffffffffffffffffffffffffffffffffffffff168152602001600073ffffffffffffffffffffffffffffffffffffffff1681526020016060815260200160608152602001600015158152602001600081525090565b828054613a1d90614853565b90600052602060002090601f016020900481019282613a3f5760008555613a86565b82601f10613a5857805160ff1916838001178555613a86565b82800160010185558215613a86579182015b82811115613a85578251825591602001919060010190613a6a565b5b509050613a939190613a97565b5090565b5b80821115613ab0576000816000905550600101613a98565b5090565b600081519050919050565b600082825260208201905092915050565b6000819050602082019050919050565b6000819050919050565b613af381613ae0565b82525050565b600081519050919050565b600082825260208201905092915050565b60005b83811015613b33578082015181840152602081019050613b18565b83811115613b42576000848401525b50505050565b6000601f19601f8301169050919050565b6000613b6482613af9565b613b6e8185613b04565b9350613b7e818560208601613b15565b613b8781613b48565b840191505092915050565b600073ffffffffffffffffffffffffffffffffffffffff82169050919050565b6000613bbd82613b92565b9050919050565b613bcd81613bb2565b82525050565b60008115159050919050565b613be881613bd3565b82525050565b600061014083016000830151613c076000860182613aea565b5060208301518482036020860152613c1f8282613b59565b91505060408301518482036040860152613c398282613b59565b91505060608301518482036060860152613c538282613b59565b9150506080830151613c686080860182613bc4565b5060a0830151613c7b60a0860182613bc4565b5060c083015184820360c0860152613c938282613b59565b91505060e083015184820360e0860152613cad8282613b59565b915050610100830151613cc4610100860182613bdf565b50610120830151613cd9610120860182613aea565b508091505092915050565b6000613cf08383613bee565b905092915050565b6000602082019050919050565b6000613d1082613ab4565b613d1a8185613abf565b935083602082028501613d2c85613ad0565b8060005b85811015613d685784840389528151613d498582613ce4565b9450613d5483613cf8565b925060208a01995050600181019050613d30565b50829750879550505050505092915050565b60006020820190508181036000830152613d948184613d05565b905092915050565b6000604051905090565b600080fd5b600080fd5b60007fffffffff0000000000000000000000000000000000000000000000000000000082169050919050565b613de581613db0565b8114613df057600080fd5b50565b600081359050613e0281613ddc565b92915050565b600060208284031215613e1e57613e1d613da6565b5b6000613e2c84828501613df3565b91505092915050565b613e3e81613bd3565b82525050565b6000602082019050613e596000830184613e35565b92915050565b600082825260208201905092915050565b6000613e7b82613af9565b613e858185613e5f565b9350613e95818560208601613b15565b613e9e81613b48565b840191505092915050565b60006020820190508181036000830152613ec38184613e70565b905092915050565b613ed481613ae0565b8114613edf57600080fd5b50565b600081359050613ef181613ecb565b92915050565b600060208284031215613f0d57613f0c613da6565b5b6000613f1b84828501613ee2565b91505092915050565b613f2d81613bb2565b82525050565b6000602082019050613f486000830184613f24565b92915050565b613f5781613bb2565b8114613f6257600080fd5b50565b600081359050613f7481613f4e565b92915050565b60008060408385031215613f9157613f90613da6565b5b6000613f9f85828601613f65565b9250506020613fb085828601613ee2565b9150509250929050565b613fc381613ae0565b82525050565b6000602082019050613fde6000830184613fba565b92915050565b600061014082019050613ffa600083018d613fba565b818103602083015261400c818c613e70565b90508181036040830152614020818b613e70565b90508181036060830152614034818a613e70565b90506140436080830189613f24565b61405060a0830188613f24565b81810360c08301526140628187613e70565b905081810360e08301526140768186613e70565b9050614086610100830185613e35565b614094610120830184613fba565b9b9a5050505050505050505050565b6000806000606084860312156140bc576140bb613da6565b5b60006140ca86828701613f65565b93505060206140db86828701613f65565b92505060406140ec86828701613ee2565b9150509250925092565b6000806040838503121561410d5761410c613da6565b5b600061411b85828601613ee2565b925050602061412c85828601613ee2565b9150509250929050565b60006020828403121561414c5761414b613da6565b5b600061415a84828501613f65565b91505092915050565b600080fd5b600080fd5b7f4e487b7100000000000000000000000000000000000000000000000000000000600052604160045260246000fd5b6141a582613b48565b810181811067ffffffffffffffff821117156141c4576141c361416d565b5b80604052505050565b60006141d7613d9c565b90506141e3828261419c565b919050565b600067ffffffffffffffff8211156142035761420261416d565b5b61420c82613b48565b9050602081019050919050565b82818337600083830152505050565b600061423b614236846141e8565b6141cd565b90508281526020810184848401111561425757614256614168565b5b614262848285614219565b509392505050565b600082601f83011261427f5761427e614163565b5b813561428f848260208601614228565b91505092915050565b600080600080600060a086880312156142b4576142b3613da6565b5b600086013567ffffffffffffffff8111156142d2576142d1613dab565b5b6142de8882890161426a565b955050602086013567ffffffffffffffff8111156142ff576142fe613dab565b5b61430b8882890161426a565b945050604086013567ffffffffffffffff81111561432c5761432b613dab565b5b6143388882890161426a565b935050606086013567ffffffffffffffff81111561435957614358613dab565b5b6143658882890161426a565b925050608086013567ffffffffffffffff81111561438657614385613dab565b5b6143928882890161426a565b9150509295509295909350565b6143a881613bd3565b81146143b357600080fd5b50565b6000813590506143c58161439f565b92915050565b600080604083850312156143e2576143e1613da6565b5b60006143f085828601613f65565b9250506020614401858286016143b6565b9150509250929050565b6000610140830160008301516144246000860182613aea565b506020830151848203602086015261443c8282613b59565b915050604083015184820360408601526144568282613b59565b915050606083015184820360608601526144708282613b59565b91505060808301516144856080860182613bc4565b5060a083015161449860a0860182613bc4565b5060c083015184820360c08601526144b08282613b59565b91505060e083015184820360e08601526144ca8282613b59565b9150506101008301516144e1610100860182613bdf565b506101208301516144f6610120860182613aea565b508091505092915050565b6000602082019050818103600083015261451b818461440b565b905092915050565b600081519050919050565b600082825260208201905092915050565b6000819050602082019050919050565b6080820160008201516145656000850182613bc4565b5060208201516145786020850182613bc4565b50604082015161458b6040850182613aea565b50606082015161459e6060850182613aea565b50505050565b60006145b0838361454f565b60808301905092915050565b6000602082019050919050565b60006145d482614523565b6145de818561452e565b93506145e98361453f565b8060005b8381101561461a57815161460188826145a4565b975061460c836145bc565b9250506001810190506145ed565b5085935050505092915050565b6000602082019050818103600083015261464181846145c9565b905092915050565b600067ffffffffffffffff8211156146645761466361416d565b5b61466d82613b48565b9050602081019050919050565b600061468d61468884614649565b6141cd565b9050828152602081018484840111156146a9576146a8614168565b5b6146b4848285614219565b509392505050565b600082601f8301126146d1576146d0614163565b5b81356146e184826020860161467a565b91505092915050565b6000806000806080858703121561470457614703613da6565b5b600061471287828801613f65565b945050602061472387828801613f65565b935050604061473487828801613ee2565b925050606085013567ffffffffffffffff81111561475557614754613dab565b5b614761878288016146bc565b91505092959194509250565b6000806040838503121561478457614783613da6565b5b600061479285828601613f65565b92505060206147a385828601613f65565b9150509250929050565b7f4e487b7100000000000000000000000000000000000000000000000000000000600052601160045260246000fd5b60006147e782613ae0565b91507fffffffffffffffffffffffffffffffffffffffffffffffffffffffffffffffff8203614819576148186147ad565b5b600182019050919050565b7f4e487b7100000000000000000000000000000000000000000000000000000000600052602260045260246000fd5b6000600282049050600182168061486b57607f821691505b60208210810361487e5761487d614824565b5b50919050565b7f4e487b7100000000000000000000000000000000000000000000000000000000600052603260045260246000fd5b7f4552433732313a20617070726f76656420717565727920666f72206e6f6e657860008201527f697374656e7420746f6b656e0000000000000000000000000000000000000000602082015250565b600061490f602c83613e5f565b915061491a826148b3565b604082019050919050565b6000602082019050818103600083015261493e81614902565b9050919050565b7f4552433732313a20617070726f76616c20746f2063757272656e74206f776e6560008201527f7200000000000000000000000000000000000000000000000000000000000000602082015250565b60006149a1602183613e5f565b91506149ac82614945565b604082019050919050565b600060208201905081810360008301526149d081614994565b9050919050565b7f4552433732313a20617070726f76652063616c6c6572206973206e6f74206f7760008201527f6e6572206e6f7220617070726f76656420666f7220616c6c0000000000000000602082015250565b6000614a33603883613e5f565b9150614a3e826149d7565b604082019050919050565b60006020820190508181036000830152614a6281614a26565b9050919050565b7f4552433732313a207472616e736665722063616c6c6572206973206e6f74206f60008201527f776e6572206e6f7220617070726f766564000000000000000000000000000000602082015250565b6000614ac5603183613e5f565b9150614ad082614a69565b604082019050919050565b60006020820190508181036000830152614af481614ab8565b9050919050565b7f455243373231456e756d657261626c653a206f776e657220696e646578206f7560008201527f74206f6620626f756e6473000000000000000000000000000000000000000000602082015250565b6000614b57602b83613e5f565b9150614b6282614afb565b604082019050919050565b60006020820190508181036000830152614b8681614b4a565b9050919050565b7f455243373231456e756d657261626c653a20676c6f62616c20696e646578206f60008201527f7574206f6620626f756e64730000000000000000000000000000000000000000602082015250565b6000614be9602c83613e5f565b9150614bf482614b8d565b604082019050919050565b60006020820190508181036000830152614c1881614bdc565b9050919050565b7f53656e64657220646f6573206e6f74206f776e20746865206974656d00000000600082015250565b6000614c55601c83613e5f565b9150614c6082614c1f565b602082019050919050565b60006020820190508181036000830152614c8481614c48565b9050919050565b7f4974656d206973206c6973746564000000000000000000000000000000000000600082015250565b6000614cc1600e83613e5f565b9150614ccc82614c8b565b602082019050919050565b60006020820190508181036000830152614cf081614cb4565b9050919050565b6000604082019050614d0c6000830185613fba565b614d196020830184613fba565b9392505050565b7f4552433732313a206f776e657220717565727920666f72206e6f6e657869737460008201527f656e7420746f6b656e0000000000000000000000000000000000000000000000602082015250565b6000614d7c602983613e5f565b9150614d8782614d20565b604082019050919050565b60006020820190508181036000830152614dab81614d6f565b9050919050565b7f4552433732313a2062616c616e636520717565727920666f7220746865207a6560008201527f726f206164647265737300000000000000000000000000000000000000000000602082015250565b6000614e0e602a83613e5f565b9150614e1982614db2565b604082019050919050565b60006020820190508181036000830152614e3d81614e01565b9050919050565b7f4e465420616c7265616479206578697374732e00000000000000000000000000600082015250565b6000614e7a601383613e5f565b9150614e8582614e44565b602082019050919050565b60006020820190508181036000830152614ea981614e6d565b9050919050565b6000606082019050614ec56000830186613fba565b8181036020830152614ed78185613e70565b90508181036040830152614eeb8184613e70565b9050949350505050565b7f4552433732314d657461646174613a2055524920717565727920666f72206e6f60008201527f6e6578697374656e7420746f6b656e0000000000000000000000000000000000602082015250565b6000614f51602f83613e5f565b9150614f5c82614ef5565b604082019050919050565b60006020820190508181036000830152614f8081614f44565b9050919050565b600081905092915050565b6000614f9d82613af9565b614fa78185614f87565b9350614fb7818560208601613b15565b80840191505092915050565b6000614fcf8285614f92565b9150614fdb8284614f92565b91508190509392505050565b7f4974656d206973206e6f74206c69737465640000000000000000000000000000600082015250565b600061501d601283613e5f565b915061502882614fe7565b602082019050919050565b6000602082019050818103600083015261504c81615010565b9050919050565b60008190508160005260206000209050919050565b6000815461507581614853565b61507f8186613e5f565b9450600182166000811461509a57600181146150ac576150df565b60ff19831686526020860193506150df565b6150b585615053565b60005b838110156150d7578154818901526001820191506020810190506150b8565b808801955050505b50505092915050565b60006060820190506150fd6000830186613f24565b818103602083015261510f8185615068565b905061511e6040830184613fba565b949350505050565b7f4552433732313a206f70657261746f7220717565727920666f72206e6f6e657860008201527f697374656e7420746f6b656e0000000000000000000000000000000000000000602082015250565b6000615182602c83613e5f565b915061518d82615126565b604082019050919050565b600060208201905081810360008301526151b181615175565b9050919050565b7f4552433732313a207472616e736665722066726f6d20696e636f72726563742060008201527f6f776e6572000000000000000000000000000000000000000000000000000000602082015250565b6000615214602583613e5f565b915061521f826151b8565b604082019050919050565b6000602082019050818103600083015261524381615207565b9050919050565b7f4552433732313a207472616e7366657220746f20746865207a65726f2061646460008201527f7265737300000000000000000000000000000000000000000000000000000000602082015250565b60006152a6602483613e5f565b91506152b18261524a565b604082019050919050565b600060208201905081810360008301526152d581615299565b9050919050565b60006152e782613ae0565b91506152f283613ae0565b925082821015615305576153046147ad565b5b828203905092915050565b600061531b82613ae0565b915061532683613ae0565b9250827fffffffffffffffffffffffffffffffffffffffffffffffffffffffffffffffff0382111561535b5761535a6147ad565b5b828201905092915050565b600060208201905081810360008301526153808184615068565b905092915050565b7f4552433732313a206d696e7420746f20746865207a65726f2061646472657373600082015250565b60006153be602083613e5f565b91506153c982615388565b602082019050919050565b600060208201905081810360008301526153ed816153b1565b9050919050565b7f4552433732313a20746f6b656e20616c7265616479206d696e74656400000000600082015250565b600061542a601c83613e5f565b9150615435826153f4565b602082019050919050565b600060208201905081810360008301526154598161541d565b9050919050565b7f4552433732313a20617070726f766520746f2063616c6c657200000000000000600082015250565b6000615496601983613e5f565b91506154a182615460565b602082019050919050565b600060208201905081810360008301526154c581615489565b9050919050565b7f4552433732313a207472616e7366657220746f206e6f6e20455243373231526560008201527f63656976657220696d706c656d656e7465720000000000000000000000000000602082015250565b6000615528603283613e5f565b9150615533826154cc565b604082019050919050565b600060208201905081810360008301526155578161551b565b9050919050565b7f4e487b7100000000000000000000000000000000000000000000000000000000600052601260045260246000fd5b600061559882613ae0565b91506155a383613ae0565b9250826155b3576155b261555e565b5b828204905092915050565b60006155c982613ae0565b91506155d483613ae0565b9250826155e4576155e361555e565b5b828206905092915050565b600081519050919050565b600082825260208201905092915050565b6000615616826155ef565b61562081856155fa565b9350615630818560208601613b15565b61563981613b48565b840191505092915050565b60006080820190506156596000830187613f24565b6156666020830186613f24565b6156736040830185613fba565b8181036060830152615685818461560b565b905095945050505050565b60008151905061569f81613ddc565b92915050565b6000602082840312156156bb576156ba613da6565b5b60006156c984828501615690565b91505092915050565b7f4e487b7100000000000000000000000000000000000000000000000000000000600052603160045260246000fdfea2646970667358221220ec9b3dfc953f0949a2a17382a09cb547969ee1efa529e6816af34e540729de0664736f6c634300080d0033",
  "immutableReferences": {},
  "source": "// SPDX-License-Identifier: MIT\npragma solidity ^0.8.0;\n\nimport \"@openzeppelin/contracts/token/ERC721/extensions/ERC721Enumerable.sol\";\nimport \"@openzeppelin/contracts/utils/Strings.sol\";\n\ncontract UniToken is ERC721Enumerable{\n    // Structure of metadata stored on the chain\n    struct UniNFT {\n        uint256 id;\n        string name;\n        string description;\n        string imgUrl;\n        address creator;\n        address owner;\n        string imgHash;\n        string createdAt;\n        bool listed;\n        uint256 price;\n    }\n\n    struct Transaction {\n        address seller;\n        address buyer;\n        uint256 price;\n        uint256 tokenId;\n    }\n\n    Transaction[] transactionHistory;\n\n    // tokenIds to UniNFT metadata\n    mapping (uint256 => UniNFT) public mintedNFTs;\n\n    constructor() ERC721(\"UniToken\", \"UTN\") {}\n\n    event Minted (\n        uint256 tokenId,\n        string name,\n        string createdAt\n    );\n\n    // Minting function that assigns the new token metadata passed from frontend to a tokenId.\n    // Minted token is assigned to the address of the caller.\n    function mint(string memory name, \n        string memory description,\n        string memory imgUrl,\n        string memory imgHash,\n        string memory createdAt\n    ) external returns (uint) {\n        // Call the verify function to check if imgHash exists in our mintedNFTs mapping\n        require(_verify(imgHash), \"NFT already exists.\");\n\n        // Get the total supply of tokens and assign the new token id to it\n        uint tokenId = totalSupply();\n\n        // Assign metadata to the tokenId\n        mintedNFTs[tokenId] = UniNFT({\n            id: tokenId,\n            name: name,\n            description: description,\n            imgUrl: imgUrl,\n            creator: msg.sender,\n            owner: msg.sender,\n            imgHash: imgHash,\n            createdAt: createdAt,\n            listed: false,\n            price: 0\n        });\n\n        _mint(msg.sender, tokenId);\n        // setApprovalForAll(address(this), true);\n        \n        // Emit event\n        emit Minted(tokenId, name, createdAt);\n\n        return tokenId;\n    }\n\n    // Checks if imgHash exists in mintedNFTs\n    function _verify(string memory imgHash) private view returns(bool) {\n        for (uint i = 0; i < totalSupply(); i++) {\n            // Compare the 2 strings by hashing to save gas\n            if (keccak256(abi.encode(imgHash)) == keccak256(abi.encode(mintedNFTs[i].imgHash))) {\n                return false;\n            }\n        }\n        return true;\n    }\n\n    // Function modifier to check if lister has the token to prevent hackers from listing other peoples' tokens\n    modifier IsItemOwner(uint256 tokenId){\n        require(ownerOf(tokenId) == msg.sender, \"Sender does not own the item\");\n        _;\n    }\n\n    // Function modifier to check if a listed item is still for sale\n    modifier IsListed(uint256 tokenId){\n        require(mintedNFTs[tokenId].listed, \"Item is not listed\");\n        _;\n    }\n\n     // Function modifier to check if item is already listed on marketplace\n    modifier IsNotListed(uint256 tokenId) {\n        require(!mintedNFTs[tokenId].listed, \"Item is listed\");\n        _;\n    }\n\n    event ItemListedSuccessfully(uint256 tokenId, uint256 price);\n    event ItemBought(address seller, string name, uint256 price);    \n\n    // List owned NFT with price and tokenId passed from frontend\n    function list(uint256 tokenId, uint256 price) \n    IsItemOwner(tokenId)\n    IsNotListed(tokenId)\n    external {\n        mintedNFTs[tokenId].price = price;\n        mintedNFTs[tokenId].listed = true;\n\n        // Emit event to the frontend to update the UI\n        emit ItemListedSuccessfully(tokenId, price);\n    }\n    \n    // Function called to purchase a listed item\n    function buyItem(uint256 tokenId) \n    IsListed(tokenId)\n    payable \n    external { \n\n        uint256 currentPrice = mintedNFTs[tokenId].price;\n\n        // Need to test on frontend\n        require(msg.value == currentPrice, Strings.toString(currentPrice));\n\n        address seller = mintedNFTs[tokenId].owner;\n    \n        // Transfer funds from buyer to seller\n        payable(seller).transfer(currentPrice);\n\n        \n        mintedNFTs[tokenId].owner = msg.sender;\n        // Set listed to false\n        mintedNFTs[tokenId].listed = false;\n        // Reset price to 0\n        mintedNFTs[tokenId].price = 0;\n\n        // Call the transfer function from UniToken\n        _transfer(seller, msg.sender, tokenId);\n\n        // Create transaction item\n        transactionHistory.push(Transaction(seller, msg.sender, currentPrice, tokenId));\n\n        emit ItemBought(seller, mintedNFTs[tokenId].name, currentPrice);\n    }\n\n    function getListedNFTs() public view returns (UniNFT[] memory){\n        uint count = 0;\n        for (uint i = 0; i < totalSupply(); i++) {\n            if (mintedNFTs[i].listed) {\n                count++;\n            }\n        }\n        \n        UniNFT[] memory listedNFTs = new UniNFT[](count);\n        uint j = 0;\n\n        for (uint i = 0; i < totalSupply(); i++ ) {\n            if (mintedNFTs[i].listed) {\n                listedNFTs[j] = mintedNFTs[i];\n                j++;\n            }    \n        }\n\n        return listedNFTs;\n    }\n\n    function getUserNFTs() public view returns (UniNFT[] memory) {\n        uint count = 0;\n        for (uint i = 0; i < totalSupply(); i++) {\n            if (ownerOf(i) == msg.sender) {\n                count++;\n            }\n        }\n        \n        UniNFT[] memory userNFTs = new UniNFT[](count);\n        uint j = 0;\n\n        for (uint i = 0; i < totalSupply(); i++ ) {\n            if (ownerOf(i) == msg.sender) {\n                userNFTs[j] = mintedNFTs[i];\n                j++;\n            }    \n        }\n\n        return userNFTs;\n    }\n\n    function getTokenData(uint256 tokenId) public view returns(UniNFT memory) {\n        return mintedNFTs[tokenId];\n    }\n\n    function getTransactionHistory() public view returns(Transaction[] memory) {\n        return transactionHistory;\n    }\n\n    function getNumTokens() public view returns(uint256) {\n        return totalSupply();\n    }\n}\n\n",
  "sourcePath": "/Users/tiongshankai/Documents/Github/50.037-SUTDBlockU/backend/contracts/UniToken.sol",
  "compiler": {
    "name": "solc",
    "version": "0.8.13+commit.abaa5c0e.Emscripten.clang"
  },
  "schemaVersion": "3.4.6",
  "updatedAt": "2022-04-12T16:06:33.987Z",
  "networkType": "ethereum",
  "devdoc": {
    "kind": "dev",
    "methods": {
      "approve(address,uint256)": {
        "details": "See {IERC721-approve}."
      },
      "balanceOf(address)": {
        "details": "See {IERC721-balanceOf}."
      },
      "getApproved(uint256)": {
        "details": "See {IERC721-getApproved}."
      },
      "isApprovedForAll(address,address)": {
        "details": "See {IERC721-isApprovedForAll}."
      },
      "name()": {
        "details": "See {IERC721Metadata-name}."
      },
      "ownerOf(uint256)": {
        "details": "See {IERC721-ownerOf}."
      },
      "safeTransferFrom(address,address,uint256)": {
        "details": "See {IERC721-safeTransferFrom}."
      },
      "safeTransferFrom(address,address,uint256,bytes)": {
        "details": "See {IERC721-safeTransferFrom}."
      },
      "setApprovalForAll(address,bool)": {
        "details": "See {IERC721-setApprovalForAll}."
      },
      "supportsInterface(bytes4)": {
        "details": "See {IERC165-supportsInterface}."
      },
      "symbol()": {
        "details": "See {IERC721Metadata-symbol}."
      },
      "tokenByIndex(uint256)": {
        "details": "See {IERC721Enumerable-tokenByIndex}."
      },
      "tokenOfOwnerByIndex(address,uint256)": {
        "details": "See {IERC721Enumerable-tokenOfOwnerByIndex}."
      },
      "tokenURI(uint256)": {
        "details": "See {IERC721Metadata-tokenURI}."
      },
      "totalSupply()": {
        "details": "See {IERC721Enumerable-totalSupply}."
      },
      "transferFrom(address,address,uint256)": {
        "details": "See {IERC721-transferFrom}."
      }
    },
    "version": 1
  },
  "userdoc": {
    "kind": "user",
    "methods": {},
    "version": 1
  }
}